{
  "contractName": "DataDappContract",
  "abi": [
    {
      "anonymous": false,
      "inputs": [
        {
          "indexed": false,
          "internalType": "bool",
          "name": "_isRegistered",
          "type": "bool"
        }
      ],
      "name": "Check",
      "type": "event"
    },
    {
      "anonymous": false,
      "inputs": [
        {
          "indexed": false,
          "internalType": "address",
          "name": "requester",
          "type": "address"
        }
      ],
      "name": "DepositEvent",
      "type": "event"
    },
    {
      "anonymous": false,
      "inputs": [
        {
          "indexed": false,
          "internalType": "string",
          "name": "_id",
          "type": "string"
        }
      ],
      "name": "Register",
      "type": "event"
    },
    {
      "anonymous": false,
      "inputs": [
        {
          "indexed": false,
          "internalType": "address",
          "name": "requester",
          "type": "address"
        }
      ],
      "name": "ReturnMoneyEvent",
      "type": "event"
    },
    {
      "anonymous": false,
      "inputs": [
        {
          "components": [
            {
              "internalType": "string",
              "name": "reviewer",
              "type": "string"
            },
            {
              "internalType": "uint8",
              "name": "rating",
              "type": "uint8"
            },
            {
              "internalType": "bytes32",
              "name": "comments",
              "type": "bytes32"
            }
          ],
          "indexed": false,
          "internalType": "struct DataDappContract.Review",
          "name": "review",
          "type": "tuple"
        }
      ],
      "name": "ReviewResult",
      "type": "event"
    },
    {
      "anonymous": false,
      "inputs": [
        {
          "indexed": false,
          "internalType": "address",
          "name": "requester",
          "type": "address"
        },
        {
          "indexed": false,
          "internalType": "uint256",
          "name": "index",
          "type": "uint256"
        }
      ],
      "name": "SampleRequestResult",
      "type": "event"
    },
    {
      "anonymous": false,
      "inputs": [
        {
          "indexed": false,
          "internalType": "address",
          "name": "requester",
          "type": "address"
        }
      ],
      "name": "SendMoneyEvent",
      "type": "event"
    },
    {
      "anonymous": false,
      "inputs": [
        {
          "components": [
            {
              "internalType": "address",
              "name": "ownerAddress",
              "type": "address"
            },
            {
              "internalType": "bytes32[]",
              "name": "ipfsHashes",
              "type": "bytes32[]"
            }
          ],
          "indexed": false,
          "internalType": "struct DataDappContract.UploadPacket",
          "name": "upload",
          "type": "tuple"
        }
      ],
      "name": "UploadResult",
      "type": "event"
    },
    {
      "inputs": [
        {
          "internalType": "bytes32",
          "name": "",
          "type": "bytes32"
        }
      ],
      "name": "deposits",
      "outputs": [
        {
          "internalType": "uint256",
          "name": "",
          "type": "uint256"
        }
      ],
      "stateMutability": "view",
      "type": "function",
      "constant": true
    },
    {
      "inputs": [
        {
          "internalType": "bytes32",
          "name": "",
          "type": "bytes32"
        }
      ],
      "name": "purchases",
      "outputs": [
        {
          "internalType": "bytes32",
          "name": "packetId",
          "type": "bytes32"
        },
        {
          "internalType": "address",
          "name": "requesterAddress",
          "type": "address"
        }
      ],
      "stateMutability": "view",
      "type": "function",
      "constant": true
    },
    {
      "inputs": [
        {
          "internalType": "string",
          "name": "_id",
          "type": "string"
        }
      ],
      "name": "registerUser",
      "outputs": [],
      "stateMutability": "nonpayable",
      "type": "function"
    },
    {
      "inputs": [
        {
          "internalType": "bytes32",
          "name": "",
          "type": "bytes32"
        }
      ],
      "name": "registeredUsers",
      "outputs": [
        {
          "internalType": "bool",
          "name": "",
          "type": "bool"
        }
      ],
      "stateMutability": "view",
      "type": "function",
      "constant": true
    },
    {
      "inputs": [
        {
          "internalType": "bytes32",
          "name": "",
          "type": "bytes32"
        },
        {
          "internalType": "uint256",
          "name": "",
          "type": "uint256"
        }
      ],
      "name": "reviews",
      "outputs": [
        {
          "internalType": "string",
          "name": "reviewer",
          "type": "string"
        },
        {
          "internalType": "uint8",
          "name": "rating",
          "type": "uint8"
        },
        {
          "internalType": "bytes32",
          "name": "comments",
          "type": "bytes32"
        }
      ],
      "stateMutability": "view",
      "type": "function",
      "constant": true
    },
    {
      "inputs": [
        {
          "internalType": "bytes32",
          "name": "",
          "type": "bytes32"
        },
        {
          "internalType": "uint256",
          "name": "",
          "type": "uint256"
        }
      ],
      "name": "sampleRequests",
      "outputs": [
        {
          "internalType": "bytes32",
          "name": "",
          "type": "bytes32"
        }
      ],
      "stateMutability": "view",
      "type": "function",
      "constant": true
    },
    {
      "inputs": [
        {
          "internalType": "bytes32",
          "name": "",
          "type": "bytes32"
        }
      ],
      "name": "uploads",
      "outputs": [
        {
          "internalType": "address",
          "name": "ownerAddress",
          "type": "address"
        }
      ],
      "stateMutability": "view",
      "type": "function",
      "constant": true
    },
    {
      "stateMutability": "payable",
      "type": "receive",
      "payable": true
    },
    {
      "inputs": [
        {
          "internalType": "string",
          "name": "_userId",
          "type": "string"
        },
        {
          "internalType": "string",
          "name": "_packetId",
          "type": "string"
        },
        {
          "internalType": "string[]",
          "name": "_ipfsHashes",
          "type": "string[]"
        }
      ],
      "name": "addUpload",
      "outputs": [],
      "stateMutability": "nonpayable",
      "type": "function"
    },
    {
      "inputs": [
        {
          "internalType": "string",
          "name": "_requesterId",
          "type": "string"
        },
        {
          "internalType": "string",
          "name": "_packetId",
          "type": "string"
        },
        {
          "internalType": "string[]",
          "name": "_keys",
          "type": "string[]"
        }
      ],
      "name": "addSampleRequest",
      "outputs": [],
      "stateMutability": "nonpayable",
      "type": "function"
    },
    {
      "inputs": [
        {
          "internalType": "string",
          "name": "_ownerId",
          "type": "string"
        },
        {
          "internalType": "string",
          "name": "_packetId",
          "type": "string"
        },
        {
          "internalType": "address",
          "name": "_requesterAddress",
          "type": "address"
        },
        {
          "internalType": "string[]",
          "name": "_keys",
          "type": "string[]"
        },
        {
          "internalType": "uint256",
          "name": "price",
          "type": "uint256"
        },
        {
          "internalType": "bool",
          "name": "_approve",
          "type": "bool"
        }
      ],
      "name": "addPurchase",
      "outputs": [],
      "stateMutability": "nonpayable",
      "type": "function"
    },
    {
      "inputs": [
        {
          "internalType": "string",
          "name": "_requesterId",
          "type": "string"
        },
        {
          "internalType": "string",
          "name": "_packetId",
          "type": "string"
        }
      ],
      "name": "getPurchaseKeys",
      "outputs": [
        {
          "internalType": "string[]",
          "name": "",
          "type": "string[]"
        }
      ],
      "stateMutability": "view",
      "type": "function",
      "constant": true
    },
    {
      "inputs": [
        {
          "internalType": "string",
          "name": "_rated",
          "type": "string"
        },
        {
          "internalType": "string",
          "name": "_reviewer",
          "type": "string"
        },
        {
          "internalType": "uint8",
          "name": "_rating",
          "type": "uint8"
        },
        {
          "internalType": "string",
          "name": "_comments",
          "type": "string"
        }
      ],
      "name": "addReview",
      "outputs": [],
      "stateMutability": "nonpayable",
      "type": "function"
    },
    {
      "inputs": [
        {
          "internalType": "string",
          "name": "_id",
          "type": "string"
        }
      ],
      "name": "getRegisterUsers",
      "outputs": [],
      "stateMutability": "nonpayable",
      "type": "function"
    }
  ],
  "bytecode": "0x608060405234801561001057600080fd5b50612808806100206000396000f3fe6080604052600436106100c65760003560e01c80636bf22a4b1161007f57806397b130bf1161005957806397b130bf146103375780639b5c93cd14610374578063c0302cdd1461039d578063d68557ae146103c65761015a565b80636bf22a4b146102a7578063704f1b94146102d05780637ab8dbe9146102f95761015a565b80631e5d30761461015f578063366c6ea4146101885780633d4dff7b146101c7578063414f5a0f1461020457806349ea4e641461022d57806367c8753b1461026a5761015a565b3661015a576000336040516020016100de9190611e70565b604051602081830303815290604052805190602001209050346005600083815260200190815260200160002060008282546101199190612283565b925050819055507f542bc46a4bcbeca72d54cd937a4d9a2de5ea98e96bc562429a07930274b451d73360405161014f9190611f33565b60405180910390a150005b600080fd5b34801561016b57600080fd5b5061018660048036038101906101819190611a2b565b610403565b005b34801561019457600080fd5b506101af60048036038101906101aa91906117da565b610652565b6040516101be93929190612035565b60405180910390f35b3480156101d357600080fd5b506101ee60048036038101906101e991906117b1565b61072e565b6040516101fb9190612137565b60405180910390f35b34801561021057600080fd5b5061022b600480360381019061022691906118c3565b610746565b005b34801561023957600080fd5b50610254600480360381019061024f9190611857565b610989565b6040516102619190611f92565b60405180910390f35b34801561027657600080fd5b50610291600480360381019061028c91906117da565b610b35565b60405161029e9190611fcf565b60405180910390f35b3480156102b357600080fd5b506102ce60048036038101906102c99190611816565b610b66565b005b3480156102dc57600080fd5b506102f760048036038101906102f29190611816565b610be5565b005b34801561030557600080fd5b50610320600480360381019061031b91906117b1565b610c70565b60405161032e929190611fea565b60405180910390f35b34801561034357600080fd5b5061035e600480360381019061035991906117b1565b610cb4565b60405161036b9190611f33565b60405180910390f35b34801561038057600080fd5b5061039b60048036038101906103969190611994565b610cf2565b005b3480156103a957600080fd5b506103c460048036038101906103bf9190611994565b610f29565b005b3480156103d257600080fd5b506103ed60048036038101906103e891906117b1565b61114f565b6040516103fa9190611fb4565b60405180910390f35b83600115156000808360405160200161041c9190611ea6565b60405160208183030381529060405280519060200120815260200190815260200160002060009054906101000a900460ff16151514610490576040517f08c379a0000000000000000000000000000000000000000000000000000000008152600401610487906120b3565b60405180910390fd5b8360011515600080836040516020016104a99190611ea6565b60405160208183030381529060405280519060200120815260200190815260200160002060009054906101000a900460ff1615151461051d576040517f08c379a0000000000000000000000000000000000000000000000000000000008152600401610514906120b3565b60405180910390fd5b600060405180606001604052808781526020018660ff1681526020018560405160200161054a9190611ea6565b604051602081830303815290604052805190602001208152509050600660008860405160200161057a9190611ea6565b60405160208183030381529060405280519060200120815260200190815260200160002081908060018154018082558091505060019003906000526020600020906003020160009091909190915060008201518160000190805190602001906105e492919061158d565b5060208201518160010160006101000a81548160ff021916908360ff1602179055506040820151816002015550507f52b7a5046109bc575df27b04dadaac96f00086418a53ae85d90679f2c275a28f8160405161064191906120f3565b60405180910390a150505050505050565b6006602052816000526040600020818154811061066e57600080fd5b90600052602060002090600302016000915091505080600001805461069290612420565b80601f01602080910402602001604051908101604052809291908181526020018280546106be90612420565b801561070b5780601f106106e05761010080835404028352916020019161070b565b820191906000526020600020905b8154815290600101906020018083116106ee57829003601f168201915b5050505050908060010160009054906101000a900460ff16908060020154905083565b60056020528060005260406000206000915090505481565b85600115156000808360405160200161075f9190611ea6565b60405160208183030381529060405280519060200120815260200190815260200160002060009054906101000a900460ff161515146107d3576040517f08c379a00000000000000000000000000000000000000000000000000000000081526004016107ca906120b3565b60405180910390fd5b600086866040516020016107e8929190611ebd565b6040516020818303038152906040528051906020012090508280156108135750610812818661116f565b5b1561097457866040516020016108299190611ea6565b604051602081830303815290604052805190602001206004600083815260200190815260200160002060000181905550856004600083815260200190815260200160002060010160006101000a81548173ffffffffffffffffffffffffffffffffffffffff021916908373ffffffffffffffffffffffffffffffffffffffff16021790555060005b85518160ff1610156109635760046000838152602001908152602001600020600201868260ff168151811061090f577f4e487b7100000000000000000000000000000000000000000000000000000000600052603260045260246000fd5b602002602001015190806001815401808255809150506001900390600052602060002001600090919091909150908051906020019061094f92919061158d565b50808061095b90612500565b9150506108b1565b5061096f8633866112c2565b61097f565b61097e86856113f7565b5b5050505050505050565b60608260011515600080836040516020016109a49190611ea6565b60405160208183030381529060405280519060200120815260200190815260200160002060009054906101000a900460ff16151514610a18576040517f08c379a0000000000000000000000000000000000000000000000000000000008152600401610a0f906120b3565b60405180910390fd5b60008333604051602001610a2d929190611ebd565b60405160208183030381529060405280519060200120905060046000828152602001908152602001600020600201805480602002602001604051908101604052809291908181526020016000905b82821015610b27578382906000526020600020018054610a9a90612420565b80601f0160208091040260200160405190810160405280929190818152602001828054610ac690612420565b8015610b135780601f10610ae857610100808354040283529160200191610b13565b820191906000526020600020905b815481529060010190602001808311610af657829003601f168201915b505050505081526020019060010190610a7b565b505050509250505092915050565b60026020528160005260406000208181548110610b5157600080fd5b90600052602060002001600091509150505481565b7f0f806f3a69aebe25b6129d19609333999fb4d2aed709217d19e0465d3bf3e72e60008083604051602001610b9b9190611ea6565b60405160208183030381529060405280519060200120815260200190815260200160002060009054906101000a900460ff16604051610bda9190611fb4565b60405180910390a150565b600160008083604051602001610bfb9190611ea6565b60405160208183030381529060405280519060200120815260200190815260200160002060006101000a81548160ff0219169083151502179055507f40b2d3af7e7a908ab771e3b293d2df299bb187d4ac2dcb3dbc2455fdcf5c15dd81604051610c659190612013565b60405180910390a150565b60046020528060005260406000206000915090508060000154908060010160009054906101000a900473ffffffffffffffffffffffffffffffffffffffff16905082565b60016020528060005260406000206000915090508060000160009054906101000a900473ffffffffffffffffffffffffffffffffffffffff16905081565b826001151560008083604051602001610d0b9190611ea6565b60405160208183030381529060405280519060200120815260200190815260200160002060009054906101000a900460ff16151514610d7f576040517f08c379a0000000000000000000000000000000000000000000000000000000008152600401610d76906120b3565b60405180910390fd5b60008333604051602001610d94929190611ebd565b6040516020818303038152906040528051906020012090506000600260008381526020019081526020016000208054905014610e05576040517f08c379a0000000000000000000000000000000000000000000000000000000008152600401610dfc906120d3565b60405180910390fd5b60005b83518160ff161015610eca5760026000838152602001908152602001600020848260ff1681518110610e63577f4e487b7100000000000000000000000000000000000000000000000000000000600052603260045260246000fd5b6020026020010151604051602001610e7b9190611ea6565b6040516020818303038152906040528051906020012090806001815401808255809150506001900390600052602060002001600090919091909150558080610ec290612500565b915050610e08565b507f089aa10c109296bf82ebc419d1f7adbe9f9d3c367c6f43ceffb6aa1fadc9187033610f0c600260008581526020019081526020016000208054905061152a565b604051610f1a929190611f69565b60405180910390a15050505050565b826001151560008083604051602001610f429190611ea6565b60405160208183030381529060405280519060200120815260200190815260200160002060009054906101000a900460ff16151514610fb6576040517f08c379a0000000000000000000000000000000000000000000000000000000008152600401610fad906120b3565b60405180910390fd5b600083604051602001610fc99190611ea6565b604051602081830303815290604052805190602001209050336001600083815260200190815260200160002060000160006101000a81548173ffffffffffffffffffffffffffffffffffffffff021916908373ffffffffffffffffffffffffffffffffffffffff16021790555060005b83518160ff1610156110fe5760016000838152602001908152602001600020600101848260ff1681518110611097577f4e487b7100000000000000000000000000000000000000000000000000000000600052603260045260246000fd5b60200260200101516040516020016110af9190611ea6565b60405160208183030381529060405280519060200120908060018154018082558091505060019003906000526020600020016000909190919091505580806110f690612500565b915050611039565b507fc59c4d1cd4ae4f11cae4ccbb4e183300a420933d7f279b19394c9005352c4f85600160008381526020019081526020016000206040516111409190612115565b60405180910390a15050505050565b60006020528060005260406000206000915054906101000a900460ff1681565b600080600260008581526020019081526020016000208054806020026020016040519081016040528092919081815260200182805480156111cf57602002820191906000526020600020905b8154815260200190600101908083116111bb575b5050505050905060006001905060005b82518160ff1610156112b657848160ff1681518110611227577f4e487b7100000000000000000000000000000000000000000000000000000000600052603260045260246000fd5b602002602001015160405160200161123f9190611ea6565b60405160208183030381529060405280519060200120838260ff1681518110611291577f4e487b7100000000000000000000000000000000000000000000000000000000600052603260045260246000fd5b6020026020010151146112a357600091505b80806112ae90612500565b9150506111df565b50809250505092915050565b6000836040516020016112d59190611e70565b6040516020818303038152906040528051906020012090506005600082815260200190815260200160002054821115611343576040517f08c379a000000000000000000000000000000000000000000000000000000000815260040161133a90612073565b60405180910390fd5b60008290508260056000848152602001908152602001600020600082825461136b91906122d9565b925050819055508373ffffffffffffffffffffffffffffffffffffffff166108fc829081150290604051600060405180830381858888f193505050501580156113b8573d6000803e3d6000fd5b507ff78d9b9160162a84408a458af99dc12d3125949b20e55ea678f03d3b39514d1e846040516113e89190611f4e565b60405180910390a15050505050565b60008260405160200161140a9190611e8b565b6040516020818303038152906040528051906020012090506005600082815260200190815260200160002054821115611478576040517f08c379a000000000000000000000000000000000000000000000000000000000815260040161146f90612093565b60405180910390fd5b6000829050826005600084815260200190815260200160002060008282546114a091906122d9565b925050819055508373ffffffffffffffffffffffffffffffffffffffff166108fc829081150290604051600060405180830381858888f193505050501580156114ed573d6000803e3d6000fd5b507e111e66581bd1e7becef013b6063b87c8c911c45d23207796d07e4903ae07428460405161151c9190611f4e565b60405180910390a150505050565b600080826003544244336040516020016115479493929190611ee5565b6040516020818303038152906040528051906020012060001c61156a919061256a565b90506003600081548092919061157f906124b7565b919050555080915050919050565b82805461159990612420565b90600052602060002090601f0160209004810192826115bb5760008555611602565b82601f106115d457805160ff1916838001178555611602565b82800160010185558215611602579182015b828111156116015782518255916020019190600101906115e6565b5b50905061160f9190611613565b5090565b5b8082111561162c576000816000905550600101611614565b5090565b600061164361163e84612177565b612152565b9050808382526020820190508285602086028201111561166257600080fd5b60005b858110156116ac57813567ffffffffffffffff81111561168457600080fd5b808601611691898261175d565b85526020850194506020840193505050600181019050611665565b5050509392505050565b60006116c96116c4846121a3565b612152565b9050828152602081018484840111156116e157600080fd5b6116ec8482856123de565b509392505050565b6000813590506117038161275f565b92915050565b600082601f83011261171a57600080fd5b813561172a848260208601611630565b91505092915050565b60008135905061174281612776565b92915050565b6000813590506117578161278d565b92915050565b600082601f83011261176e57600080fd5b813561177e8482602086016116b6565b91505092915050565b600081359050611796816127a4565b92915050565b6000813590506117ab816127bb565b92915050565b6000602082840312156117c357600080fd5b60006117d184828501611748565b91505092915050565b600080604083850312156117ed57600080fd5b60006117fb85828601611748565b925050602061180c85828601611787565b9150509250929050565b60006020828403121561182857600080fd5b600082013567ffffffffffffffff81111561184257600080fd5b61184e8482850161175d565b91505092915050565b6000806040838503121561186a57600080fd5b600083013567ffffffffffffffff81111561188457600080fd5b6118908582860161175d565b925050602083013567ffffffffffffffff8111156118ad57600080fd5b6118b98582860161175d565b9150509250929050565b60008060008060008060c087890312156118dc57600080fd5b600087013567ffffffffffffffff8111156118f657600080fd5b61190289828a0161175d565b965050602087013567ffffffffffffffff81111561191f57600080fd5b61192b89828a0161175d565b955050604061193c89828a016116f4565b945050606087013567ffffffffffffffff81111561195957600080fd5b61196589828a01611709565b935050608061197689828a01611787565b92505060a061198789828a01611733565b9150509295509295509295565b6000806000606084860312156119a957600080fd5b600084013567ffffffffffffffff8111156119c357600080fd5b6119cf8682870161175d565b935050602084013567ffffffffffffffff8111156119ec57600080fd5b6119f88682870161175d565b925050604084013567ffffffffffffffff811115611a1557600080fd5b611a2186828701611709565b9150509250925092565b60008060008060808587031215611a4157600080fd5b600085013567ffffffffffffffff811115611a5b57600080fd5b611a678782880161175d565b945050602085013567ffffffffffffffff811115611a8457600080fd5b611a908782880161175d565b9350506040611aa18782880161179c565b925050606085013567ffffffffffffffff811115611abe57600080fd5b611aca8782880161175d565b91505092959194509250565b6000611ae28383611c46565b60208301905092915050565b6000611afa8383611c64565b905092915050565b611b0b816123a8565b82525050565b611b22611b1d82612349565b61253c565b82525050565b611b3181612337565b82525050565b611b4081612337565b82525050565b611b57611b5282612337565b61252a565b82525050565b6000611b68826121f9565b611b728185612234565b9350611b7d836121d4565b8060005b83811015611bb557611b9282612657565b611b9c8882611ad6565b9750611ba78361221a565b925050600181019050611b81565b5085935050505092915050565b6000611bcd82612204565b611bd78185612245565b935083602082028501611be9856121e9565b8060005b85811015611c255784840389528151611c068582611aee565b9450611c1183612227565b925060208a01995050600181019050611bed565b50829750879550505050505092915050565b611c408161235b565b82525050565b611c4f81612367565b82525050565b611c5e81612367565b82525050565b6000611c6f8261220f565b611c798185612256565b9350611c898185602086016123ed565b611c928161266a565b840191505092915050565b6000611ca88261220f565b611cb28185612267565b9350611cc28185602086016123ed565b611ccb8161266a565b840191505092915050565b6000611ce18261220f565b611ceb8185612278565b9350611cfb8185602086016123ed565b80840191505092915050565b6000611d14601583612267565b9150611d1f82612695565b602082019050919050565b6000611d37601b83612267565b9150611d42826126be565b602082019050919050565b6000611d5a601683612267565b9150611d65826126e7565b602082019050919050565b6000611d7d602583612267565b9150611d8882612710565b604082019050919050565b60006060830160008301518482036000860152611db08282611c64565b9150506020830151611dc56020860182611e52565b506040830151611dd86040860182611c46565b508091505092915050565b6000604083016000808401549050611dfa81612452565b611e076000870182611b28565b50600184018583036020870152611e1e8382611b5d565b925050819250505092915050565b611e3581612391565b82525050565b611e4c611e4782612391565b612560565b82525050565b611e5b8161239b565b82525050565b611e6a8161239b565b82525050565b6000611e7c8284611b46565b60148201915081905092915050565b6000611e978284611b11565b60148201915081905092915050565b6000611eb28284611cd6565b915081905092915050565b6000611ec98285611cd6565b9150611ed58284611b46565b6014820191508190509392505050565b6000611ef18287611e3b565b602082019150611f018286611e3b565b602082019150611f118285611e3b565b602082019150611f218284611b46565b60148201915081905095945050505050565b6000602082019050611f486000830184611b37565b92915050565b6000602082019050611f636000830184611b02565b92915050565b6000604082019050611f7e6000830185611b37565b611f8b6020830184611e2c565b9392505050565b60006020820190508181036000830152611fac8184611bc2565b905092915050565b6000602082019050611fc96000830184611c37565b92915050565b6000602082019050611fe46000830184611c55565b92915050565b6000604082019050611fff6000830185611c55565b61200c6020830184611b37565b9392505050565b6000602082019050818103600083015261202d8184611c9d565b905092915050565b6000606082019050818103600083015261204f8186611c9d565b905061205e6020830185611e61565b61206b6040830184611c55565b949350505050565b6000602082019050818103600083015261208c81611d07565b9050919050565b600060208201905081810360008301526120ac81611d2a565b9050919050565b600060208201905081810360008301526120cc81611d4d565b9050919050565b600060208201905081810360008301526120ec81611d70565b9050919050565b6000602082019050818103600083015261210d8184611d93565b905092915050565b6000602082019050818103600083015261212f8184611de3565b905092915050565b600060208201905061214c6000830184611e2c565b92915050565b600061215c61216d565b90506121688282612486565b919050565b6000604051905090565b600067ffffffffffffffff82111561219257612191612628565b5b602082029050602081019050919050565b600067ffffffffffffffff8211156121be576121bd612628565b5b6121c78261266a565b9050602081019050919050565b60008190508160005260206000209050919050565b6000819050602082019050919050565b600081549050919050565b600081519050919050565b600081519050919050565b6000600182019050919050565b6000602082019050919050565b600082825260208201905092915050565b600082825260208201905092915050565b600082825260208201905092915050565b600082825260208201905092915050565b600081905092915050565b600061228e82612391565b915061229983612391565b9250827fffffffffffffffffffffffffffffffffffffffffffffffffffffffffffffffff038211156122ce576122cd61259b565b5b828201905092915050565b60006122e482612391565b91506122ef83612391565b9250828210156123025761230161259b565b5b828203905092915050565b600073ffffffffffffffffffffffffffffffffffffffff82169050919050565b6000819050919050565b600061234282612371565b9050919050565b600061235482612371565b9050919050565b60008115159050919050565b6000819050919050565b600073ffffffffffffffffffffffffffffffffffffffff82169050919050565b6000819050919050565b600060ff82169050919050565b60006123b3826123ba565b9050919050565b60006123c5826123cc565b9050919050565b60006123d782612371565b9050919050565b82818337600083830152505050565b60005b8381101561240b5780820151818401526020810190506123f0565b8381111561241a576000848401525b50505050565b6000600282049050600182168061243857607f821691505b6020821081141561244c5761244b6125f9565b5b50919050565b600061246561246083612688565b61230d565b9050919050565b600061247f61247a83612688565b61232d565b9050919050565b61248f8261266a565b810181811067ffffffffffffffff821117156124ae576124ad612628565b5b80604052505050565b60006124c282612391565b91507fffffffffffffffffffffffffffffffffffffffffffffffffffffffffffffffff8214156124f5576124f461259b565b5b600182019050919050565b600061250b8261239b565b915060ff82141561251f5761251e61259b565b5b600182019050919050565b60006125358261254e565b9050919050565b60006125478261254e565b9050919050565b60006125598261267b565b9050919050565b6000819050919050565b600061257582612391565b915061258083612391565b9250826125905761258f6125ca565b5b828206905092915050565b7f4e487b7100000000000000000000000000000000000000000000000000000000600052601160045260246000fd5b7f4e487b7100000000000000000000000000000000000000000000000000000000600052601260045260246000fd5b7f4e487b7100000000000000000000000000000000000000000000000000000000600052602260045260246000fd5b7f4e487b7100000000000000000000000000000000000000000000000000000000600052604160045260246000fd5b6000612663825461246c565b9050919050565b6000601f19601f8301169050919050565b60008160601b9050919050565b60008160001c9050919050565b7f4e6f7420656e6f756768206d6f6e65792073656e740000000000000000000000600082015250565b7f4e6f7420656e6f756768206d6f6e657920696e206465706f7369740000000000600082015250565b7f55736572206973206e6f74207265676973746572656400000000000000000000600082015250565b7f416c7265616479207265717565737465642073616d706c65206f66207468697360008201527f206974656d000000000000000000000000000000000000000000000000000000602082015250565b61276881612337565b811461277357600080fd5b50565b61277f8161235b565b811461278a57600080fd5b50565b61279681612367565b81146127a157600080fd5b50565b6127ad81612391565b81146127b857600080fd5b50565b6127c48161239b565b81146127cf57600080fd5b5056fea264697066735822122085872b7efc76449646bb2228438f47fbaf08b6f81509efb10d8c4bda4462c54764736f6c63430008040033",
  "immutableReferences": {},
  "source": "//\"SPDX-License-Identifier: UNLICENSED\"\r\npragma solidity 0.8.4;\r\n\r\nimport \"./Registry.sol\";\r\n\r\ncontract DataDappContract is Registry {\r\n    //***********************************Structs********************************//\r\n    struct UploadPacket {\r\n        address ownerAddress;\r\n        bytes32[] ipfsHashes;\r\n    }\r\n\r\n    struct Purchase {\r\n        bytes32 packetId;\r\n        address requesterAddress;\r\n        string[] keys;\r\n    }\r\n\r\n    struct Review {\r\n        string reviewer;\r\n        uint8 rating;\r\n        bytes32 comments;\r\n    }\r\n\r\n    //**********************************Mappings*******************************//\r\n    mapping(bytes32 => UploadPacket) public uploads;\r\n    mapping(bytes32 => bytes32[]) public sampleRequests;\r\n    uint256 nonce;\r\n    mapping(bytes32 => Purchase) public purchases;\r\n    mapping(bytes32 => uint256) public deposits;\r\n    mapping(bytes32 => Review[]) public reviews;\r\n\r\n    //***********************************Events********************************//\r\n    event UploadResult(UploadPacket upload);\r\n    event SampleRequestResult(address requester, uint256 index);\r\n    event DepositEvent(address requester);\r\n    event SendMoneyEvent(address requester);\r\n    event ReturnMoneyEvent(address requester);\r\n    event ReviewResult(Review review);\r\n\r\n    //*********************************Functions*******************************//\r\n    receive() external payable {\r\n        bytes32 index = keccak256(abi.encodePacked(msg.sender));\r\n        deposits[index] += msg.value;\r\n        emit DepositEvent(msg.sender);\r\n    }\r\n\r\n    //***********************************Upload********************************//\r\n    function addUpload(\r\n        string memory _userId,\r\n        string memory _packetId,\r\n        string[] memory _ipfsHashes\r\n    ) public registered(_userId) {\r\n        bytes32 index = keccak256(abi.encodePacked(_packetId));\r\n        uploads[index].ownerAddress = msg.sender;\r\n\r\n        for (uint8 i = 0; i < _ipfsHashes.length; i++) {\r\n            uploads[index].ipfsHashes.push(\r\n                keccak256(abi.encodePacked(_ipfsHashes[i]))\r\n            );\r\n        }\r\n\r\n        emit UploadResult(uploads[index]);\r\n    }\r\n\r\n    //***********************************Sample********************************//\r\n    function addSampleRequest(\r\n        string memory _requesterId,\r\n        string memory _packetId,\r\n        string[] memory _keys\r\n    ) public registered(_requesterId) {\r\n        bytes32 index = keccak256(abi.encodePacked(_packetId, msg.sender));\r\n        require(\r\n            sampleRequests[index].length == 0,\r\n            \"Already requested sample of this item\"\r\n        );\r\n        for (uint8 i = 0; i < _keys.length; i++) {\r\n            sampleRequests[index].push(keccak256(abi.encodePacked(_keys[i])));\r\n        }\r\n        emit SampleRequestResult(\r\n            msg.sender,\r\n            getRandomKeyIndex(sampleRequests[index].length)\r\n        );\r\n    }\r\n\r\n    function getRandomKeyIndex(uint256 mod) internal returns (uint256) {\r\n        uint256 rand =\r\n            uint256(\r\n                keccak256(\r\n                    abi.encodePacked(\r\n                        nonce,\r\n                        block.timestamp,\r\n                        block.difficulty,\r\n                        msg.sender\r\n                    )\r\n                )\r\n            ) % mod;\r\n        nonce++;\r\n        return rand;\r\n    }\r\n\r\n    //**********************************Purchase*******************************//\r\n    function addPurchase(\r\n        string memory _ownerId,\r\n        string memory _packetId,\r\n        address _requesterAddress,\r\n        string[] memory _keys,\r\n        uint256 price,\r\n        bool _approve\r\n    ) public registered(_ownerId) {\r\n        bytes32 index =\r\n            keccak256(abi.encodePacked(_packetId, _requesterAddress));\r\n\r\n        if (_approve && hashKeysAndCompare(index, _keys)) {\r\n            purchases[index].packetId = keccak256(abi.encodePacked(_packetId));\r\n            purchases[index].requesterAddress = _requesterAddress;\r\n\r\n            for (uint8 i = 0; i < _keys.length; i++) {\r\n                purchases[index].keys.push(_keys[i]);\r\n            }\r\n            sendMoney(_requesterAddress, payable(msg.sender), price);\r\n        } else {\r\n            returnMoney(payable(_requesterAddress), price);\r\n        }\r\n    }\r\n\r\n    function hashKeysAndCompare(bytes32 _index, string[] memory _keysFromSeller)\r\n        internal\r\n        view\r\n        returns (bool)\r\n    {\r\n        bytes32[] memory keysFromSample = sampleRequests[_index];\r\n        bool confirm = true;\r\n\r\n        for (uint8 i = 0; i < keysFromSample.length; i++) {\r\n            if (\r\n                keysFromSample[i] !=\r\n                keccak256(abi.encodePacked(_keysFromSeller[i]))\r\n            ) {\r\n                confirm = false;\r\n            }\r\n        }\r\n        return confirm;\r\n    }\r\n\r\n    function sendMoney(\r\n        address from,\r\n        address payable _to,\r\n        uint256 price\r\n    ) internal {\r\n        bytes32 index = keccak256(abi.encodePacked(from));\r\n        require(price <= deposits[index], \"Not enough money sent\");\r\n        uint256 moneyToSent = price;\r\n        deposits[index] -= price;\r\n        _to.transfer(moneyToSent);\r\n\r\n        emit SendMoneyEvent(_to);\r\n    }\r\n\r\n    function returnMoney(address payable _to, uint256 price) internal {\r\n        bytes32 index = keccak256(abi.encodePacked(_to));\r\n        require(price <= deposits[index], \"Not enough money in deposit\");\r\n        uint256 moneyToSent = price;\r\n        deposits[index] -= price;\r\n        _to.transfer(moneyToSent);\r\n\r\n        emit ReturnMoneyEvent(_to);\r\n    }\r\n\r\n    function getPurchaseKeys(\r\n        string memory _requesterId,\r\n        string memory _packetId\r\n    ) public view registered(_requesterId) returns (string[] memory) {\r\n        bytes32 index = keccak256(abi.encodePacked(_packetId, msg.sender));\r\n        return purchases[index].keys;\r\n    }\r\n\r\n    //***********************************Review*********************************//\r\n    function addReview(\r\n        string memory _rated,\r\n        string memory _reviewer,\r\n        uint8 _rating,\r\n        string memory _comments\r\n    ) public registered(_rated) registered(_reviewer) {\r\n        Review memory review =\r\n            Review(_reviewer, _rating, keccak256(abi.encodePacked(_comments)));\r\n        reviews[keccak256(abi.encodePacked(_rated))].push(review);\r\n\r\n        emit ReviewResult(review);\r\n    }\r\n\r\n    //***********************************Testing*********************************//\r\n    event Check(bool _isRegistered);\r\n\r\n    function getRegisterUsers(string memory _id) public {\r\n        emit Check(registeredUsers[keccak256(abi.encodePacked(_id))]);\r\n    }\r\n}\r\n",
  "sourcePath": "C:/Users/vaspa/Desktop/Files/dis-project/contracts/DataDappContract.sol",
  "compiler": {
    "name": "solc",
    "version": "0.8.4+commit.c7e474f2.Emscripten.clang"
  },
  "schemaVersion": "3.4.0",
  "updatedAt": "2021-05-10T06:23:16.626Z",
  "networkType": "ethereum",
  "devdoc": {
    "kind": "dev",
    "methods": {},
    "version": 1
  },
  "userdoc": {
    "kind": "user",
    "methods": {},
    "version": 1
  }
}