{
  "contractName": "DataDappContract",
  "abi": [
    {
      "anonymous": false,
      "inputs": [
        {
          "indexed": false,
          "internalType": "address",
          "name": "requester",
          "type": "address"
        },
        {
          "indexed": false,
          "internalType": "uint256",
          "name": "deposit",
          "type": "uint256"
        }
      ],
      "name": "DepositEvent",
      "type": "event"
    },
    {
      "anonymous": false,
      "inputs": [
        {
          "indexed": false,
          "internalType": "string",
          "name": "_id",
          "type": "string"
        }
      ],
      "name": "Register",
      "type": "event"
    },
    {
      "anonymous": false,
      "inputs": [
        {
          "indexed": false,
          "internalType": "uint256",
          "name": "depositRequester",
          "type": "uint256"
        }
      ],
      "name": "ReturnMoneyEvent",
      "type": "event"
    },
    {
      "anonymous": false,
      "inputs": [
        {
          "components": [
            {
              "internalType": "string",
              "name": "reviewer",
              "type": "string"
            },
            {
              "internalType": "uint8",
              "name": "rating",
              "type": "uint8"
            },
            {
              "internalType": "bytes32",
              "name": "comments",
              "type": "bytes32"
            }
          ],
          "indexed": false,
          "internalType": "struct DataDappContract.Review",
          "name": "review",
          "type": "tuple"
        }
      ],
      "name": "ReviewResult",
      "type": "event"
    },
    {
      "anonymous": false,
      "inputs": [
        {
          "indexed": false,
          "internalType": "address",
          "name": "requester",
          "type": "address"
        },
        {
          "indexed": false,
          "internalType": "uint256",
          "name": "index",
          "type": "uint256"
        }
      ],
      "name": "SampleRequestResult",
      "type": "event"
    },
    {
      "anonymous": false,
      "inputs": [
        {
          "indexed": false,
          "internalType": "uint256",
          "name": "depositRequester",
          "type": "uint256"
        }
      ],
      "name": "SendMoneyEvent",
      "type": "event"
    },
    {
      "anonymous": false,
      "inputs": [
        {
          "components": [
            {
              "internalType": "address",
              "name": "ownerAddress",
              "type": "address"
            },
            {
              "internalType": "bytes32[]",
              "name": "ipfsHashes",
              "type": "bytes32[]"
            },
            {
              "internalType": "bool",
              "name": "sold",
              "type": "bool"
            }
          ],
          "indexed": false,
          "internalType": "struct DataDappContract.UploadPacket",
          "name": "upload",
          "type": "tuple"
        }
      ],
      "name": "UploadResult",
      "type": "event"
    },
    {
      "inputs": [
        {
          "internalType": "bytes32",
          "name": "",
          "type": "bytes32"
        }
      ],
      "name": "deposits",
      "outputs": [
        {
          "internalType": "uint256",
          "name": "",
          "type": "uint256"
        }
      ],
      "stateMutability": "view",
      "type": "function",
      "constant": true
    },
    {
      "inputs": [
        {
          "internalType": "bytes32",
          "name": "",
          "type": "bytes32"
        }
      ],
      "name": "purchases",
      "outputs": [
        {
          "internalType": "bytes32",
          "name": "packetId",
          "type": "bytes32"
        },
        {
          "internalType": "address",
          "name": "requesterAddress",
          "type": "address"
        }
      ],
      "stateMutability": "view",
      "type": "function",
      "constant": true
    },
    {
      "inputs": [
        {
          "internalType": "string",
          "name": "_id",
          "type": "string"
        }
      ],
      "name": "registerUser",
      "outputs": [],
      "stateMutability": "nonpayable",
      "type": "function"
    },
    {
      "inputs": [
        {
          "internalType": "bytes32",
          "name": "",
          "type": "bytes32"
        }
      ],
      "name": "registeredUsers",
      "outputs": [
        {
          "internalType": "bool",
          "name": "",
          "type": "bool"
        }
      ],
      "stateMutability": "view",
      "type": "function",
      "constant": true
    },
    {
      "inputs": [
        {
          "internalType": "bytes32",
          "name": "",
          "type": "bytes32"
        },
        {
          "internalType": "uint256",
          "name": "",
          "type": "uint256"
        }
      ],
      "name": "reviews",
      "outputs": [
        {
          "internalType": "string",
          "name": "reviewer",
          "type": "string"
        },
        {
          "internalType": "uint8",
          "name": "rating",
          "type": "uint8"
        },
        {
          "internalType": "bytes32",
          "name": "comments",
          "type": "bytes32"
        }
      ],
      "stateMutability": "view",
      "type": "function",
      "constant": true
    },
    {
      "inputs": [
        {
          "internalType": "bytes32",
          "name": "",
          "type": "bytes32"
        },
        {
          "internalType": "uint256",
          "name": "",
          "type": "uint256"
        }
      ],
      "name": "sampleRequests",
      "outputs": [
        {
          "internalType": "bytes32",
          "name": "",
          "type": "bytes32"
        }
      ],
      "stateMutability": "view",
      "type": "function",
      "constant": true
    },
    {
      "inputs": [
        {
          "internalType": "bytes32",
          "name": "",
          "type": "bytes32"
        }
      ],
      "name": "uploads",
      "outputs": [
        {
          "internalType": "address",
          "name": "ownerAddress",
          "type": "address"
        },
        {
          "internalType": "bool",
          "name": "sold",
          "type": "bool"
        }
      ],
      "stateMutability": "view",
      "type": "function",
      "constant": true
    },
    {
      "stateMutability": "payable",
      "type": "receive",
      "payable": true
    },
    {
      "inputs": [
        {
          "internalType": "string",
          "name": "_userId",
          "type": "string"
        },
        {
          "internalType": "string",
          "name": "_packetId",
          "type": "string"
        },
        {
          "internalType": "string[]",
          "name": "_ipfsHashes",
          "type": "string[]"
        }
      ],
      "name": "addUpload",
      "outputs": [],
      "stateMutability": "nonpayable",
      "type": "function"
    },
    {
      "inputs": [
        {
          "internalType": "string",
          "name": "_requesterId",
          "type": "string"
        },
        {
          "internalType": "string",
          "name": "_packetId",
          "type": "string"
        },
        {
          "internalType": "bytes32[]",
          "name": "_keys",
          "type": "bytes32[]"
        }
      ],
      "name": "addSampleRequest",
      "outputs": [],
      "stateMutability": "nonpayable",
      "type": "function"
    },
    {
      "inputs": [
        {
          "internalType": "string",
          "name": "_ownerId",
          "type": "string"
        },
        {
          "internalType": "string",
          "name": "_packetId",
          "type": "string"
        },
        {
          "internalType": "address",
          "name": "_requesterAddress",
          "type": "address"
        },
        {
          "internalType": "string[]",
          "name": "_keys",
          "type": "string[]"
        },
        {
          "internalType": "uint256",
          "name": "price",
          "type": "uint256"
        },
        {
          "internalType": "bool",
          "name": "_approve",
          "type": "bool"
        }
      ],
      "name": "addPurchase",
      "outputs": [],
      "stateMutability": "nonpayable",
      "type": "function"
    },
    {
      "inputs": [
        {
          "internalType": "string",
          "name": "_rated",
          "type": "string"
        },
        {
          "internalType": "string",
          "name": "_reviewer",
          "type": "string"
        },
        {
          "internalType": "uint8",
          "name": "_rating",
          "type": "uint8"
        },
        {
          "internalType": "string",
          "name": "_comments",
          "type": "string"
        }
      ],
      "name": "addReview",
      "outputs": [],
      "stateMutability": "nonpayable",
      "type": "function"
    }
  ],
  "bytecode": "0x608060405234801561001057600080fd5b506126ff806100206000396000f3fe6080604052600436106100a05760003560e01c8063704f1b9411610064578063704f1b94146102595780637ab8dbe91461028257806396929d5f146102c057806397b130bf146102e9578063c0302cdd14610327578063d68557ae1461035057610149565b80631e5d30761461014e578063366c6ea4146101775780633d4dff7b146101b6578063414f5a0f146101f357806367c8753b1461021c57610149565b36610149576000336040516020016100b89190611d69565b604051602081830303815290604052805190602001209050346004600083815260200190815260200160002060008282546100f39190612160565b925050819055507f2d8a08b6430a894aea608bcaa6013d5d3e263bc49110605e4d4ba76930ae5c2933600460008481526020019081526020016000205460405161013e929190611e55565b60405180910390a150005b600080fd5b34801561015a57600080fd5b506101756004803603810190610170919061196c565b61038d565b005b34801561018357600080fd5b5061019e600480360381019061019991906116f0565b6105dc565b6040516101ad93929190611eff565b60405180910390f35b3480156101c257600080fd5b506101dd60048036038101906101d891906116c7565b6106b8565b6040516101ea9190612021565b60405180910390f35b3480156101ff57600080fd5b5061021a6004803603810190610215919061176d565b6106d0565b005b34801561022857600080fd5b50610243600480360381019061023e91906116f0565b6109fa565b6040516102509190611e99565b60405180910390f35b34801561026557600080fd5b50610280600480360381019061027b919061172c565b610a2b565b005b34801561028e57600080fd5b506102a960048036038101906102a491906116c7565b610ab6565b6040516102b7929190611eb4565b60405180910390f35b3480156102cc57600080fd5b506102e760048036038101906102e2919061183e565b610afa565b005b3480156102f557600080fd5b50610310600480360381019061030b91906116c7565b610d0b565b60405161031e929190611e2c565b60405180910390f35b34801561033357600080fd5b5061034e600480360381019061034991906118d5565b610d5c565b005b34801561035c57600080fd5b50610377600480360381019061037291906116c7565b610f82565b6040516103849190611e7e565b60405180910390f35b8360011515600080836040516020016103a69190611d9f565b60405160208183030381529060405280519060200120815260200190815260200160002060009054906101000a900460ff1615151461041a576040517f08c379a000000000000000000000000000000000000000000000000000000000815260040161041190611f7d565b60405180910390fd5b8360011515600080836040516020016104339190611d9f565b60405160208183030381529060405280519060200120815260200190815260200160002060009054906101000a900460ff161515146104a7576040517f08c379a000000000000000000000000000000000000000000000000000000000815260040161049e90611f7d565b60405180910390fd5b600060405180606001604052808781526020018660ff168152602001856040516020016104d49190611d9f565b60405160208183030381529060405280519060200120815250905060056000886040516020016105049190611d9f565b604051602081830303815290604052805190602001208152602001908152602001600020819080600181540180825580915050600190039060005260206000209060030201600090919091909150600082015181600001908051906020019061056e92919061140d565b5060208201518160010160006101000a81548160ff021916908360ff1602179055506040820151816002015550507f52b7a5046109bc575df27b04dadaac96f00086418a53ae85d90679f2c275a28f816040516105cb9190611fdd565b60405180910390a150505050505050565b600560205281600052604060002081815481106105f857600080fd5b90600052602060002090600302016000915091505080600001805461061c906122d4565b80601f0160208091040260200160405190810160405280929190818152602001828054610648906122d4565b80156106955780601f1061066a57610100808354040283529160200191610695565b820191906000526020600020905b81548152906001019060200180831161067857829003601f168201915b5050505050908060010160009054906101000a900460ff16908060020154905083565b60046020528060005260406000206000915090505481565b8560011515600080836040516020016106e99190611d9f565b60405160208183030381529060405280519060200120815260200190815260200160002060009054906101000a900460ff1615151461075d576040517f08c379a000000000000000000000000000000000000000000000000000000000815260040161075490611f7d565b60405180910390fd5b856001151560016000836040516020016107779190611d9f565b60405160208183030381529060405280519060200120815260200190815260200160002060020160009054906101000a900460ff16151514156107ef576040517f08c379a00000000000000000000000000000000000000000000000000000000081526004016107e690611f9d565b60405180910390fd5b60008787604051602001610804929190611db6565b60405160208183030381529060405280519060200120905083801561082f575061082e8187610fa2565b5b156109e457876040516020016108459190611d9f565b604051602081830303815290604052805190602001206003600083815260200190815260200160002060000181905550866003600083815260200190815260200160002060010160006101000a81548173ffffffffffffffffffffffffffffffffffffffff021916908373ffffffffffffffffffffffffffffffffffffffff16021790555060005b86518160ff16101561097f5760036000838152602001908152602001600020600201878260ff168151811061092b577f4e487b7100000000000000000000000000000000000000000000000000000000600052603260045260246000fd5b602002602001015190806001815401808255809150506001900390600052602060002001600090919091909150908051906020019061096b92919061140d565b508080610977906123ce565b9150506108cd565b5060018060008a6040516020016109969190611d9f565b60405160208183030381529060405280519060200120815260200190815260200160002060020160006101000a81548160ff0219169083151502179055506109df8733876110f5565b6109ef565b6109ee878661123d565b5b505050505050505050565b60026020528160005260406000208181548110610a1657600080fd5b90600052602060002001600091509150505481565b600160008083604051602001610a419190611d9f565b60405160208183030381529060405280519060200120815260200190815260200160002060006101000a81548160ff0219169083151502179055507f40b2d3af7e7a908ab771e3b293d2df299bb187d4ac2dcb3dbc2455fdcf5c15dd81604051610aab9190611edd565b60405180910390a150565b60036020528060005260406000206000915090508060000154908060010160009054906101000a900473ffffffffffffffffffffffffffffffffffffffff16905082565b826001151560008083604051602001610b139190611d9f565b60405160208183030381529060405280519060200120815260200190815260200160002060009054906101000a900460ff16151514610b87576040517f08c379a0000000000000000000000000000000000000000000000000000000008152600401610b7e90611f7d565b60405180910390fd5b60008333604051602001610b9c929190611db6565b6040516020818303038152906040528051906020012090506000600260008381526020019081526020016000208054905014610c0d576040517f08c379a0000000000000000000000000000000000000000000000000000000008152600401610c0490611fbd565b60405180910390fd5b60005b83518160ff161015610cac5760026000838152602001908152602001600020848260ff1681518110610c6b577f4e487b7100000000000000000000000000000000000000000000000000000000600052603260045260246000fd5b602002602001015190806001815401808255809150506001900390600052602060002001600090919091909150558080610ca4906123ce565b915050610c10565b507f089aa10c109296bf82ebc419d1f7adbe9f9d3c367c6f43ceffb6aa1fadc9187033610cee60026000858152602001908152602001600020805490506113aa565b604051610cfc929190611e55565b60405180910390a15050505050565b60016020528060005260406000206000915090508060000160009054906101000a900473ffffffffffffffffffffffffffffffffffffffff16908060020160009054906101000a900460ff16905082565b826001151560008083604051602001610d759190611d9f565b60405160208183030381529060405280519060200120815260200190815260200160002060009054906101000a900460ff16151514610de9576040517f08c379a0000000000000000000000000000000000000000000000000000000008152600401610de090611f7d565b60405180910390fd5b600083604051602001610dfc9190611d9f565b604051602081830303815290604052805190602001209050336001600083815260200190815260200160002060000160006101000a81548173ffffffffffffffffffffffffffffffffffffffff021916908373ffffffffffffffffffffffffffffffffffffffff16021790555060005b83518160ff161015610f315760016000838152602001908152602001600020600101848260ff1681518110610eca577f4e487b7100000000000000000000000000000000000000000000000000000000600052603260045260246000fd5b6020026020010151604051602001610ee29190611d9f565b6040516020818303038152906040528051906020012090806001815401808255809150506001900390600052602060002001600090919091909150558080610f29906123ce565b915050610e6c565b507f0c6fa9feb9d1a77b6b20251fdcd90466509bf7b9c9f650d70394aa888545ab8060016000838152602001908152602001600020604051610f739190611fff565b60405180910390a15050505050565b60006020528060005260406000206000915054906101000a900460ff1681565b6000806002600085815260200190815260200160002080548060200260200160405190810160405280929190818152602001828054801561100257602002820191906000526020600020905b815481526020019060010190808311610fee575b5050505050905060006001905060005b82518160ff1610156110e957848160ff168151811061105a577f4e487b7100000000000000000000000000000000000000000000000000000000600052603260045260246000fd5b60200260200101516040516020016110729190611edd565b60405160208183030381529060405280519060200120838260ff16815181106110c4577f4e487b7100000000000000000000000000000000000000000000000000000000600052603260045260246000fd5b6020026020010151146110d657600091505b80806110e1906123ce565b915050611012565b50809250505092915050565b6000836040516020016111089190611d69565b6040516020818303038152906040528051906020012090506004600082815260200190815260200160002054821115611176576040517f08c379a000000000000000000000000000000000000000000000000000000000815260040161116d90611f3d565b60405180910390fd5b60008290508260046000848152602001908152602001600020600082825461119e91906121b6565b925050819055508373ffffffffffffffffffffffffffffffffffffffff166108fc829081150290604051600060405180830381858888f193505050501580156111eb573d6000803e3d6000fd5b507f374d982865917bf9690a43d9d87551a5bf10ca92a619f240ae5932cb7bfe218e600460008481526020019081526020016000205460405161122e9190612021565b60405180910390a15050505050565b6000826040516020016112509190611d84565b60405160208183030381529060405280519060200120905060046000828152602001908152602001600020548211156112be576040517f08c379a00000000000000000000000000000000000000000000000000000000081526004016112b590611f5d565b60405180910390fd5b6000829050826004600084815260200190815260200160002060008282546112e691906121b6565b925050819055508373ffffffffffffffffffffffffffffffffffffffff166108fc829081150290604051600060405180830381858888f19350505050158015611333573d6000803e3d6000fd5b507ff86aa5be0c5cbcf478870e7cf4f0b987112da5139066ef8dae48602b79d0b34d600460008660405160200161136a9190611d84565b6040516020818303038152906040528051906020012081526020019081526020016000205460405161139c9190612021565b60405180910390a150505050565b600080826006544244336040516020016113c79493929190611dde565b6040516020818303038152906040528051906020012060001c6113ea9190612438565b9050600660008154809291906113ff90612385565b919050555080915050919050565b828054611419906122d4565b90600052602060002090601f01602090048101928261143b5760008555611482565b82601f1061145457805160ff1916838001178555611482565b82800160010185558215611482579182015b82811115611481578251825591602001919060010190611466565b5b50905061148f9190611493565b5090565b5b808211156114ac576000816000905550600101611494565b5090565b60006114c36114be84612061565b61203c565b905080838252602082019050828560208602820111156114e257600080fd5b60005b8581101561151257816114f8888261165e565b8452602084019350602083019250506001810190506114e5565b5050509392505050565b600061152f61152a8461208d565b61203c565b9050808382526020820190508285602086028201111561154e57600080fd5b60005b8581101561159857813567ffffffffffffffff81111561157057600080fd5b80860161157d8982611673565b85526020850194506020840193505050600181019050611551565b5050509392505050565b60006115b56115b0846120b9565b61203c565b9050828152602081018484840111156115cd57600080fd5b6115d8848285612292565b509392505050565b6000813590506115ef81612656565b92915050565b600082601f83011261160657600080fd5b81356116168482602086016114b0565b91505092915050565b600082601f83011261163057600080fd5b813561164084826020860161151c565b91505092915050565b6000813590506116588161266d565b92915050565b60008135905061166d81612684565b92915050565b600082601f83011261168457600080fd5b81356116948482602086016115a2565b91505092915050565b6000813590506116ac8161269b565b92915050565b6000813590506116c1816126b2565b92915050565b6000602082840312156116d957600080fd5b60006116e78482850161165e565b91505092915050565b6000806040838503121561170357600080fd5b60006117118582860161165e565b92505060206117228582860161169d565b9150509250929050565b60006020828403121561173e57600080fd5b600082013567ffffffffffffffff81111561175857600080fd5b61176484828501611673565b91505092915050565b60008060008060008060c0878903121561178657600080fd5b600087013567ffffffffffffffff8111156117a057600080fd5b6117ac89828a01611673565b965050602087013567ffffffffffffffff8111156117c957600080fd5b6117d589828a01611673565b95505060406117e689828a016115e0565b945050606087013567ffffffffffffffff81111561180357600080fd5b61180f89828a0161161f565b935050608061182089828a0161169d565b92505060a061183189828a01611649565b9150509295509295509295565b60008060006060848603121561185357600080fd5b600084013567ffffffffffffffff81111561186d57600080fd5b61187986828701611673565b935050602084013567ffffffffffffffff81111561189657600080fd5b6118a286828701611673565b925050604084013567ffffffffffffffff8111156118bf57600080fd5b6118cb868287016115f5565b9150509250925092565b6000806000606084860312156118ea57600080fd5b600084013567ffffffffffffffff81111561190457600080fd5b61191086828701611673565b935050602084013567ffffffffffffffff81111561192d57600080fd5b61193986828701611673565b925050604084013567ffffffffffffffff81111561195657600080fd5b6119628682870161161f565b9150509250925092565b6000806000806080858703121561198257600080fd5b600085013567ffffffffffffffff81111561199c57600080fd5b6119a887828801611673565b945050602085013567ffffffffffffffff8111156119c557600080fd5b6119d187828801611673565b93505060406119e2878288016116b2565b925050606085013567ffffffffffffffff8111156119ff57600080fd5b611a0b87828801611673565b91505092959194509250565b6000611a238383611afe565b60208301905092915050565b611a40611a3b82612233565b61240a565b82525050565b611a4f81612221565b82525050565b611a5e81612221565b82525050565b611a75611a7082612221565b6123f8565b82525050565b6000611a86826120ff565b611a908185612122565b9350611a9b836120ea565b8060005b83811015611ad357611ab082612525565b611aba8882611a17565b9750611ac583612115565b925050600181019050611a9f565b5085935050505092915050565b611ae981612245565b82525050565b611af881612245565b82525050565b611b0781612251565b82525050565b611b1681612251565b82525050565b6000611b278261210a565b611b318185612133565b9350611b418185602086016122a1565b611b4a81612538565b840191505092915050565b6000611b608261210a565b611b6a8185612144565b9350611b7a8185602086016122a1565b611b8381612538565b840191505092915050565b6000611b998261210a565b611ba38185612155565b9350611bb38185602086016122a1565b80840191505092915050565b6000611bcc601583612144565b9150611bd782612563565b602082019050919050565b6000611bef601b83612144565b9150611bfa8261258c565b602082019050919050565b6000611c12601683612144565b9150611c1d826125b5565b602082019050919050565b6000611c35601283612144565b9150611c40826125de565b602082019050919050565b6000611c58602583612144565b9150611c6382612607565b604082019050919050565b60006060830160008301518482036000860152611c8b8282611b1c565b9150506020830151611ca06020860182611d4b565b506040830151611cb36040860182611afe565b508091505092915050565b6000606083016000808401549050611cd581612306565b611ce26000870182611a46565b50600184018583036020870152611cf98382611a7b565b92505060028401549050611d0c81612320565b611d196040870182611ae0565b50819250505092915050565b611d2e8161227b565b82525050565b611d45611d408261227b565b61242e565b82525050565b611d5481612285565b82525050565b611d6381612285565b82525050565b6000611d758284611a64565b60148201915081905092915050565b6000611d908284611a2f565b60148201915081905092915050565b6000611dab8284611b8e565b915081905092915050565b6000611dc28285611b8e565b9150611dce8284611a64565b6014820191508190509392505050565b6000611dea8287611d34565b602082019150611dfa8286611d34565b602082019150611e0a8285611d34565b602082019150611e1a8284611a64565b60148201915081905095945050505050565b6000604082019050611e416000830185611a55565b611e4e6020830184611aef565b9392505050565b6000604082019050611e6a6000830185611a55565b611e776020830184611d25565b9392505050565b6000602082019050611e936000830184611aef565b92915050565b6000602082019050611eae6000830184611b0d565b92915050565b6000604082019050611ec96000830185611b0d565b611ed66020830184611a55565b9392505050565b60006020820190508181036000830152611ef78184611b55565b905092915050565b60006060820190508181036000830152611f198186611b55565b9050611f286020830185611d5a565b611f356040830184611b0d565b949350505050565b60006020820190508181036000830152611f5681611bbf565b9050919050565b60006020820190508181036000830152611f7681611be2565b9050919050565b60006020820190508181036000830152611f9681611c05565b9050919050565b60006020820190508181036000830152611fb681611c28565b9050919050565b60006020820190508181036000830152611fd681611c4b565b9050919050565b60006020820190508181036000830152611ff78184611c6e565b905092915050565b600060208201905081810360008301526120198184611cbe565b905092915050565b60006020820190506120366000830184611d25565b92915050565b6000612046612057565b90506120528282612354565b919050565b6000604051905090565b600067ffffffffffffffff82111561207c5761207b6124f6565b5b602082029050602081019050919050565b600067ffffffffffffffff8211156120a8576120a76124f6565b5b602082029050602081019050919050565b600067ffffffffffffffff8211156120d4576120d36124f6565b5b6120dd82612538565b9050602081019050919050565b60008190508160005260206000209050919050565b600081549050919050565b600081519050919050565b6000600182019050919050565b600082825260208201905092915050565b600082825260208201905092915050565b600082825260208201905092915050565b600081905092915050565b600061216b8261227b565b91506121768361227b565b9250827fffffffffffffffffffffffffffffffffffffffffffffffffffffffffffffffff038211156121ab576121aa612469565b5b828201905092915050565b60006121c18261227b565b91506121cc8361227b565b9250828210156121df576121de612469565b5b828203905092915050565b600073ffffffffffffffffffffffffffffffffffffffff82169050919050565b600060ff82169050919050565b6000819050919050565b600061222c8261225b565b9050919050565b600061223e8261225b565b9050919050565b60008115159050919050565b6000819050919050565b600073ffffffffffffffffffffffffffffffffffffffff82169050919050565b6000819050919050565b600060ff82169050919050565b82818337600083830152505050565b60005b838110156122bf5780820151818401526020810190506122a4565b838111156122ce576000848401525b50505050565b600060028204905060018216806122ec57607f821691505b60208210811415612300576122ff6124c7565b5b50919050565b600061231961231483612556565b6121ea565b9050919050565b600061233361232e83612556565b61220a565b9050919050565b600061234d61234883612556565b612217565b9050919050565b61235d82612538565b810181811067ffffffffffffffff8211171561237c5761237b6124f6565b5b80604052505050565b60006123908261227b565b91507fffffffffffffffffffffffffffffffffffffffffffffffffffffffffffffffff8214156123c3576123c2612469565b5b600182019050919050565b60006123d982612285565b915060ff8214156123ed576123ec612469565b5b600182019050919050565b60006124038261241c565b9050919050565b60006124158261241c565b9050919050565b600061242782612549565b9050919050565b6000819050919050565b60006124438261227b565b915061244e8361227b565b92508261245e5761245d612498565b5b828206905092915050565b7f4e487b7100000000000000000000000000000000000000000000000000000000600052601160045260246000fd5b7f4e487b7100000000000000000000000000000000000000000000000000000000600052601260045260246000fd5b7f4e487b7100000000000000000000000000000000000000000000000000000000600052602260045260246000fd5b7f4e487b7100000000000000000000000000000000000000000000000000000000600052604160045260246000fd5b6000612531825461233a565b9050919050565b6000601f19601f8301169050919050565b60008160601b9050919050565b60008160001c9050919050565b7f4e6f7420656e6f756768206d6f6e65792073656e740000000000000000000000600082015250565b7f4e6f7420656e6f756768206d6f6e657920696e206465706f7369740000000000600082015250565b7f55736572206973206e6f74207265676973746572656400000000000000000000600082015250565b7f4974656d20686173206265656e20736f6c640000000000000000000000000000600082015250565b7f416c7265616479207265717565737465642073616d706c65206f66207468697360008201527f206974656d000000000000000000000000000000000000000000000000000000602082015250565b61265f81612221565b811461266a57600080fd5b50565b61267681612245565b811461268157600080fd5b50565b61268d81612251565b811461269857600080fd5b50565b6126a48161227b565b81146126af57600080fd5b50565b6126bb81612285565b81146126c657600080fd5b5056fea2646970667358221220b84cfeae60d1386414397e2c570556ab9d1685aaf66b9deebc2f094ca0715db164736f6c63430008040033",
  "immutableReferences": {},
  "source": "//\"SPDX-License-Identifier: UNLICENSED\"\r\npragma solidity 0.8.4;\r\n\r\nimport \"./Registry.sol\";\r\n\r\ncontract DataDappContract is Registry {\r\n    //***********************************Structs********************************//\r\n    struct UploadPacket {\r\n        address ownerAddress;\r\n        bytes32[] ipfsHashes;\r\n        bool sold;\r\n    }\r\n\r\n    struct Purchase {\r\n        bytes32 packetId;\r\n        address requesterAddress;\r\n        string[] keys;\r\n    }\r\n\r\n    struct Review {\r\n        string reviewer;\r\n        uint8 rating;\r\n        bytes32 comments;\r\n    }\r\n\r\n    //**********************************Mappings*******************************//\r\n    mapping(bytes32 => UploadPacket) public uploads;\r\n    mapping(bytes32 => bytes32[]) public sampleRequests;\r\n    mapping(bytes32 => Purchase) public purchases;\r\n    mapping(bytes32 => uint256) public deposits;\r\n    mapping(bytes32 => Review[]) public reviews;\r\n\r\n    uint256 nonce;\r\n\r\n    //***********************************Events********************************//\r\n    event UploadResult(UploadPacket upload);\r\n    event SampleRequestResult(address requester, uint256 index);\r\n    event DepositEvent(address requester, uint256 deposit);\r\n    event SendMoneyEvent(uint256 depositRequester);\r\n    event ReturnMoneyEvent(uint256 depositRequester);\r\n    event ReviewResult(Review review);\r\n\r\n    //********************************Modifiers********************************//\r\n    modifier itemNotSold(string memory _id) {\r\n        require(\r\n            uploads[keccak256(abi.encodePacked(_id))].sold != true,\r\n            \"Item has been sold\"\r\n        );\r\n        _;\r\n    }\r\n\r\n    //*********************************Functions*******************************//\r\n    receive() external payable {\r\n        bytes32 index = keccak256(abi.encodePacked(msg.sender));\r\n        deposits[index] += msg.value;\r\n        emit DepositEvent(msg.sender, deposits[index]);\r\n    }\r\n\r\n    //***********************************Upload********************************//\r\n    function addUpload(\r\n        string memory _userId,\r\n        string memory _packetId,\r\n        string[] memory _ipfsHashes\r\n    ) public registered(_userId) {\r\n        bytes32 index = keccak256(abi.encodePacked(_packetId));\r\n        uploads[index].ownerAddress = msg.sender;\r\n\r\n        for (uint8 i = 0; i < _ipfsHashes.length; i++) {\r\n            uploads[index].ipfsHashes.push(\r\n                keccak256(abi.encodePacked(_ipfsHashes[i]))\r\n            );\r\n        }\r\n\r\n        emit UploadResult(uploads[index]);\r\n    }\r\n\r\n    //***********************************Sample********************************//\r\n    function addSampleRequest(\r\n        string memory _requesterId,\r\n        string memory _packetId,\r\n        bytes32[] memory _keys\r\n    ) public registered(_requesterId) {\r\n        bytes32 index = keccak256(abi.encodePacked(_packetId, msg.sender));\r\n        require(\r\n            sampleRequests[index].length == 0,\r\n            \"Already requested sample of this item\"\r\n        );\r\n        for (uint8 i = 0; i < _keys.length; i++) {\r\n            sampleRequests[index].push(_keys[i]);\r\n        }\r\n        emit SampleRequestResult(\r\n            msg.sender,\r\n            getRandomKeyIndex(sampleRequests[index].length)\r\n        );\r\n    }\r\n\r\n    function getRandomKeyIndex(uint256 mod) internal returns (uint256) {\r\n        uint256 rand =\r\n            uint256(\r\n                keccak256(\r\n                    abi.encodePacked(\r\n                        nonce,\r\n                        block.timestamp,\r\n                        block.difficulty,\r\n                        msg.sender\r\n                    )\r\n                )\r\n            ) % mod;\r\n        nonce++;\r\n        return rand;\r\n    }\r\n\r\n    //**********************************Purchase*******************************//\r\n    function addPurchase(\r\n        string memory _ownerId,\r\n        string memory _packetId,\r\n        address _requesterAddress,\r\n        string[] memory _keys,\r\n        uint256 price,\r\n        bool _approve\r\n    ) public registered(_ownerId) itemNotSold(_packetId) {\r\n        bytes32 index =\r\n            keccak256(abi.encodePacked(_packetId, _requesterAddress));\r\n\r\n        if (_approve && hashKeysAndCompare(index, _keys)) {\r\n            purchases[index].packetId = keccak256(abi.encodePacked(_packetId));\r\n            purchases[index].requesterAddress = _requesterAddress;\r\n\r\n            for (uint8 i = 0; i < _keys.length; i++) {\r\n                purchases[index].keys.push(_keys[i]);\r\n            }\r\n\r\n            uploads[keccak256(abi.encodePacked(_packetId))].sold = true;\r\n            sendMoney(_requesterAddress, payable(msg.sender), price);\r\n        } else {\r\n            returnMoney(payable(_requesterAddress), price);\r\n        }\r\n    }\r\n\r\n    function hashKeysAndCompare(bytes32 _index, string[] memory _keysFromSeller)\r\n        internal\r\n        view\r\n        returns (bool)\r\n    {\r\n        bytes32[] memory keysFromSample = sampleRequests[_index];\r\n        bool confirm = true;\r\n\r\n        for (uint8 i = 0; i < keysFromSample.length; i++) {\r\n            if (\r\n                keysFromSample[i] != keccak256(abi.encode(_keysFromSeller[i]))\r\n            ) {\r\n                confirm = false;\r\n            }\r\n        }\r\n        return confirm;\r\n    }\r\n\r\n    function sendMoney(\r\n        address from,\r\n        address payable _to,\r\n        uint256 price\r\n    ) internal {\r\n        bytes32 index = keccak256(abi.encodePacked(from));\r\n        require(price <= deposits[index], \"Not enough money sent\");\r\n        uint256 moneyToSent = price;\r\n        deposits[index] -= price;\r\n        _to.transfer(moneyToSent);\r\n\r\n        emit SendMoneyEvent(deposits[index]);\r\n    }\r\n\r\n    function returnMoney(address payable _to, uint256 price) internal {\r\n        bytes32 index = keccak256(abi.encodePacked(_to));\r\n        require(price <= deposits[index], \"Not enough money in deposit\");\r\n        uint256 moneyToSent = price;\r\n        deposits[index] -= price;\r\n        _to.transfer(moneyToSent);\r\n\r\n        emit ReturnMoneyEvent(deposits[keccak256(abi.encodePacked(_to))]);\r\n    }\r\n\r\n    //***********************************Review*********************************//\r\n    function addReview(\r\n        string memory _rated,\r\n        string memory _reviewer,\r\n        uint8 _rating,\r\n        string memory _comments\r\n    ) public registered(_rated) registered(_reviewer) {\r\n        Review memory review =\r\n            Review(_reviewer, _rating, keccak256(abi.encodePacked(_comments)));\r\n        reviews[keccak256(abi.encodePacked(_rated))].push(review);\r\n\r\n        emit ReviewResult(review);\r\n    }\r\n}\r\n",
  "sourcePath": "C:/Users/vaspa/Desktop/Files/dis-project/contracts/DataDappContract.sol",
  "compiler": {
    "name": "solc",
    "version": "0.8.4+commit.c7e474f2.Emscripten.clang"
  },
  "schemaVersion": "3.4.0",
  "updatedAt": "2021-05-24T12:51:35.678Z",
  "networkType": "ethereum",
  "devdoc": {
    "kind": "dev",
    "methods": {},
    "version": 1
  },
  "userdoc": {
    "kind": "user",
    "methods": {},
    "version": 1
  }
}