{
  "contractName": "DataDappContract",
  "abi": [
    {
      "anonymous": false,
      "inputs": [
        {
          "indexed": false,
          "internalType": "address",
          "name": "requester",
          "type": "address"
        },
        {
          "indexed": false,
          "internalType": "uint256",
          "name": "deposit",
          "type": "uint256"
        }
      ],
      "name": "DepositEvent",
      "type": "event"
    },
    {
      "anonymous": false,
      "inputs": [
        {
          "indexed": false,
          "internalType": "string",
          "name": "_id",
          "type": "string"
        }
      ],
      "name": "Register",
      "type": "event"
    },
    {
      "anonymous": false,
      "inputs": [
        {
          "indexed": false,
          "internalType": "uint256",
          "name": "depositRequester",
          "type": "uint256"
        }
      ],
      "name": "ReturnMoneyEvent",
      "type": "event"
    },
    {
      "anonymous": false,
      "inputs": [
        {
          "components": [
            {
              "internalType": "string",
              "name": "reviewer",
              "type": "string"
            },
            {
              "internalType": "uint8",
              "name": "rating",
              "type": "uint8"
            },
            {
              "internalType": "bytes32",
              "name": "comments",
              "type": "bytes32"
            }
          ],
          "indexed": false,
          "internalType": "struct DataDappContract.Review",
          "name": "review",
          "type": "tuple"
        }
      ],
      "name": "ReviewResult",
      "type": "event"
    },
    {
      "anonymous": false,
      "inputs": [
        {
          "indexed": false,
          "internalType": "address",
          "name": "requester",
          "type": "address"
        },
        {
          "indexed": false,
          "internalType": "uint256",
          "name": "index",
          "type": "uint256"
        }
      ],
      "name": "SampleRequestResult",
      "type": "event"
    },
    {
      "anonymous": false,
      "inputs": [
        {
          "indexed": false,
          "internalType": "uint256",
          "name": "depositRequester",
          "type": "uint256"
        }
      ],
      "name": "SendMoneyEvent",
      "type": "event"
    },
    {
      "anonymous": false,
      "inputs": [
        {
          "components": [
            {
              "internalType": "address",
              "name": "ownerAddress",
              "type": "address"
            },
            {
              "internalType": "bytes32[]",
              "name": "ipfsHashes",
              "type": "bytes32[]"
            },
            {
              "internalType": "bool",
              "name": "sold",
              "type": "bool"
            }
          ],
          "indexed": false,
          "internalType": "struct DataDappContract.UploadPacket",
          "name": "upload",
          "type": "tuple"
        }
      ],
      "name": "UploadResult",
      "type": "event"
    },
    {
      "inputs": [
        {
          "internalType": "bytes32",
          "name": "",
          "type": "bytes32"
        }
      ],
      "name": "deposits",
      "outputs": [
        {
          "internalType": "uint256",
          "name": "",
          "type": "uint256"
        }
      ],
      "stateMutability": "view",
      "type": "function",
      "constant": true
    },
    {
      "inputs": [
        {
          "internalType": "bytes32",
          "name": "",
          "type": "bytes32"
        }
      ],
      "name": "purchases",
      "outputs": [
        {
          "internalType": "bytes32",
          "name": "packetId",
          "type": "bytes32"
        },
        {
          "internalType": "address",
          "name": "requesterAddress",
          "type": "address"
        }
      ],
      "stateMutability": "view",
      "type": "function",
      "constant": true
    },
    {
      "inputs": [
        {
          "internalType": "string",
          "name": "_id",
          "type": "string"
        }
      ],
      "name": "registerUser",
      "outputs": [],
      "stateMutability": "nonpayable",
      "type": "function"
    },
    {
      "inputs": [
        {
          "internalType": "bytes32",
          "name": "",
          "type": "bytes32"
        }
      ],
      "name": "registeredUsers",
      "outputs": [
        {
          "internalType": "bool",
          "name": "",
          "type": "bool"
        }
      ],
      "stateMutability": "view",
      "type": "function",
      "constant": true
    },
    {
      "inputs": [
        {
          "internalType": "bytes32",
          "name": "",
          "type": "bytes32"
        },
        {
          "internalType": "uint256",
          "name": "",
          "type": "uint256"
        }
      ],
      "name": "reviews",
      "outputs": [
        {
          "internalType": "string",
          "name": "reviewer",
          "type": "string"
        },
        {
          "internalType": "uint8",
          "name": "rating",
          "type": "uint8"
        },
        {
          "internalType": "bytes32",
          "name": "comments",
          "type": "bytes32"
        }
      ],
      "stateMutability": "view",
      "type": "function",
      "constant": true
    },
    {
      "inputs": [
        {
          "internalType": "bytes32",
          "name": "",
          "type": "bytes32"
        },
        {
          "internalType": "uint256",
          "name": "",
          "type": "uint256"
        }
      ],
      "name": "sampleRequests",
      "outputs": [
        {
          "internalType": "bytes32",
          "name": "",
          "type": "bytes32"
        }
      ],
      "stateMutability": "view",
      "type": "function",
      "constant": true
    },
    {
      "inputs": [
        {
          "internalType": "bytes32",
          "name": "",
          "type": "bytes32"
        }
      ],
      "name": "uploads",
      "outputs": [
        {
          "internalType": "address",
          "name": "ownerAddress",
          "type": "address"
        },
        {
          "internalType": "bool",
          "name": "sold",
          "type": "bool"
        }
      ],
      "stateMutability": "view",
      "type": "function",
      "constant": true
    },
    {
      "stateMutability": "payable",
      "type": "receive",
      "payable": true
    },
    {
      "inputs": [
        {
          "internalType": "string",
          "name": "_userId",
          "type": "string"
        },
        {
          "internalType": "string",
          "name": "_packetId",
          "type": "string"
        },
        {
          "internalType": "string[]",
          "name": "_ipfsHashes",
          "type": "string[]"
        }
      ],
      "name": "addUpload",
      "outputs": [],
      "stateMutability": "nonpayable",
      "type": "function"
    },
    {
      "inputs": [
        {
          "internalType": "string",
          "name": "_requesterId",
          "type": "string"
        },
        {
          "internalType": "string",
          "name": "_packetId",
          "type": "string"
        },
        {
          "internalType": "bytes32[]",
          "name": "_keys",
          "type": "bytes32[]"
        }
      ],
      "name": "addSampleRequest",
      "outputs": [],
      "stateMutability": "nonpayable",
      "type": "function"
    },
    {
      "inputs": [
        {
          "internalType": "string",
          "name": "_ownerId",
          "type": "string"
        },
        {
          "internalType": "string",
          "name": "_packetId",
          "type": "string"
        },
        {
          "internalType": "address",
          "name": "_requesterAddress",
          "type": "address"
        },
        {
          "internalType": "string[]",
          "name": "_keys",
          "type": "string[]"
        },
        {
          "internalType": "uint256",
          "name": "price",
          "type": "uint256"
        },
        {
          "internalType": "bool",
          "name": "_approve",
          "type": "bool"
        }
      ],
      "name": "addPurchase",
      "outputs": [],
      "stateMutability": "nonpayable",
      "type": "function"
    },
    {
      "inputs": [
        {
          "internalType": "string",
          "name": "_rated",
          "type": "string"
        },
        {
          "internalType": "string",
          "name": "_reviewer",
          "type": "string"
        },
        {
          "internalType": "uint8",
          "name": "_rating",
          "type": "uint8"
        },
        {
          "internalType": "string",
          "name": "_comments",
          "type": "string"
        }
      ],
      "name": "addReview",
      "outputs": [],
      "stateMutability": "nonpayable",
      "type": "function"
    }
  ],
  "bytecode": "0x608060405234801561001057600080fd5b50612665806100206000396000f3fe6080604052600436106100a05760003560e01c8063704f1b9411610064578063704f1b94146102595780637ab8dbe91461028257806396929d5f146102c057806397b130bf146102e9578063c0302cdd14610327578063d68557ae1461035057610149565b80631e5d30761461014e578063366c6ea4146101775780633d4dff7b146101b6578063414f5a0f146101f357806367c8753b1461021c57610149565b36610149576000336040516020016100b89190611d18565b604051602081830303815290604052805190602001209050346004600083815260200190815260200160002060008282546100f391906120ef565b925050819055507f2d8a08b6430a894aea608bcaa6013d5d3e263bc49110605e4d4ba76930ae5c2933600460008481526020019081526020016000205460405161013e929190611e04565b60405180910390a150005b600080fd5b34801561015a57600080fd5b506101756004803603810190610170919061193e565b61038d565b005b34801561018357600080fd5b5061019e600480360381019061019991906116c2565b6105dc565b6040516101ad93929190611eae565b60405180910390f35b3480156101c257600080fd5b506101dd60048036038101906101d89190611699565b6106b8565b6040516101ea9190611fb0565b60405180910390f35b3480156101ff57600080fd5b5061021a6004803603810190610215919061173f565b6106d0565b005b34801561022857600080fd5b50610243600480360381019061023e91906116c2565b610979565b6040516102509190611e48565b60405180910390f35b34801561026557600080fd5b50610280600480360381019061027b91906116fe565b6109aa565b005b34801561028e57600080fd5b506102a960048036038101906102a49190611699565b610a35565b6040516102b7929190611e63565b60405180910390f35b3480156102cc57600080fd5b506102e760048036038101906102e29190611810565b610a79565b005b3480156102f557600080fd5b50610310600480360381019061030b9190611699565b610c8a565b60405161031e929190611ddb565b60405180910390f35b34801561033357600080fd5b5061034e600480360381019061034991906118a7565b610cdb565b005b34801561035c57600080fd5b5061037760048036038101906103729190611699565b610f01565b6040516103849190611e2d565b60405180910390f35b8360011515600080836040516020016103a69190611d4e565b60405160208183030381529060405280519060200120815260200190815260200160002060009054906101000a900460ff1615151461041a576040517f08c379a000000000000000000000000000000000000000000000000000000000815260040161041190611f2c565b60405180910390fd5b8360011515600080836040516020016104339190611d4e565b60405160208183030381529060405280519060200120815260200190815260200160002060009054906101000a900460ff161515146104a7576040517f08c379a000000000000000000000000000000000000000000000000000000000815260040161049e90611f2c565b60405180910390fd5b600060405180606001604052808781526020018660ff168152602001856040516020016104d49190611d4e565b60405160208183030381529060405280519060200120815250905060056000886040516020016105049190611d4e565b604051602081830303815290604052805190602001208152602001908152602001600020819080600181540180825580915050600190039060005260206000209060030201600090919091909150600082015181600001908051906020019061056e9291906113df565b5060208201518160010160006101000a81548160ff021916908360ff1602179055506040820151816002015550507f52b7a5046109bc575df27b04dadaac96f00086418a53ae85d90679f2c275a28f816040516105cb9190611f6c565b60405180910390a150505050505050565b600560205281600052604060002081815481106105f857600080fd5b90600052602060002090600302016000915091505080600001805461061c90612263565b80601f016020809104026020016040519081016040528092919081815260200182805461064890612263565b80156106955780601f1061066a57610100808354040283529160200191610695565b820191906000526020600020905b81548152906001019060200180831161067857829003601f168201915b5050505050908060010160009054906101000a900460ff16908060020154905083565b60046020528060005260406000206000915090505481565b8560011515600080836040516020016106e99190611d4e565b60405160208183030381529060405280519060200120815260200190815260200160002060009054906101000a900460ff1615151461075d576040517f08c379a000000000000000000000000000000000000000000000000000000000815260040161075490611f2c565b60405180910390fd5b60008686604051602001610772929190611d65565b60405160208183030381529060405280519060200120905061079387610f21565b15801561079d5750825b80156107af57506107ae8186610f74565b5b1561096457866040516020016107c59190611d4e565b604051602081830303815290604052805190602001206003600083815260200190815260200160002060000181905550856003600083815260200190815260200160002060010160006101000a81548173ffffffffffffffffffffffffffffffffffffffff021916908373ffffffffffffffffffffffffffffffffffffffff16021790555060005b85518160ff1610156108ff5760036000838152602001908152602001600020600201868260ff16815181106108ab577f4e487b7100000000000000000000000000000000000000000000000000000000600052603260045260246000fd5b60200260200101519080600181540180825580915050600190039060005260206000200160009091909190915090805190602001906108eb9291906113df565b5080806108f79061235d565b91505061084d565b506001806000896040516020016109169190611d4e565b60405160208183030381529060405280519060200120815260200190815260200160002060020160006101000a81548160ff02191690831515021790555061095f8633866110c7565b61096f565b61096e868561120f565b5b5050505050505050565b6002602052816000526040600020818154811061099557600080fd5b90600052602060002001600091509150505481565b6001600080836040516020016109c09190611d4e565b60405160208183030381529060405280519060200120815260200190815260200160002060006101000a81548160ff0219169083151502179055507f40b2d3af7e7a908ab771e3b293d2df299bb187d4ac2dcb3dbc2455fdcf5c15dd81604051610a2a9190611e8c565b60405180910390a150565b60036020528060005260406000206000915090508060000154908060010160009054906101000a900473ffffffffffffffffffffffffffffffffffffffff16905082565b826001151560008083604051602001610a929190611d4e565b60405160208183030381529060405280519060200120815260200190815260200160002060009054906101000a900460ff16151514610b06576040517f08c379a0000000000000000000000000000000000000000000000000000000008152600401610afd90611f2c565b60405180910390fd5b60008333604051602001610b1b929190611d65565b6040516020818303038152906040528051906020012090506000600260008381526020019081526020016000208054905014610b8c576040517f08c379a0000000000000000000000000000000000000000000000000000000008152600401610b8390611f4c565b60405180910390fd5b60005b83518160ff161015610c2b5760026000838152602001908152602001600020848260ff1681518110610bea577f4e487b7100000000000000000000000000000000000000000000000000000000600052603260045260246000fd5b602002602001015190806001815401808255809150506001900390600052602060002001600090919091909150558080610c239061235d565b915050610b8f565b507f089aa10c109296bf82ebc419d1f7adbe9f9d3c367c6f43ceffb6aa1fadc9187033610c6d600260008581526020019081526020016000208054905061137c565b604051610c7b929190611e04565b60405180910390a15050505050565b60016020528060005260406000206000915090508060000160009054906101000a900473ffffffffffffffffffffffffffffffffffffffff16908060020160009054906101000a900460ff16905082565b826001151560008083604051602001610cf49190611d4e565b60405160208183030381529060405280519060200120815260200190815260200160002060009054906101000a900460ff16151514610d68576040517f08c379a0000000000000000000000000000000000000000000000000000000008152600401610d5f90611f2c565b60405180910390fd5b600083604051602001610d7b9190611d4e565b604051602081830303815290604052805190602001209050336001600083815260200190815260200160002060000160006101000a81548173ffffffffffffffffffffffffffffffffffffffff021916908373ffffffffffffffffffffffffffffffffffffffff16021790555060005b83518160ff161015610eb05760016000838152602001908152602001600020600101848260ff1681518110610e49577f4e487b7100000000000000000000000000000000000000000000000000000000600052603260045260246000fd5b6020026020010151604051602001610e619190611d4e565b6040516020818303038152906040528051906020012090806001815401808255809150506001900390600052602060002001600090919091909150558080610ea89061235d565b915050610deb565b507f0c6fa9feb9d1a77b6b20251fdcd90466509bf7b9c9f650d70394aa888545ab8060016000838152602001908152602001600020604051610ef29190611f8e565b60405180910390a15050505050565b60006020528060005260406000206000915054906101000a900460ff1681565b60006001600083604051602001610f389190611d4e565b60405160208183030381529060405280519060200120815260200190815260200160002060020160009054906101000a900460ff169050919050565b60008060026000858152602001908152602001600020805480602002602001604051908101604052809291908181526020018280548015610fd457602002820191906000526020600020905b815481526020019060010190808311610fc0575b5050505050905060006001905060005b82518160ff1610156110bb57848160ff168151811061102c577f4e487b7100000000000000000000000000000000000000000000000000000000600052603260045260246000fd5b60200260200101516040516020016110449190611e8c565b60405160208183030381529060405280519060200120838260ff1681518110611096577f4e487b7100000000000000000000000000000000000000000000000000000000600052603260045260246000fd5b6020026020010151146110a857600091505b80806110b39061235d565b915050610fe4565b50809250505092915050565b6000836040516020016110da9190611d18565b6040516020818303038152906040528051906020012090506004600082815260200190815260200160002054821115611148576040517f08c379a000000000000000000000000000000000000000000000000000000000815260040161113f90611eec565b60405180910390fd5b6000829050826004600084815260200190815260200160002060008282546111709190612145565b925050819055508373ffffffffffffffffffffffffffffffffffffffff166108fc829081150290604051600060405180830381858888f193505050501580156111bd573d6000803e3d6000fd5b507f374d982865917bf9690a43d9d87551a5bf10ca92a619f240ae5932cb7bfe218e60046000848152602001908152602001600020546040516112009190611fb0565b60405180910390a15050505050565b6000826040516020016112229190611d33565b6040516020818303038152906040528051906020012090506004600082815260200190815260200160002054821115611290576040517f08c379a000000000000000000000000000000000000000000000000000000000815260040161128790611f0c565b60405180910390fd5b6000829050826004600084815260200190815260200160002060008282546112b89190612145565b925050819055508373ffffffffffffffffffffffffffffffffffffffff166108fc829081150290604051600060405180830381858888f19350505050158015611305573d6000803e3d6000fd5b507ff86aa5be0c5cbcf478870e7cf4f0b987112da5139066ef8dae48602b79d0b34d600460008660405160200161133c9190611d33565b6040516020818303038152906040528051906020012081526020019081526020016000205460405161136e9190611fb0565b60405180910390a150505050565b600080826006544244336040516020016113999493929190611d8d565b6040516020818303038152906040528051906020012060001c6113bc91906123c7565b9050600660008154809291906113d190612314565b919050555080915050919050565b8280546113eb90612263565b90600052602060002090601f01602090048101928261140d5760008555611454565b82601f1061142657805160ff1916838001178555611454565b82800160010185558215611454579182015b82811115611453578251825591602001919060010190611438565b5b5090506114619190611465565b5090565b5b8082111561147e576000816000905550600101611466565b5090565b600061149561149084611ff0565b611fcb565b905080838252602082019050828560208602820111156114b457600080fd5b60005b858110156114e457816114ca8882611630565b8452602084019350602083019250506001810190506114b7565b5050509392505050565b60006115016114fc8461201c565b611fcb565b9050808382526020820190508285602086028201111561152057600080fd5b60005b8581101561156a57813567ffffffffffffffff81111561154257600080fd5b80860161154f8982611645565b85526020850194506020840193505050600181019050611523565b5050509392505050565b600061158761158284612048565b611fcb565b90508281526020810184848401111561159f57600080fd5b6115aa848285612221565b509392505050565b6000813590506115c1816125bc565b92915050565b600082601f8301126115d857600080fd5b81356115e8848260208601611482565b91505092915050565b600082601f83011261160257600080fd5b81356116128482602086016114ee565b91505092915050565b60008135905061162a816125d3565b92915050565b60008135905061163f816125ea565b92915050565b600082601f83011261165657600080fd5b8135611666848260208601611574565b91505092915050565b60008135905061167e81612601565b92915050565b60008135905061169381612618565b92915050565b6000602082840312156116ab57600080fd5b60006116b984828501611630565b91505092915050565b600080604083850312156116d557600080fd5b60006116e385828601611630565b92505060206116f48582860161166f565b9150509250929050565b60006020828403121561171057600080fd5b600082013567ffffffffffffffff81111561172a57600080fd5b61173684828501611645565b91505092915050565b60008060008060008060c0878903121561175857600080fd5b600087013567ffffffffffffffff81111561177257600080fd5b61177e89828a01611645565b965050602087013567ffffffffffffffff81111561179b57600080fd5b6117a789828a01611645565b95505060406117b889828a016115b2565b945050606087013567ffffffffffffffff8111156117d557600080fd5b6117e189828a016115f1565b93505060806117f289828a0161166f565b92505060a061180389828a0161161b565b9150509295509295509295565b60008060006060848603121561182557600080fd5b600084013567ffffffffffffffff81111561183f57600080fd5b61184b86828701611645565b935050602084013567ffffffffffffffff81111561186857600080fd5b61187486828701611645565b925050604084013567ffffffffffffffff81111561189157600080fd5b61189d868287016115c7565b9150509250925092565b6000806000606084860312156118bc57600080fd5b600084013567ffffffffffffffff8111156118d657600080fd5b6118e286828701611645565b935050602084013567ffffffffffffffff8111156118ff57600080fd5b61190b86828701611645565b925050604084013567ffffffffffffffff81111561192857600080fd5b611934868287016115f1565b9150509250925092565b6000806000806080858703121561195457600080fd5b600085013567ffffffffffffffff81111561196e57600080fd5b61197a87828801611645565b945050602085013567ffffffffffffffff81111561199757600080fd5b6119a387828801611645565b93505060406119b487828801611684565b925050606085013567ffffffffffffffff8111156119d157600080fd5b6119dd87828801611645565b91505092959194509250565b60006119f58383611ad0565b60208301905092915050565b611a12611a0d826121c2565b612399565b82525050565b611a21816121b0565b82525050565b611a30816121b0565b82525050565b611a47611a42826121b0565b612387565b82525050565b6000611a588261208e565b611a6281856120b1565b9350611a6d83612079565b8060005b83811015611aa557611a82826124b4565b611a8c88826119e9565b9750611a97836120a4565b925050600181019050611a71565b5085935050505092915050565b611abb816121d4565b82525050565b611aca816121d4565b82525050565b611ad9816121e0565b82525050565b611ae8816121e0565b82525050565b6000611af982612099565b611b0381856120c2565b9350611b13818560208601612230565b611b1c816124c7565b840191505092915050565b6000611b3282612099565b611b3c81856120d3565b9350611b4c818560208601612230565b611b55816124c7565b840191505092915050565b6000611b6b82612099565b611b7581856120e4565b9350611b85818560208601612230565b80840191505092915050565b6000611b9e6015836120d3565b9150611ba9826124f2565b602082019050919050565b6000611bc1601b836120d3565b9150611bcc8261251b565b602082019050919050565b6000611be46016836120d3565b9150611bef82612544565b602082019050919050565b6000611c076025836120d3565b9150611c128261256d565b604082019050919050565b60006060830160008301518482036000860152611c3a8282611aee565b9150506020830151611c4f6020860182611cfa565b506040830151611c626040860182611ad0565b508091505092915050565b6000606083016000808401549050611c8481612295565b611c916000870182611a18565b50600184018583036020870152611ca88382611a4d565b92505060028401549050611cbb816122af565b611cc86040870182611ab2565b50819250505092915050565b611cdd8161220a565b82525050565b611cf4611cef8261220a565b6123bd565b82525050565b611d0381612214565b82525050565b611d1281612214565b82525050565b6000611d248284611a36565b60148201915081905092915050565b6000611d3f8284611a01565b60148201915081905092915050565b6000611d5a8284611b60565b915081905092915050565b6000611d718285611b60565b9150611d7d8284611a36565b6014820191508190509392505050565b6000611d998287611ce3565b602082019150611da98286611ce3565b602082019150611db98285611ce3565b602082019150611dc98284611a36565b60148201915081905095945050505050565b6000604082019050611df06000830185611a27565b611dfd6020830184611ac1565b9392505050565b6000604082019050611e196000830185611a27565b611e266020830184611cd4565b9392505050565b6000602082019050611e426000830184611ac1565b92915050565b6000602082019050611e5d6000830184611adf565b92915050565b6000604082019050611e786000830185611adf565b611e856020830184611a27565b9392505050565b60006020820190508181036000830152611ea68184611b27565b905092915050565b60006060820190508181036000830152611ec88186611b27565b9050611ed76020830185611d09565b611ee46040830184611adf565b949350505050565b60006020820190508181036000830152611f0581611b91565b9050919050565b60006020820190508181036000830152611f2581611bb4565b9050919050565b60006020820190508181036000830152611f4581611bd7565b9050919050565b60006020820190508181036000830152611f6581611bfa565b9050919050565b60006020820190508181036000830152611f868184611c1d565b905092915050565b60006020820190508181036000830152611fa88184611c6d565b905092915050565b6000602082019050611fc56000830184611cd4565b92915050565b6000611fd5611fe6565b9050611fe182826122e3565b919050565b6000604051905090565b600067ffffffffffffffff82111561200b5761200a612485565b5b602082029050602081019050919050565b600067ffffffffffffffff82111561203757612036612485565b5b602082029050602081019050919050565b600067ffffffffffffffff82111561206357612062612485565b5b61206c826124c7565b9050602081019050919050565b60008190508160005260206000209050919050565b600081549050919050565b600081519050919050565b6000600182019050919050565b600082825260208201905092915050565b600082825260208201905092915050565b600082825260208201905092915050565b600081905092915050565b60006120fa8261220a565b91506121058361220a565b9250827fffffffffffffffffffffffffffffffffffffffffffffffffffffffffffffffff0382111561213a576121396123f8565b5b828201905092915050565b60006121508261220a565b915061215b8361220a565b92508282101561216e5761216d6123f8565b5b828203905092915050565b600073ffffffffffffffffffffffffffffffffffffffff82169050919050565b600060ff82169050919050565b6000819050919050565b60006121bb826121ea565b9050919050565b60006121cd826121ea565b9050919050565b60008115159050919050565b6000819050919050565b600073ffffffffffffffffffffffffffffffffffffffff82169050919050565b6000819050919050565b600060ff82169050919050565b82818337600083830152505050565b60005b8381101561224e578082015181840152602081019050612233565b8381111561225d576000848401525b50505050565b6000600282049050600182168061227b57607f821691505b6020821081141561228f5761228e612456565b5b50919050565b60006122a86122a3836124e5565b612179565b9050919050565b60006122c26122bd836124e5565b612199565b9050919050565b60006122dc6122d7836124e5565b6121a6565b9050919050565b6122ec826124c7565b810181811067ffffffffffffffff8211171561230b5761230a612485565b5b80604052505050565b600061231f8261220a565b91507fffffffffffffffffffffffffffffffffffffffffffffffffffffffffffffffff821415612352576123516123f8565b5b600182019050919050565b600061236882612214565b915060ff82141561237c5761237b6123f8565b5b600182019050919050565b6000612392826123ab565b9050919050565b60006123a4826123ab565b9050919050565b60006123b6826124d8565b9050919050565b6000819050919050565b60006123d28261220a565b91506123dd8361220a565b9250826123ed576123ec612427565b5b828206905092915050565b7f4e487b7100000000000000000000000000000000000000000000000000000000600052601160045260246000fd5b7f4e487b7100000000000000000000000000000000000000000000000000000000600052601260045260246000fd5b7f4e487b7100000000000000000000000000000000000000000000000000000000600052602260045260246000fd5b7f4e487b7100000000000000000000000000000000000000000000000000000000600052604160045260246000fd5b60006124c082546122c9565b9050919050565b6000601f19601f8301169050919050565b60008160601b9050919050565b60008160001c9050919050565b7f4e6f7420656e6f756768206d6f6e65792073656e740000000000000000000000600082015250565b7f4e6f7420656e6f756768206d6f6e657920696e206465706f7369740000000000600082015250565b7f55736572206973206e6f74207265676973746572656400000000000000000000600082015250565b7f416c7265616479207265717565737465642073616d706c65206f66207468697360008201527f206974656d000000000000000000000000000000000000000000000000000000602082015250565b6125c5816121b0565b81146125d057600080fd5b50565b6125dc816121d4565b81146125e757600080fd5b50565b6125f3816121e0565b81146125fe57600080fd5b50565b61260a8161220a565b811461261557600080fd5b50565b61262181612214565b811461262c57600080fd5b5056fea264697066735822122007e02a356280f938b2b54eac0d8df75a2d68558272275dc25f9e8b229cadf97464736f6c63430008040033",
  "immutableReferences": {},
  "source": "//\"SPDX-License-Identifier: UNLICENSED\"\r\npragma solidity 0.8.4;\r\n\r\nimport \"./Registry.sol\";\r\n\r\ncontract DataDappContract is Registry {\r\n    //***********************************Structs********************************//\r\n    struct UploadPacket {\r\n        address ownerAddress;\r\n        bytes32[] ipfsHashes;\r\n        bool sold;\r\n    }\r\n\r\n    struct Purchase {\r\n        bytes32 packetId;\r\n        address requesterAddress;\r\n        string[] keys;\r\n    }\r\n\r\n    struct Review {\r\n        string reviewer;\r\n        uint8 rating;\r\n        bytes32 comments;\r\n    }\r\n\r\n    //**********************************Mappings*******************************//\r\n    mapping(bytes32 => UploadPacket) public uploads;\r\n    mapping(bytes32 => bytes32[]) public sampleRequests;\r\n    mapping(bytes32 => Purchase) public purchases;\r\n    mapping(bytes32 => uint256) public deposits;\r\n    mapping(bytes32 => Review[]) public reviews;\r\n\r\n    uint256 nonce;\r\n\r\n    //***********************************Events********************************//\r\n    event UploadResult(UploadPacket upload);\r\n    event SampleRequestResult(address requester, uint256 index);\r\n    event DepositEvent(address requester, uint256 deposit);\r\n    event SendMoneyEvent(uint256 depositRequester);\r\n    event ReturnMoneyEvent(uint256 depositRequester);\r\n    event ReviewResult(Review review);\r\n\r\n    //*********************************Functions*******************************//\r\n    receive() external payable {\r\n        bytes32 index = keccak256(abi.encodePacked(msg.sender));\r\n        deposits[index] += msg.value;\r\n        emit DepositEvent(msg.sender, deposits[index]);\r\n    }\r\n\r\n    //***********************************Upload********************************//\r\n    function addUpload(\r\n        string memory _userId,\r\n        string memory _packetId,\r\n        string[] memory _ipfsHashes\r\n    ) public registered(_userId) {\r\n        bytes32 index = keccak256(abi.encodePacked(_packetId));\r\n        uploads[index].ownerAddress = msg.sender;\r\n\r\n        for (uint8 i = 0; i < _ipfsHashes.length; i++) {\r\n            uploads[index].ipfsHashes.push(\r\n                keccak256(abi.encodePacked(_ipfsHashes[i]))\r\n            );\r\n        }\r\n\r\n        emit UploadResult(uploads[index]);\r\n    }\r\n\r\n    //***********************************Sample********************************//\r\n    function addSampleRequest(\r\n        string memory _requesterId,\r\n        string memory _packetId,\r\n        bytes32[] memory _keys\r\n    ) public registered(_requesterId) {\r\n        bytes32 index = keccak256(abi.encodePacked(_packetId, msg.sender));\r\n        require(\r\n            sampleRequests[index].length == 0,\r\n            \"Already requested sample of this item\"\r\n        );\r\n        for (uint8 i = 0; i < _keys.length; i++) {\r\n            sampleRequests[index].push(_keys[i]);\r\n        }\r\n        emit SampleRequestResult(\r\n            msg.sender,\r\n            getRandomKeyIndex(sampleRequests[index].length)\r\n        );\r\n    }\r\n\r\n    function getRandomKeyIndex(uint256 mod) internal returns (uint256) {\r\n        uint256 rand =\r\n            uint256(\r\n                keccak256(\r\n                    abi.encodePacked(\r\n                        nonce,\r\n                        block.timestamp,\r\n                        block.difficulty,\r\n                        msg.sender\r\n                    )\r\n                )\r\n            ) % mod;\r\n        nonce++;\r\n        return rand;\r\n    }\r\n\r\n    //**********************************Purchase*******************************//\r\n    function addPurchase(\r\n        string memory _ownerId,\r\n        string memory _packetId,\r\n        address _requesterAddress,\r\n        string[] memory _keys,\r\n        uint256 price,\r\n        bool _approve\r\n    ) public registered(_ownerId) {\r\n        bytes32 index =\r\n            keccak256(abi.encodePacked(_packetId, _requesterAddress));\r\n\r\n        if (\r\n            !itemSold(_packetId) && _approve && hashKeysAndCompare(index, _keys)\r\n        ) {\r\n            purchases[index].packetId = keccak256(abi.encodePacked(_packetId));\r\n            purchases[index].requesterAddress = _requesterAddress;\r\n\r\n            for (uint8 i = 0; i < _keys.length; i++) {\r\n                purchases[index].keys.push(_keys[i]);\r\n            }\r\n\r\n            uploads[keccak256(abi.encodePacked(_packetId))].sold = true;\r\n            sendMoney(_requesterAddress, payable(msg.sender), price);\r\n        } else {\r\n            returnMoney(payable(_requesterAddress), price);\r\n        }\r\n    }\r\n\r\n    function itemSold(string memory _id) internal view returns (bool) {\r\n        return uploads[keccak256(abi.encodePacked(_id))].sold;\r\n    }\r\n\r\n    function hashKeysAndCompare(bytes32 _index, string[] memory _keysFromSeller)\r\n        internal\r\n        view\r\n        returns (bool)\r\n    {\r\n        bytes32[] memory keysFromSample = sampleRequests[_index];\r\n        bool confirm = true;\r\n\r\n        for (uint8 i = 0; i < keysFromSample.length; i++) {\r\n            if (\r\n                keysFromSample[i] != keccak256(abi.encode(_keysFromSeller[i]))\r\n            ) {\r\n                confirm = false;\r\n            }\r\n        }\r\n        return confirm;\r\n    }\r\n\r\n    function sendMoney(\r\n        address from,\r\n        address payable _to,\r\n        uint256 price\r\n    ) internal {\r\n        bytes32 index = keccak256(abi.encodePacked(from));\r\n        require(price <= deposits[index], \"Not enough money sent\");\r\n        uint256 moneyToSent = price;\r\n        deposits[index] -= price;\r\n        _to.transfer(moneyToSent);\r\n\r\n        emit SendMoneyEvent(deposits[index]);\r\n    }\r\n\r\n    function returnMoney(address payable _to, uint256 price) internal {\r\n        bytes32 index = keccak256(abi.encodePacked(_to));\r\n        require(price <= deposits[index], \"Not enough money in deposit\");\r\n        uint256 moneyToSent = price;\r\n        deposits[index] -= price;\r\n        _to.transfer(moneyToSent);\r\n\r\n        emit ReturnMoneyEvent(deposits[keccak256(abi.encodePacked(_to))]);\r\n    }\r\n\r\n    //***********************************Review*********************************//\r\n    function addReview(\r\n        string memory _rated,\r\n        string memory _reviewer,\r\n        uint8 _rating,\r\n        string memory _comments\r\n    ) public registered(_rated) registered(_reviewer) {\r\n        Review memory review =\r\n            Review(_reviewer, _rating, keccak256(abi.encodePacked(_comments)));\r\n        reviews[keccak256(abi.encodePacked(_rated))].push(review);\r\n\r\n        emit ReviewResult(review);\r\n    }\r\n}\r\n",
  "sourcePath": "C:/Users/vaspa/Desktop/Files/dis-project/contracts/DataDappContract.sol",
  "compiler": {
    "name": "solc",
    "version": "0.8.4+commit.c7e474f2.Emscripten.clang"
  },
  "schemaVersion": "3.4.0",
  "updatedAt": "2021-05-25T07:27:40.737Z",
  "networkType": "ethereum",
  "devdoc": {
    "kind": "dev",
    "methods": {},
    "version": 1
  },
  "userdoc": {
    "kind": "user",
    "methods": {},
    "version": 1
  }
}