{
  "contractName": "DataDappContract",
  "abi": [
    {
      "anonymous": false,
      "inputs": [
        {
          "indexed": false,
          "internalType": "bool",
          "name": "_isRegistered",
          "type": "bool"
        }
      ],
      "name": "Check",
      "type": "event"
    },
    {
      "anonymous": false,
      "inputs": [
        {
          "indexed": false,
          "internalType": "address",
          "name": "requester",
          "type": "address"
        }
      ],
      "name": "DepositEvent",
      "type": "event"
    },
    {
      "anonymous": false,
      "inputs": [
        {
          "indexed": false,
          "internalType": "string",
          "name": "_id",
          "type": "string"
        }
      ],
      "name": "Register",
      "type": "event"
    },
    {
      "anonymous": false,
      "inputs": [
        {
          "indexed": false,
          "internalType": "address",
          "name": "requester",
          "type": "address"
        }
      ],
      "name": "ReturnMoneyEvent",
      "type": "event"
    },
    {
      "anonymous": false,
      "inputs": [
        {
          "components": [
            {
              "internalType": "string",
              "name": "reviewer",
              "type": "string"
            },
            {
              "internalType": "uint8",
              "name": "rating",
              "type": "uint8"
            },
            {
              "internalType": "bytes32",
              "name": "comments",
              "type": "bytes32"
            }
          ],
          "indexed": false,
          "internalType": "struct DataDappContract.Review",
          "name": "review",
          "type": "tuple"
        }
      ],
      "name": "ReviewResult",
      "type": "event"
    },
    {
      "anonymous": false,
      "inputs": [
        {
          "indexed": false,
          "internalType": "address",
          "name": "requester",
          "type": "address"
        },
        {
          "indexed": false,
          "internalType": "bytes32",
          "name": "sampleRequestId",
          "type": "bytes32"
        },
        {
          "indexed": false,
          "internalType": "bytes32[]",
          "name": "sampleRequestData",
          "type": "bytes32[]"
        },
        {
          "indexed": false,
          "internalType": "uint256",
          "name": "index",
          "type": "uint256"
        }
      ],
      "name": "SampleRequestResult",
      "type": "event"
    },
    {
      "anonymous": false,
      "inputs": [
        {
          "indexed": false,
          "internalType": "address",
          "name": "requester",
          "type": "address"
        }
      ],
      "name": "SendMoneyEvent",
      "type": "event"
    },
    {
      "anonymous": false,
      "inputs": [
        {
          "components": [
            {
              "internalType": "address",
              "name": "ownerAddress",
              "type": "address"
            },
            {
              "internalType": "bytes32[]",
              "name": "ipfsHashes",
              "type": "bytes32[]"
            }
          ],
          "indexed": false,
          "internalType": "struct DataDappContract.UploadPacket",
          "name": "upload",
          "type": "tuple"
        }
      ],
      "name": "UploadResult",
      "type": "event"
    },
    {
      "inputs": [
        {
          "internalType": "bytes32",
          "name": "",
          "type": "bytes32"
        }
      ],
      "name": "deposits",
      "outputs": [
        {
          "internalType": "uint256",
          "name": "",
          "type": "uint256"
        }
      ],
      "stateMutability": "view",
      "type": "function",
      "constant": true
    },
    {
      "inputs": [
        {
          "internalType": "bytes32",
          "name": "",
          "type": "bytes32"
        }
      ],
      "name": "purchases",
      "outputs": [
        {
          "internalType": "bytes32",
          "name": "packetId",
          "type": "bytes32"
        },
        {
          "internalType": "address",
          "name": "requesterAddress",
          "type": "address"
        }
      ],
      "stateMutability": "view",
      "type": "function",
      "constant": true
    },
    {
      "inputs": [
        {
          "internalType": "string",
          "name": "_id",
          "type": "string"
        }
      ],
      "name": "registerUser",
      "outputs": [],
      "stateMutability": "nonpayable",
      "type": "function"
    },
    {
      "inputs": [
        {
          "internalType": "bytes32",
          "name": "",
          "type": "bytes32"
        }
      ],
      "name": "registeredUsers",
      "outputs": [
        {
          "internalType": "bool",
          "name": "",
          "type": "bool"
        }
      ],
      "stateMutability": "view",
      "type": "function",
      "constant": true
    },
    {
      "inputs": [
        {
          "internalType": "bytes32",
          "name": "",
          "type": "bytes32"
        },
        {
          "internalType": "uint256",
          "name": "",
          "type": "uint256"
        }
      ],
      "name": "reviews",
      "outputs": [
        {
          "internalType": "string",
          "name": "reviewer",
          "type": "string"
        },
        {
          "internalType": "uint8",
          "name": "rating",
          "type": "uint8"
        },
        {
          "internalType": "bytes32",
          "name": "comments",
          "type": "bytes32"
        }
      ],
      "stateMutability": "view",
      "type": "function",
      "constant": true
    },
    {
      "inputs": [
        {
          "internalType": "bytes32",
          "name": "",
          "type": "bytes32"
        },
        {
          "internalType": "uint256",
          "name": "",
          "type": "uint256"
        }
      ],
      "name": "sampleRequests",
      "outputs": [
        {
          "internalType": "bytes32",
          "name": "",
          "type": "bytes32"
        }
      ],
      "stateMutability": "view",
      "type": "function",
      "constant": true
    },
    {
      "inputs": [
        {
          "internalType": "bytes32",
          "name": "",
          "type": "bytes32"
        }
      ],
      "name": "uploads",
      "outputs": [
        {
          "internalType": "address",
          "name": "ownerAddress",
          "type": "address"
        }
      ],
      "stateMutability": "view",
      "type": "function",
      "constant": true
    },
    {
      "stateMutability": "payable",
      "type": "receive",
      "payable": true
    },
    {
      "inputs": [
        {
          "internalType": "string",
          "name": "_userId",
          "type": "string"
        },
        {
          "internalType": "string",
          "name": "_packetId",
          "type": "string"
        },
        {
          "internalType": "string[]",
          "name": "_ipfsHashes",
          "type": "string[]"
        }
      ],
      "name": "addUpload",
      "outputs": [],
      "stateMutability": "nonpayable",
      "type": "function"
    },
    {
      "inputs": [
        {
          "internalType": "string",
          "name": "_requesterId",
          "type": "string"
        },
        {
          "internalType": "string",
          "name": "_packetId",
          "type": "string"
        },
        {
          "internalType": "string[]",
          "name": "_keys",
          "type": "string[]"
        }
      ],
      "name": "addSampleRequest",
      "outputs": [],
      "stateMutability": "nonpayable",
      "type": "function"
    },
    {
      "inputs": [
        {
          "internalType": "string",
          "name": "_ownerId",
          "type": "string"
        },
        {
          "internalType": "string",
          "name": "_packetId",
          "type": "string"
        },
        {
          "internalType": "address",
          "name": "_requesterAddress",
          "type": "address"
        },
        {
          "internalType": "string[]",
          "name": "_keys",
          "type": "string[]"
        },
        {
          "internalType": "uint256",
          "name": "price",
          "type": "uint256"
        },
        {
          "internalType": "bool",
          "name": "_approve",
          "type": "bool"
        }
      ],
      "name": "addPurchase",
      "outputs": [],
      "stateMutability": "nonpayable",
      "type": "function"
    },
    {
      "inputs": [
        {
          "internalType": "string",
          "name": "_requesterId",
          "type": "string"
        },
        {
          "internalType": "string",
          "name": "_packetId",
          "type": "string"
        }
      ],
      "name": "getPurchaseKeys",
      "outputs": [
        {
          "internalType": "string[]",
          "name": "",
          "type": "string[]"
        }
      ],
      "stateMutability": "view",
      "type": "function",
      "constant": true
    },
    {
      "inputs": [
        {
          "internalType": "string",
          "name": "_rated",
          "type": "string"
        },
        {
          "internalType": "string",
          "name": "_reviewer",
          "type": "string"
        },
        {
          "internalType": "uint8",
          "name": "_rating",
          "type": "uint8"
        },
        {
          "internalType": "string",
          "name": "_comments",
          "type": "string"
        }
      ],
      "name": "addReview",
      "outputs": [],
      "stateMutability": "nonpayable",
      "type": "function"
    },
    {
      "inputs": [
        {
          "internalType": "string",
          "name": "_id",
          "type": "string"
        }
      ],
      "name": "getRegisterUsers",
      "outputs": [],
      "stateMutability": "nonpayable",
      "type": "function"
    }
  ],
  "bytecode": "0x608060405234801561001057600080fd5b506127ca806100206000396000f3fe6080604052600436106100c65760003560e01c80636bf22a4b1161007f57806397b130bf1161005957806397b130bf146103375780639b5c93cd14610374578063c0302cdd1461039d578063d68557ae146103c65761015a565b80636bf22a4b146102a7578063704f1b94146102d05780637ab8dbe9146102f95761015a565b80631e5d30761461015f578063366c6ea4146101885780633d4dff7b146101c7578063414f5a0f1461020457806349ea4e641461022d57806367c8753b1461026a5761015a565b3661015a576000336040516020016100de9190611e6d565b604051602081830303815290604052805190602001209050346005600083815260200190815260200160002060008282546101199190612294565b925050819055507f542bc46a4bcbeca72d54cd937a4d9a2de5ea98e96bc562429a07930274b451d73360405161014f9190611f30565b60405180910390a150005b600080fd5b34801561016b57600080fd5b50610186600480360381019061018191906119e6565b610403565b005b34801561019457600080fd5b506101af60048036038101906101aa9190611795565b610652565b6040516101be93929190612055565b60405180910390f35b3480156101d357600080fd5b506101ee60048036038101906101e9919061176c565b61072e565b6040516101fb9190612137565b60405180910390f35b34801561021057600080fd5b5061022b6004803603810190610226919061187e565b610746565b005b34801561023957600080fd5b50610254600480360381019061024f9190611812565b610987565b6040516102619190611fb2565b60405180910390f35b34801561027657600080fd5b50610291600480360381019061028c9190611795565b610b33565b60405161029e9190611fef565b60405180910390f35b3480156102b357600080fd5b506102ce60048036038101906102c991906117d1565b610b64565b005b3480156102dc57600080fd5b506102f760048036038101906102f291906117d1565b610be3565b005b34801561030557600080fd5b50610320600480360381019061031b919061176c565b610c6e565b60405161032e92919061200a565b60405180910390f35b34801561034357600080fd5b5061035e6004803603810190610359919061176c565b610cb2565b60405161036b9190611f30565b60405180910390f35b34801561038057600080fd5b5061039b6004803603810190610396919061194f565b610cf0565b005b3480156103a957600080fd5b506103c460048036038101906103bf919061194f565b610ee4565b005b3480156103d257600080fd5b506103ed60048036038101906103e8919061176c565b61110a565b6040516103fa9190611fd4565b60405180910390f35b83600115156000808360405160200161041c9190611ea3565b60405160208183030381529060405280519060200120815260200190815260200160002060009054906101000a900460ff16151514610490576040517f08c379a0000000000000000000000000000000000000000000000000000000008152600401610487906120d3565b60405180910390fd5b8360011515600080836040516020016104a99190611ea3565b60405160208183030381529060405280519060200120815260200190815260200160002060009054906101000a900460ff1615151461051d576040517f08c379a0000000000000000000000000000000000000000000000000000000008152600401610514906120d3565b60405180910390fd5b600060405180606001604052808781526020018660ff1681526020018560405160200161054a9190611ea3565b604051602081830303815290604052805190602001208152509050600660008860405160200161057a9190611ea3565b60405160208183030381529060405280519060200120815260200190815260200160002081908060018154018082558091505060019003906000526020600020906003020160009091909190915060008201518160000190805190602001906105e4929190611548565b5060208201518160010160006101000a81548160ff021916908360ff1602179055506040820151816002015550507f52b7a5046109bc575df27b04dadaac96f00086418a53ae85d90679f2c275a28f8160405161064191906120f3565b60405180910390a150505050505050565b6006602052816000526040600020818154811061066e57600080fd5b90600052602060002090600302016000915091505080600001805461069290612431565b80601f01602080910402602001604051908101604052809291908181526020018280546106be90612431565b801561070b5780601f106106e05761010080835404028352916020019161070b565b820191906000526020600020905b8154815290600101906020018083116106ee57829003601f168201915b5050505050908060010160009054906101000a900460ff16908060020154905083565b60056020528060005260406000206000915090505481565b85600115156000808360405160200161075f9190611ea3565b60405160208183030381529060405280519060200120815260200190815260200160002060009054906101000a900460ff161515146107d3576040517f08c379a00000000000000000000000000000000000000000000000000000000081526004016107ca906120d3565b60405180910390fd5b6000856040516020016107e69190611e6d565b6040516020818303038152906040528051906020012090508280156108115750610810818661112a565b5b1561097257866040516020016108279190611ea3565b604051602081830303815290604052805190602001206004600083815260200190815260200160002060000181905550856004600083815260200190815260200160002060010160006101000a81548173ffffffffffffffffffffffffffffffffffffffff021916908373ffffffffffffffffffffffffffffffffffffffff16021790555060005b85518160ff1610156109615760046000838152602001908152602001600020600201868260ff168151811061090d577f4e487b7100000000000000000000000000000000000000000000000000000000600052603260045260246000fd5b602002602001015190806001815401808255809150506001900390600052602060002001600090919091909150908051906020019061094d929190611548565b50808061095990612511565b9150506108af565b5061096d86338661127d565b61097d565b61097c86856113b2565b5b5050505050505050565b60608260011515600080836040516020016109a29190611ea3565b60405160208183030381529060405280519060200120815260200190815260200160002060009054906101000a900460ff16151514610a16576040517f08c379a0000000000000000000000000000000000000000000000000000000008152600401610a0d906120d3565b60405180910390fd5b60008333604051602001610a2b929190611eba565b60405160208183030381529060405280519060200120905060046000828152602001908152602001600020600201805480602002602001604051908101604052809291908181526020016000905b82821015610b25578382906000526020600020018054610a9890612431565b80601f0160208091040260200160405190810160405280929190818152602001828054610ac490612431565b8015610b115780601f10610ae657610100808354040283529160200191610b11565b820191906000526020600020905b815481529060010190602001808311610af457829003601f168201915b505050505081526020019060010190610a79565b505050509250505092915050565b60026020528160005260406000208181548110610b4f57600080fd5b90600052602060002001600091509150505481565b7f0f806f3a69aebe25b6129d19609333999fb4d2aed709217d19e0465d3bf3e72e60008083604051602001610b999190611ea3565b60405160208183030381529060405280519060200120815260200190815260200160002060009054906101000a900460ff16604051610bd89190611fd4565b60405180910390a150565b600160008083604051602001610bf99190611ea3565b60405160208183030381529060405280519060200120815260200190815260200160002060006101000a81548160ff0219169083151502179055507f40b2d3af7e7a908ab771e3b293d2df299bb187d4ac2dcb3dbc2455fdcf5c15dd81604051610c639190612033565b60405180910390a150565b60046020528060005260406000206000915090508060000154908060010160009054906101000a900473ffffffffffffffffffffffffffffffffffffffff16905082565b60016020528060005260406000206000915090508060000160009054906101000a900473ffffffffffffffffffffffffffffffffffffffff16905081565b826001151560008083604051602001610d099190611ea3565b60405160208183030381529060405280519060200120815260200190815260200160002060009054906101000a900460ff16151514610d7d576040517f08c379a0000000000000000000000000000000000000000000000000000000008152600401610d74906120d3565b60405180910390fd5b60008333604051602001610d92929190611eba565b60405160208183030381529060405280519060200120905060005b83518160ff161015610e6f5760026000838152602001908152602001600020848260ff1681518110610e08577f4e487b7100000000000000000000000000000000000000000000000000000000600052603260045260246000fd5b6020026020010151604051602001610e209190611ea3565b6040516020818303038152906040528051906020012090806001815401808255809150506001900390600052602060002001600090919091909150558080610e6790612511565b915050610dad565b507f1779732a1981f451c7bd4f37f56dd5219537791684328746366e95b09f7693be338260026000858152602001908152602001600020610ec560026000878152602001908152602001600020805490506114e5565b604051610ed59493929190611f66565b60405180910390a15050505050565b826001151560008083604051602001610efd9190611ea3565b60405160208183030381529060405280519060200120815260200190815260200160002060009054906101000a900460ff16151514610f71576040517f08c379a0000000000000000000000000000000000000000000000000000000008152600401610f68906120d3565b60405180910390fd5b600083604051602001610f849190611ea3565b604051602081830303815290604052805190602001209050336001600083815260200190815260200160002060000160006101000a81548173ffffffffffffffffffffffffffffffffffffffff021916908373ffffffffffffffffffffffffffffffffffffffff16021790555060005b83518160ff1610156110b95760016000838152602001908152602001600020600101848260ff1681518110611052577f4e487b7100000000000000000000000000000000000000000000000000000000600052603260045260246000fd5b602002602001015160405160200161106a9190611ea3565b60405160208183030381529060405280519060200120908060018154018082558091505060019003906000526020600020016000909190919091505580806110b190612511565b915050610ff4565b507fc59c4d1cd4ae4f11cae4ccbb4e183300a420933d7f279b19394c9005352c4f85600160008381526020019081526020016000206040516110fb9190612115565b60405180910390a15050505050565b60006020528060005260406000206000915054906101000a900460ff1681565b6000806002600085815260200190815260200160002080548060200260200160405190810160405280929190818152602001828054801561118a57602002820191906000526020600020905b815481526020019060010190808311611176575b5050505050905060006001905060005b82518160ff16101561127157848160ff16815181106111e2577f4e487b7100000000000000000000000000000000000000000000000000000000600052603260045260246000fd5b60200260200101516040516020016111fa9190611ea3565b60405160208183030381529060405280519060200120838260ff168151811061124c577f4e487b7100000000000000000000000000000000000000000000000000000000600052603260045260246000fd5b60200260200101511461125e57600091505b808061126990612511565b91505061119a565b50809250505092915050565b6000836040516020016112909190611e6d565b60405160208183030381529060405280519060200120905060056000828152602001908152602001600020548211156112fe576040517f08c379a00000000000000000000000000000000000000000000000000000000081526004016112f590612093565b60405180910390fd5b60008290508260056000848152602001908152602001600020600082825461132691906122ea565b925050819055508373ffffffffffffffffffffffffffffffffffffffff166108fc829081150290604051600060405180830381858888f19350505050158015611373573d6000803e3d6000fd5b507ff78d9b9160162a84408a458af99dc12d3125949b20e55ea678f03d3b39514d1e846040516113a39190611f4b565b60405180910390a15050505050565b6000826040516020016113c59190611e88565b6040516020818303038152906040528051906020012090506005600082815260200190815260200160002054821115611433576040517f08c379a000000000000000000000000000000000000000000000000000000000815260040161142a906120b3565b60405180910390fd5b60008290508260056000848152602001908152602001600020600082825461145b91906122ea565b925050819055508373ffffffffffffffffffffffffffffffffffffffff166108fc829081150290604051600060405180830381858888f193505050501580156114a8573d6000803e3d6000fd5b507e111e66581bd1e7becef013b6063b87c8c911c45d23207796d07e4903ae0742846040516114d79190611f4b565b60405180910390a150505050565b600080826003544244336040516020016115029493929190611ee2565b6040516020818303038152906040528051906020012060001c611525919061257b565b90506003600081548092919061153a906124c8565b919050555080915050919050565b82805461155490612431565b90600052602060002090601f01602090048101928261157657600085556115bd565b82601f1061158f57805160ff19168380011785556115bd565b828001600101855582156115bd579182015b828111156115bc5782518255916020019190600101906115a1565b5b5090506115ca91906115ce565b5090565b5b808211156115e75760008160009055506001016115cf565b5090565b60006115fe6115f984612177565b612152565b9050808382526020820190508285602086028201111561161d57600080fd5b60005b8581101561166757813567ffffffffffffffff81111561163f57600080fd5b80860161164c8982611718565b85526020850194506020840193505050600181019050611620565b5050509392505050565b600061168461167f846121a3565b612152565b90508281526020810184848401111561169c57600080fd5b6116a78482856123ef565b509392505050565b6000813590506116be81612721565b92915050565b600082601f8301126116d557600080fd5b81356116e58482602086016115eb565b91505092915050565b6000813590506116fd81612738565b92915050565b6000813590506117128161274f565b92915050565b600082601f83011261172957600080fd5b8135611739848260208601611671565b91505092915050565b60008135905061175181612766565b92915050565b6000813590506117668161277d565b92915050565b60006020828403121561177e57600080fd5b600061178c84828501611703565b91505092915050565b600080604083850312156117a857600080fd5b60006117b685828601611703565b92505060206117c785828601611742565b9150509250929050565b6000602082840312156117e357600080fd5b600082013567ffffffffffffffff8111156117fd57600080fd5b61180984828501611718565b91505092915050565b6000806040838503121561182557600080fd5b600083013567ffffffffffffffff81111561183f57600080fd5b61184b85828601611718565b925050602083013567ffffffffffffffff81111561186857600080fd5b61187485828601611718565b9150509250929050565b60008060008060008060c0878903121561189757600080fd5b600087013567ffffffffffffffff8111156118b157600080fd5b6118bd89828a01611718565b965050602087013567ffffffffffffffff8111156118da57600080fd5b6118e689828a01611718565b95505060406118f789828a016116af565b945050606087013567ffffffffffffffff81111561191457600080fd5b61192089828a016116c4565b935050608061193189828a01611742565b92505060a061194289828a016116ee565b9150509295509295509295565b60008060006060848603121561196457600080fd5b600084013567ffffffffffffffff81111561197e57600080fd5b61198a86828701611718565b935050602084013567ffffffffffffffff8111156119a757600080fd5b6119b386828701611718565b925050604084013567ffffffffffffffff8111156119d057600080fd5b6119dc868287016116c4565b9150509250925092565b600080600080608085870312156119fc57600080fd5b600085013567ffffffffffffffff811115611a1657600080fd5b611a2287828801611718565b945050602085013567ffffffffffffffff811115611a3f57600080fd5b611a4b87828801611718565b9350506040611a5c87828801611757565b925050606085013567ffffffffffffffff811115611a7957600080fd5b611a8587828801611718565b91505092959194509250565b6000611a9d8383611c66565b60208301905092915050565b6000611ab58383611c84565b905092915050565b611ac6816123b9565b82525050565b611add611ad88261235a565b61254d565b82525050565b611aec81612348565b82525050565b611afb81612348565b82525050565b611b12611b0d82612348565b61253b565b82525050565b6000611b23826121f9565b611b2d8185612234565b9350611b38836121d4565b8060005b83811015611b7057611b4d82612668565b611b578882611a91565b9750611b628361221a565b925050600181019050611b3c565b5085935050505092915050565b6000611b88826121f9565b611b928185612245565b9350611b9d836121d4565b8060005b83811015611bd557611bb282612668565b611bbc8882611a91565b9750611bc78361221a565b925050600181019050611ba1565b5085935050505092915050565b6000611bed82612204565b611bf78185612256565b935083602082028501611c09856121e9565b8060005b85811015611c455784840389528151611c268582611aa9565b9450611c3183612227565b925060208a01995050600181019050611c0d565b50829750879550505050505092915050565b611c608161236c565b82525050565b611c6f81612378565b82525050565b611c7e81612378565b82525050565b6000611c8f8261220f565b611c998185612267565b9350611ca98185602086016123fe565b611cb28161267b565b840191505092915050565b6000611cc88261220f565b611cd28185612278565b9350611ce28185602086016123fe565b611ceb8161267b565b840191505092915050565b6000611d018261220f565b611d0b8185612289565b9350611d1b8185602086016123fe565b80840191505092915050565b6000611d34601583612278565b9150611d3f826126a6565b602082019050919050565b6000611d57601b83612278565b9150611d62826126cf565b602082019050919050565b6000611d7a601683612278565b9150611d85826126f8565b602082019050919050565b60006060830160008301518482036000860152611dad8282611c84565b9150506020830151611dc26020860182611e4f565b506040830151611dd56040860182611c66565b508091505092915050565b6000604083016000808401549050611df781612463565b611e046000870182611ae3565b50600184018583036020870152611e1b8382611b18565b925050819250505092915050565b611e32816123a2565b82525050565b611e49611e44826123a2565b612571565b82525050565b611e58816123ac565b82525050565b611e67816123ac565b82525050565b6000611e798284611b01565b60148201915081905092915050565b6000611e948284611acc565b60148201915081905092915050565b6000611eaf8284611cf6565b915081905092915050565b6000611ec68285611cf6565b9150611ed28284611b01565b6014820191508190509392505050565b6000611eee8287611e38565b602082019150611efe8286611e38565b602082019150611f0e8285611e38565b602082019150611f1e8284611b01565b60148201915081905095945050505050565b6000602082019050611f456000830184611af2565b92915050565b6000602082019050611f606000830184611abd565b92915050565b6000608082019050611f7b6000830187611af2565b611f886020830186611c75565b8181036040830152611f9a8185611b7d565b9050611fa96060830184611e29565b95945050505050565b60006020820190508181036000830152611fcc8184611be2565b905092915050565b6000602082019050611fe96000830184611c57565b92915050565b60006020820190506120046000830184611c75565b92915050565b600060408201905061201f6000830185611c75565b61202c6020830184611af2565b9392505050565b6000602082019050818103600083015261204d8184611cbd565b905092915050565b6000606082019050818103600083015261206f8186611cbd565b905061207e6020830185611e5e565b61208b6040830184611c75565b949350505050565b600060208201905081810360008301526120ac81611d27565b9050919050565b600060208201905081810360008301526120cc81611d4a565b9050919050565b600060208201905081810360008301526120ec81611d6d565b9050919050565b6000602082019050818103600083015261210d8184611d90565b905092915050565b6000602082019050818103600083015261212f8184611de0565b905092915050565b600060208201905061214c6000830184611e29565b92915050565b600061215c61216d565b90506121688282612497565b919050565b6000604051905090565b600067ffffffffffffffff82111561219257612191612639565b5b602082029050602081019050919050565b600067ffffffffffffffff8211156121be576121bd612639565b5b6121c78261267b565b9050602081019050919050565b60008190508160005260206000209050919050565b6000819050602082019050919050565b600081549050919050565b600081519050919050565b600081519050919050565b6000600182019050919050565b6000602082019050919050565b600082825260208201905092915050565b600082825260208201905092915050565b600082825260208201905092915050565b600082825260208201905092915050565b600082825260208201905092915050565b600081905092915050565b600061229f826123a2565b91506122aa836123a2565b9250827fffffffffffffffffffffffffffffffffffffffffffffffffffffffffffffffff038211156122df576122de6125ac565b5b828201905092915050565b60006122f5826123a2565b9150612300836123a2565b925082821015612313576123126125ac565b5b828203905092915050565b600073ffffffffffffffffffffffffffffffffffffffff82169050919050565b6000819050919050565b600061235382612382565b9050919050565b600061236582612382565b9050919050565b60008115159050919050565b6000819050919050565b600073ffffffffffffffffffffffffffffffffffffffff82169050919050565b6000819050919050565b600060ff82169050919050565b60006123c4826123cb565b9050919050565b60006123d6826123dd565b9050919050565b60006123e882612382565b9050919050565b82818337600083830152505050565b60005b8381101561241c578082015181840152602081019050612401565b8381111561242b576000848401525b50505050565b6000600282049050600182168061244957607f821691505b6020821081141561245d5761245c61260a565b5b50919050565b600061247661247183612699565b61231e565b9050919050565b600061249061248b83612699565b61233e565b9050919050565b6124a08261267b565b810181811067ffffffffffffffff821117156124bf576124be612639565b5b80604052505050565b60006124d3826123a2565b91507fffffffffffffffffffffffffffffffffffffffffffffffffffffffffffffffff821415612506576125056125ac565b5b600182019050919050565b600061251c826123ac565b915060ff8214156125305761252f6125ac565b5b600182019050919050565b60006125468261255f565b9050919050565b60006125588261255f565b9050919050565b600061256a8261268c565b9050919050565b6000819050919050565b6000612586826123a2565b9150612591836123a2565b9250826125a1576125a06125db565b5b828206905092915050565b7f4e487b7100000000000000000000000000000000000000000000000000000000600052601160045260246000fd5b7f4e487b7100000000000000000000000000000000000000000000000000000000600052601260045260246000fd5b7f4e487b7100000000000000000000000000000000000000000000000000000000600052602260045260246000fd5b7f4e487b7100000000000000000000000000000000000000000000000000000000600052604160045260246000fd5b6000612674825461247d565b9050919050565b6000601f19601f8301169050919050565b60008160601b9050919050565b60008160001c9050919050565b7f4e6f7420656e6f756768206d6f6e65792073656e740000000000000000000000600082015250565b7f4e6f7420656e6f756768206d6f6e657920696e206465706f7369740000000000600082015250565b7f55736572206973206e6f74207265676973746572656400000000000000000000600082015250565b61272a81612348565b811461273557600080fd5b50565b6127418161236c565b811461274c57600080fd5b50565b61275881612378565b811461276357600080fd5b50565b61276f816123a2565b811461277a57600080fd5b50565b612786816123ac565b811461279157600080fd5b5056fea26469706673582212206a5c6acaf527de8afba8a4a165fbd2f2b2b6ad689dbee20120c263e799734e2e64736f6c63430008040033",
  "immutableReferences": {},
  "source": "//\"SPDX-License-Identifier: UNLICENSED\"\r\npragma solidity 0.8.4;\r\n\r\nimport \"./Registry.sol\";\r\n\r\ncontract DataDappContract is Registry {\r\n    //***********************************Structs********************************//\r\n    struct UploadPacket {\r\n        address ownerAddress;\r\n        bytes32[] ipfsHashes;\r\n    }\r\n\r\n    struct Purchase {\r\n        bytes32 packetId;\r\n        address requesterAddress;\r\n        string[] keys;\r\n    }\r\n\r\n    struct Review {\r\n        string reviewer;\r\n        uint8 rating;\r\n        bytes32 comments;\r\n    }\r\n\r\n    //**********************************Mappings*******************************//\r\n    mapping(bytes32 => UploadPacket) public uploads;\r\n    mapping(bytes32 => bytes32[]) public sampleRequests;\r\n    uint256 nonce;\r\n    mapping(bytes32 => Purchase) public purchases;\r\n    mapping(bytes32 => uint256) public deposits;\r\n    mapping(bytes32 => Review[]) public reviews;\r\n\r\n    //***********************************Events********************************//\r\n    event UploadResult(UploadPacket upload);\r\n    event SampleRequestResult(\r\n        address requester,\r\n        bytes32 sampleRequestId,\r\n        bytes32[] sampleRequestData,\r\n        uint256 index\r\n    );\r\n    event DepositEvent(address requester);\r\n    event SendMoneyEvent(address requester);\r\n    event ReturnMoneyEvent(address requester);\r\n    event ReviewResult(Review review);\r\n\r\n    //*********************************Functions*******************************//\r\n    receive() external payable {\r\n        bytes32 index = keccak256(abi.encodePacked(msg.sender));\r\n        deposits[index] += msg.value;\r\n        emit DepositEvent(msg.sender);\r\n    }\r\n\r\n    //***********************************Upload********************************//\r\n    function addUpload(\r\n        string memory _userId,\r\n        string memory _packetId,\r\n        string[] memory _ipfsHashes\r\n    ) public registered(_userId) {\r\n        bytes32 index = keccak256(abi.encodePacked(_packetId));\r\n        uploads[index].ownerAddress = msg.sender;\r\n\r\n        for (uint8 i = 0; i < _ipfsHashes.length; i++) {\r\n            uploads[index].ipfsHashes.push(\r\n                keccak256(abi.encodePacked(_ipfsHashes[i]))\r\n            );\r\n        }\r\n\r\n        emit UploadResult(uploads[index]);\r\n    }\r\n\r\n    //***********************************Sample********************************//\r\n    function addSampleRequest(\r\n        string memory _requesterId,\r\n        string memory _packetId,\r\n        string[] memory _keys\r\n    ) public registered(_requesterId) {\r\n        bytes32 index = keccak256(abi.encodePacked(_packetId, msg.sender));\r\n        for (uint8 i = 0; i < _keys.length; i++) {\r\n            sampleRequests[index].push(keccak256(abi.encodePacked(_keys[i])));\r\n        }\r\n        emit SampleRequestResult(\r\n            msg.sender,\r\n            index,\r\n            sampleRequests[index],\r\n            getRandomKeyIndex(sampleRequests[index].length)\r\n        );\r\n    }\r\n\r\n    function getRandomKeyIndex(uint256 mod) internal returns (uint256) {\r\n        uint256 rand =\r\n            uint256(\r\n                keccak256(\r\n                    abi.encodePacked(\r\n                        nonce,\r\n                        block.timestamp,\r\n                        block.difficulty,\r\n                        msg.sender\r\n                    )\r\n                )\r\n            ) % mod;\r\n        nonce++;\r\n        return rand;\r\n    }\r\n\r\n    //**********************************Purchase*******************************//\r\n    function addPurchase(\r\n        string memory _ownerId,\r\n        string memory _packetId,\r\n        address _requesterAddress,\r\n        string[] memory _keys,\r\n        uint256 price,\r\n        bool _approve\r\n    ) public registered(_ownerId) {\r\n        bytes32 index = keccak256(abi.encodePacked(_requesterAddress));\r\n\r\n        if (_approve && hashKeysAndCompare(index, _keys)) {\r\n            purchases[index].packetId = keccak256(abi.encodePacked(_packetId));\r\n            purchases[index].requesterAddress = _requesterAddress;\r\n\r\n            for (uint8 i = 0; i < _keys.length; i++) {\r\n                purchases[index].keys.push(_keys[i]);\r\n            }\r\n            sendMoney(_requesterAddress, payable(msg.sender), price);\r\n        } else {\r\n            returnMoney(payable(_requesterAddress), price);\r\n        }\r\n    }\r\n\r\n    function hashKeysAndCompare(bytes32 _index, string[] memory _keysFromSeller)\r\n        internal\r\n        view\r\n        returns (bool)\r\n    {\r\n        bytes32[] memory keysFromSample = sampleRequests[_index];\r\n        bool confirm = true;\r\n\r\n        for (uint8 i = 0; i < keysFromSample.length; i++) {\r\n            if (\r\n                keysFromSample[i] !=\r\n                keccak256(abi.encodePacked(_keysFromSeller[i]))\r\n            ) {\r\n                confirm = false;\r\n            }\r\n        }\r\n        return confirm;\r\n    }\r\n\r\n    function sendMoney(\r\n        address from,\r\n        address payable _to,\r\n        uint256 price\r\n    ) internal {\r\n        bytes32 index = keccak256(abi.encodePacked(from));\r\n        require(price <= deposits[index], \"Not enough money sent\");\r\n        uint256 moneyToSent = price;\r\n        deposits[index] -= price;\r\n        _to.transfer(moneyToSent);\r\n\r\n        emit SendMoneyEvent(_to);\r\n    }\r\n\r\n    function returnMoney(address payable _to, uint256 price) internal {\r\n        bytes32 index = keccak256(abi.encodePacked(_to));\r\n        require(price <= deposits[index], \"Not enough money in deposit\");\r\n        uint256 moneyToSent = price;\r\n        deposits[index] -= price;\r\n        _to.transfer(moneyToSent);\r\n\r\n        emit ReturnMoneyEvent(_to);\r\n    }\r\n\r\n    function getPurchaseKeys(\r\n        string memory _requesterId,\r\n        string memory _packetId\r\n    ) public view registered(_requesterId) returns (string[] memory) {\r\n        bytes32 index = keccak256(abi.encodePacked(_packetId, msg.sender));\r\n        return purchases[index].keys;\r\n    }\r\n\r\n    //***********************************Review*********************************//\r\n    function addReview(\r\n        string memory _rated,\r\n        string memory _reviewer,\r\n        uint8 _rating,\r\n        string memory _comments\r\n    ) public registered(_rated) registered(_reviewer) {\r\n        Review memory review =\r\n            Review(_reviewer, _rating, keccak256(abi.encodePacked(_comments)));\r\n        reviews[keccak256(abi.encodePacked(_rated))].push(review);\r\n\r\n        emit ReviewResult(review);\r\n    }\r\n\r\n    //***********************************Testing*********************************//\r\n    event Check(bool _isRegistered);\r\n\r\n    function getRegisterUsers(string memory _id) public {\r\n        emit Check(registeredUsers[keccak256(abi.encodePacked(_id))]);\r\n    }\r\n}\r\n",
  "sourcePath": "C:/Users/vaspa/Desktop/Files/dis-project/contracts/DataDappContract.sol",
  "compiler": {
    "name": "solc",
    "version": "0.8.4+commit.c7e474f2.Emscripten.clang"
  },
  "schemaVersion": "3.4.0",
  "updatedAt": "2021-05-09T14:49:53.316Z",
  "networkType": "ethereum",
  "devdoc": {
    "kind": "dev",
    "methods": {},
    "version": 1
  },
  "userdoc": {
    "kind": "user",
    "methods": {},
    "version": 1
  }
}