{
  "contractName": "DataDappContract",
  "abi": [
    {
      "anonymous": false,
      "inputs": [
        {
          "indexed": false,
          "internalType": "bool",
          "name": "_isRegistered",
          "type": "bool"
        }
      ],
      "name": "Check",
      "type": "event"
    },
    {
      "anonymous": false,
      "inputs": [
        {
          "indexed": false,
          "internalType": "address",
          "name": "requester",
          "type": "address"
        }
      ],
      "name": "DepositEvent",
      "type": "event"
    },
    {
      "anonymous": false,
      "inputs": [
        {
          "indexed": false,
          "internalType": "string",
          "name": "_id",
          "type": "string"
        }
      ],
      "name": "Register",
      "type": "event"
    },
    {
      "anonymous": false,
      "inputs": [
        {
          "indexed": false,
          "internalType": "address",
          "name": "requester",
          "type": "address"
        }
      ],
      "name": "ReturnMoneyEvent",
      "type": "event"
    },
    {
      "anonymous": false,
      "inputs": [
        {
          "components": [
            {
              "internalType": "string",
              "name": "reviewer",
              "type": "string"
            },
            {
              "internalType": "uint8",
              "name": "rating",
              "type": "uint8"
            },
            {
              "internalType": "bytes32",
              "name": "comments",
              "type": "bytes32"
            }
          ],
          "indexed": false,
          "internalType": "struct DataDappContract.Review",
          "name": "review",
          "type": "tuple"
        }
      ],
      "name": "ReviewResult",
      "type": "event"
    },
    {
      "anonymous": false,
      "inputs": [
        {
          "indexed": false,
          "internalType": "address",
          "name": "requester",
          "type": "address"
        },
        {
          "indexed": false,
          "internalType": "uint256",
          "name": "index",
          "type": "uint256"
        }
      ],
      "name": "SampleRequestResult",
      "type": "event"
    },
    {
      "anonymous": false,
      "inputs": [
        {
          "indexed": false,
          "internalType": "address",
          "name": "requester",
          "type": "address"
        }
      ],
      "name": "SendMoneyEvent",
      "type": "event"
    },
    {
      "anonymous": false,
      "inputs": [
        {
          "components": [
            {
              "internalType": "address",
              "name": "ownerAddress",
              "type": "address"
            },
            {
              "internalType": "bytes32[]",
              "name": "ipfsHashes",
              "type": "bytes32[]"
            },
            {
              "internalType": "bool",
              "name": "sold",
              "type": "bool"
            }
          ],
          "indexed": false,
          "internalType": "struct DataDappContract.UploadPacket",
          "name": "upload",
          "type": "tuple"
        }
      ],
      "name": "UploadResult",
      "type": "event"
    },
    {
      "inputs": [
        {
          "internalType": "bytes32",
          "name": "",
          "type": "bytes32"
        }
      ],
      "name": "deposits",
      "outputs": [
        {
          "internalType": "uint256",
          "name": "",
          "type": "uint256"
        }
      ],
      "stateMutability": "view",
      "type": "function",
      "constant": true
    },
    {
      "inputs": [
        {
          "internalType": "bytes32",
          "name": "",
          "type": "bytes32"
        }
      ],
      "name": "purchases",
      "outputs": [
        {
          "internalType": "bytes32",
          "name": "packetId",
          "type": "bytes32"
        },
        {
          "internalType": "address",
          "name": "requesterAddress",
          "type": "address"
        }
      ],
      "stateMutability": "view",
      "type": "function",
      "constant": true
    },
    {
      "inputs": [
        {
          "internalType": "string",
          "name": "_id",
          "type": "string"
        }
      ],
      "name": "registerUser",
      "outputs": [],
      "stateMutability": "nonpayable",
      "type": "function"
    },
    {
      "inputs": [
        {
          "internalType": "bytes32",
          "name": "",
          "type": "bytes32"
        }
      ],
      "name": "registeredUsers",
      "outputs": [
        {
          "internalType": "bool",
          "name": "",
          "type": "bool"
        }
      ],
      "stateMutability": "view",
      "type": "function",
      "constant": true
    },
    {
      "inputs": [
        {
          "internalType": "bytes32",
          "name": "",
          "type": "bytes32"
        },
        {
          "internalType": "uint256",
          "name": "",
          "type": "uint256"
        }
      ],
      "name": "reviews",
      "outputs": [
        {
          "internalType": "string",
          "name": "reviewer",
          "type": "string"
        },
        {
          "internalType": "uint8",
          "name": "rating",
          "type": "uint8"
        },
        {
          "internalType": "bytes32",
          "name": "comments",
          "type": "bytes32"
        }
      ],
      "stateMutability": "view",
      "type": "function",
      "constant": true
    },
    {
      "inputs": [
        {
          "internalType": "bytes32",
          "name": "",
          "type": "bytes32"
        },
        {
          "internalType": "uint256",
          "name": "",
          "type": "uint256"
        }
      ],
      "name": "sampleRequests",
      "outputs": [
        {
          "internalType": "bytes32",
          "name": "",
          "type": "bytes32"
        }
      ],
      "stateMutability": "view",
      "type": "function",
      "constant": true
    },
    {
      "inputs": [
        {
          "internalType": "bytes32",
          "name": "",
          "type": "bytes32"
        }
      ],
      "name": "uploads",
      "outputs": [
        {
          "internalType": "address",
          "name": "ownerAddress",
          "type": "address"
        },
        {
          "internalType": "bool",
          "name": "sold",
          "type": "bool"
        }
      ],
      "stateMutability": "view",
      "type": "function",
      "constant": true
    },
    {
      "stateMutability": "payable",
      "type": "receive",
      "payable": true
    },
    {
      "inputs": [
        {
          "internalType": "string",
          "name": "_userId",
          "type": "string"
        },
        {
          "internalType": "string",
          "name": "_packetId",
          "type": "string"
        },
        {
          "internalType": "string[]",
          "name": "_ipfsHashes",
          "type": "string[]"
        }
      ],
      "name": "addUpload",
      "outputs": [],
      "stateMutability": "nonpayable",
      "type": "function"
    },
    {
      "inputs": [
        {
          "internalType": "string",
          "name": "_requesterId",
          "type": "string"
        },
        {
          "internalType": "string",
          "name": "_packetId",
          "type": "string"
        },
        {
          "internalType": "bytes32[]",
          "name": "_keys",
          "type": "bytes32[]"
        }
      ],
      "name": "addSampleRequest",
      "outputs": [],
      "stateMutability": "nonpayable",
      "type": "function"
    },
    {
      "inputs": [
        {
          "internalType": "string",
          "name": "_ownerId",
          "type": "string"
        },
        {
          "internalType": "string",
          "name": "_packetId",
          "type": "string"
        },
        {
          "internalType": "address",
          "name": "_requesterAddress",
          "type": "address"
        },
        {
          "internalType": "string[]",
          "name": "_keys",
          "type": "string[]"
        },
        {
          "internalType": "uint256",
          "name": "price",
          "type": "uint256"
        },
        {
          "internalType": "bool",
          "name": "_approve",
          "type": "bool"
        }
      ],
      "name": "addPurchase",
      "outputs": [],
      "stateMutability": "nonpayable",
      "type": "function"
    },
    {
      "inputs": [
        {
          "internalType": "string",
          "name": "_requesterId",
          "type": "string"
        },
        {
          "internalType": "string",
          "name": "_packetId",
          "type": "string"
        }
      ],
      "name": "getPurchaseKeys",
      "outputs": [
        {
          "internalType": "string[]",
          "name": "",
          "type": "string[]"
        }
      ],
      "stateMutability": "view",
      "type": "function",
      "constant": true
    },
    {
      "inputs": [
        {
          "internalType": "string",
          "name": "_rated",
          "type": "string"
        },
        {
          "internalType": "string",
          "name": "_reviewer",
          "type": "string"
        },
        {
          "internalType": "uint8",
          "name": "_rating",
          "type": "uint8"
        },
        {
          "internalType": "string",
          "name": "_comments",
          "type": "string"
        }
      ],
      "name": "addReview",
      "outputs": [],
      "stateMutability": "nonpayable",
      "type": "function"
    },
    {
      "inputs": [
        {
          "internalType": "string",
          "name": "_id",
          "type": "string"
        }
      ],
      "name": "getRegisterUsers",
      "outputs": [],
      "stateMutability": "nonpayable",
      "type": "function"
    }
  ],
  "bytecode": "0x608060405234801561001057600080fd5b50612b1f806100206000396000f3fe6080604052600436106100c65760003560e01c80636bf22a4b1161007f57806396929d5f1161005957806396929d5f1461033757806397b130bf14610360578063c0302cdd1461039e578063d68557ae146103c75761015a565b80636bf22a4b146102a7578063704f1b94146102d05780637ab8dbe9146102f95761015a565b80631e5d30761461015f578063366c6ea4146101885780633d4dff7b146101c7578063414f5a0f1461020457806349ea4e641461022d57806367c8753b1461026a5761015a565b3661015a576000336040516020016100de91906120c2565b60405160208183030381529060405280519060200120905034600460008381526020019081526020016000206000828254610119919061254a565b925050819055507f542bc46a4bcbeca72d54cd937a4d9a2de5ea98e96bc562429a07930274b451d73360405161014f9190612185565b60405180910390a150005b600080fd5b34801561016b57600080fd5b5061018660048036038101906101819190611c2d565b610404565b005b34801561019457600080fd5b506101af60048036038101906101aa9190611945565b610653565b6040516101be939291906122b0565b60405180910390f35b3480156101d357600080fd5b506101ee60048036038101906101e9919061191c565b61072f565b6040516101fb91906123d2565b60405180910390f35b34801561021057600080fd5b5061022b60048036038101906102269190611a2e565b610747565b005b34801561023957600080fd5b50610254600480360381019061024f91906119c2565b610a71565b604051610261919061220d565b60405180910390f35b34801561027657600080fd5b50610291600480360381019061028c9190611945565b610c1d565b60405161029e919061224a565b60405180910390f35b3480156102b357600080fd5b506102ce60048036038101906102c99190611981565b610c4e565b005b3480156102dc57600080fd5b506102f760048036038101906102f29190611981565b610ccd565b005b34801561030557600080fd5b50610320600480360381019061031b919061191c565b610d58565b60405161032e929190612265565b60405180910390f35b34801561034357600080fd5b5061035e60048036038101906103599190611aff565b610d9c565b005b34801561036c57600080fd5b506103876004803603810190610382919061191c565b610fad565b6040516103959291906121bb565b60405180910390f35b3480156103aa57600080fd5b506103c560048036038101906103c09190611b96565b610ffe565b005b3480156103d357600080fd5b506103ee60048036038101906103e9919061191c565b611224565b6040516103fb919061222f565b60405180910390f35b83600115156000808360405160200161041d91906120f8565b60405160208183030381529060405280519060200120815260200190815260200160002060009054906101000a900460ff16151514610491576040517f08c379a00000000000000000000000000000000000000000000000000000000081526004016104889061232e565b60405180910390fd5b8360011515600080836040516020016104aa91906120f8565b60405160208183030381529060405280519060200120815260200190815260200160002060009054906101000a900460ff1615151461051e576040517f08c379a00000000000000000000000000000000000000000000000000000000081526004016105159061232e565b60405180910390fd5b600060405180606001604052808781526020018660ff1681526020018560405160200161054b91906120f8565b604051602081830303815290604052805190602001208152509050600560008860405160200161057b91906120f8565b60405160208183030381529060405280519060200120815260200190815260200160002081908060018154018082558091505060019003906000526020600020906003020160009091909190915060008201518160000190805190602001906105e5929190611662565b5060208201518160010160006101000a81548160ff021916908360ff1602179055506040820151816002015550507f52b7a5046109bc575df27b04dadaac96f00086418a53ae85d90679f2c275a28f81604051610642919061238e565b60405180910390a150505050505050565b6005602052816000526040600020818154811061066f57600080fd5b906000526020600020906003020160009150915050806000018054610693906126f4565b80601f01602080910402602001604051908101604052809291908181526020018280546106bf906126f4565b801561070c5780601f106106e15761010080835404028352916020019161070c565b820191906000526020600020905b8154815290600101906020018083116106ef57829003601f168201915b5050505050908060010160009054906101000a900460ff16908060020154905083565b60046020528060005260406000206000915090505481565b85600115156000808360405160200161076091906120f8565b60405160208183030381529060405280519060200120815260200190815260200160002060009054906101000a900460ff161515146107d4576040517f08c379a00000000000000000000000000000000000000000000000000000000081526004016107cb9061232e565b60405180910390fd5b856001151560016000836040516020016107ee91906120f8565b60405160208183030381529060405280519060200120815260200190815260200160002060020160009054906101000a900460ff1615151415610866576040517f08c379a000000000000000000000000000000000000000000000000000000000815260040161085d9061234e565b60405180910390fd5b6000878760405160200161087b92919061210f565b6040516020818303038152906040528051906020012090508380156108a657506108a58187611244565b5b15610a5b57876040516020016108bc91906120f8565b604051602081830303815290604052805190602001206003600083815260200190815260200160002060000181905550866003600083815260200190815260200160002060010160006101000a81548173ffffffffffffffffffffffffffffffffffffffff021916908373ffffffffffffffffffffffffffffffffffffffff16021790555060005b86518160ff1610156109f65760036000838152602001908152602001600020600201878260ff16815181106109a2577f4e487b7100000000000000000000000000000000000000000000000000000000600052603260045260246000fd5b60200260200101519080600181540180825580915050600190039060005260206000200160009091909190915090805190602001906109e2929190611662565b5080806109ee906127ee565b915050610944565b5060018060008a604051602001610a0d91906120f8565b60405160208183030381529060405280519060200120815260200190815260200160002060020160006101000a81548160ff021916908315150217905550610a56873387611397565b610a66565b610a6587866114cc565b5b505050505050505050565b6060826001151560008083604051602001610a8c91906120f8565b60405160208183030381529060405280519060200120815260200190815260200160002060009054906101000a900460ff16151514610b00576040517f08c379a0000000000000000000000000000000000000000000000000000000008152600401610af79061232e565b60405180910390fd5b60008333604051602001610b1592919061210f565b60405160208183030381529060405280519060200120905060036000828152602001908152602001600020600201805480602002602001604051908101604052809291908181526020016000905b82821015610c0f578382906000526020600020018054610b82906126f4565b80601f0160208091040260200160405190810160405280929190818152602001828054610bae906126f4565b8015610bfb5780601f10610bd057610100808354040283529160200191610bfb565b820191906000526020600020905b815481529060010190602001808311610bde57829003601f168201915b505050505081526020019060010190610b63565b505050509250505092915050565b60026020528160005260406000208181548110610c3957600080fd5b90600052602060002001600091509150505481565b7f0f806f3a69aebe25b6129d19609333999fb4d2aed709217d19e0465d3bf3e72e60008083604051602001610c8391906120f8565b60405160208183030381529060405280519060200120815260200190815260200160002060009054906101000a900460ff16604051610cc2919061222f565b60405180910390a150565b600160008083604051602001610ce391906120f8565b60405160208183030381529060405280519060200120815260200190815260200160002060006101000a81548160ff0219169083151502179055507f40b2d3af7e7a908ab771e3b293d2df299bb187d4ac2dcb3dbc2455fdcf5c15dd81604051610d4d919061228e565b60405180910390a150565b60036020528060005260406000206000915090508060000154908060010160009054906101000a900473ffffffffffffffffffffffffffffffffffffffff16905082565b826001151560008083604051602001610db591906120f8565b60405160208183030381529060405280519060200120815260200190815260200160002060009054906101000a900460ff16151514610e29576040517f08c379a0000000000000000000000000000000000000000000000000000000008152600401610e209061232e565b60405180910390fd5b60008333604051602001610e3e92919061210f565b6040516020818303038152906040528051906020012090506000600260008381526020019081526020016000208054905014610eaf576040517f08c379a0000000000000000000000000000000000000000000000000000000008152600401610ea69061236e565b60405180910390fd5b60005b83518160ff161015610f4e5760026000838152602001908152602001600020848260ff1681518110610f0d577f4e487b7100000000000000000000000000000000000000000000000000000000600052603260045260246000fd5b602002602001015190806001815401808255809150506001900390600052602060002001600090919091909150558080610f46906127ee565b915050610eb2565b507f089aa10c109296bf82ebc419d1f7adbe9f9d3c367c6f43ceffb6aa1fadc9187033610f9060026000858152602001908152602001600020805490506115ff565b604051610f9e9291906121e4565b60405180910390a15050505050565b60016020528060005260406000206000915090508060000160009054906101000a900473ffffffffffffffffffffffffffffffffffffffff16908060020160009054906101000a900460ff16905082565b82600115156000808360405160200161101791906120f8565b60405160208183030381529060405280519060200120815260200190815260200160002060009054906101000a900460ff1615151461108b576040517f08c379a00000000000000000000000000000000000000000000000000000000081526004016110829061232e565b60405180910390fd5b60008360405160200161109e91906120f8565b604051602081830303815290604052805190602001209050336001600083815260200190815260200160002060000160006101000a81548173ffffffffffffffffffffffffffffffffffffffff021916908373ffffffffffffffffffffffffffffffffffffffff16021790555060005b83518160ff1610156111d35760016000838152602001908152602001600020600101848260ff168151811061116c577f4e487b7100000000000000000000000000000000000000000000000000000000600052603260045260246000fd5b602002602001015160405160200161118491906120f8565b60405160208183030381529060405280519060200120908060018154018082558091505060019003906000526020600020016000909190919091505580806111cb906127ee565b91505061110e565b507f0c6fa9feb9d1a77b6b20251fdcd90466509bf7b9c9f650d70394aa888545ab806001600083815260200190815260200160002060405161121591906123b0565b60405180910390a15050505050565b60006020528060005260406000206000915054906101000a900460ff1681565b600080600260008581526020019081526020016000208054806020026020016040519081016040528092919081815260200182805480156112a457602002820191906000526020600020905b815481526020019060010190808311611290575b5050505050905060006001905060005b82518160ff16101561138b57848160ff16815181106112fc577f4e487b7100000000000000000000000000000000000000000000000000000000600052603260045260246000fd5b6020026020010151604051602001611314919061228e565b60405160208183030381529060405280519060200120838260ff1681518110611366577f4e487b7100000000000000000000000000000000000000000000000000000000600052603260045260246000fd5b60200260200101511461137857600091505b8080611383906127ee565b9150506112b4565b50809250505092915050565b6000836040516020016113aa91906120c2565b6040516020818303038152906040528051906020012090506004600082815260200190815260200160002054821115611418576040517f08c379a000000000000000000000000000000000000000000000000000000000815260040161140f906122ee565b60405180910390fd5b60008290508260046000848152602001908152602001600020600082825461144091906125a0565b925050819055508373ffffffffffffffffffffffffffffffffffffffff166108fc829081150290604051600060405180830381858888f1935050505015801561148d573d6000803e3d6000fd5b507ff78d9b9160162a84408a458af99dc12d3125949b20e55ea678f03d3b39514d1e846040516114bd91906121a0565b60405180910390a15050505050565b6000826040516020016114df91906120dd565b604051602081830303815290604052805190602001209050600460008281526020019081526020016000205482111561154d576040517f08c379a00000000000000000000000000000000000000000000000000000000081526004016115449061230e565b60405180910390fd5b60008290508260046000848152602001908152602001600020600082825461157591906125a0565b925050819055508373ffffffffffffffffffffffffffffffffffffffff166108fc829081150290604051600060405180830381858888f193505050501580156115c2573d6000803e3d6000fd5b507e111e66581bd1e7becef013b6063b87c8c911c45d23207796d07e4903ae0742846040516115f191906121a0565b60405180910390a150505050565b6000808260065442443360405160200161161c9493929190612137565b6040516020818303038152906040528051906020012060001c61163f9190612858565b905060066000815480929190611654906127a5565b919050555080915050919050565b82805461166e906126f4565b90600052602060002090601f01602090048101928261169057600085556116d7565b82601f106116a957805160ff19168380011785556116d7565b828001600101855582156116d7579182015b828111156116d65782518255916020019190600101906116bb565b5b5090506116e491906116e8565b5090565b5b808211156117015760008160009055506001016116e9565b5090565b600061171861171384612412565b6123ed565b9050808382526020820190508285602086028201111561173757600080fd5b60005b85811015611767578161174d88826118b3565b84526020840193506020830192505060018101905061173a565b5050509392505050565b600061178461177f8461243e565b6123ed565b905080838252602082019050828560208602820111156117a357600080fd5b60005b858110156117ed57813567ffffffffffffffff8111156117c557600080fd5b8086016117d289826118c8565b855260208501945060208401935050506001810190506117a6565b5050509392505050565b600061180a6118058461246a565b6123ed565b90508281526020810184848401111561182257600080fd5b61182d8482856126b2565b509392505050565b60008135905061184481612a76565b92915050565b600082601f83011261185b57600080fd5b813561186b848260208601611705565b91505092915050565b600082601f83011261188557600080fd5b8135611895848260208601611771565b91505092915050565b6000813590506118ad81612a8d565b92915050565b6000813590506118c281612aa4565b92915050565b600082601f8301126118d957600080fd5b81356118e98482602086016117f7565b91505092915050565b60008135905061190181612abb565b92915050565b60008135905061191681612ad2565b92915050565b60006020828403121561192e57600080fd5b600061193c848285016118b3565b91505092915050565b6000806040838503121561195857600080fd5b6000611966858286016118b3565b9250506020611977858286016118f2565b9150509250929050565b60006020828403121561199357600080fd5b600082013567ffffffffffffffff8111156119ad57600080fd5b6119b9848285016118c8565b91505092915050565b600080604083850312156119d557600080fd5b600083013567ffffffffffffffff8111156119ef57600080fd5b6119fb858286016118c8565b925050602083013567ffffffffffffffff811115611a1857600080fd5b611a24858286016118c8565b9150509250929050565b60008060008060008060c08789031215611a4757600080fd5b600087013567ffffffffffffffff811115611a6157600080fd5b611a6d89828a016118c8565b965050602087013567ffffffffffffffff811115611a8a57600080fd5b611a9689828a016118c8565b9550506040611aa789828a01611835565b945050606087013567ffffffffffffffff811115611ac457600080fd5b611ad089828a01611874565b9350506080611ae189828a016118f2565b92505060a0611af289828a0161189e565b9150509295509295509295565b600080600060608486031215611b1457600080fd5b600084013567ffffffffffffffff811115611b2e57600080fd5b611b3a868287016118c8565b935050602084013567ffffffffffffffff811115611b5757600080fd5b611b63868287016118c8565b925050604084013567ffffffffffffffff811115611b8057600080fd5b611b8c8682870161184a565b9150509250925092565b600080600060608486031215611bab57600080fd5b600084013567ffffffffffffffff811115611bc557600080fd5b611bd1868287016118c8565b935050602084013567ffffffffffffffff811115611bee57600080fd5b611bfa868287016118c8565b925050604084013567ffffffffffffffff811115611c1757600080fd5b611c2386828701611874565b9150509250925092565b60008060008060808587031215611c4357600080fd5b600085013567ffffffffffffffff811115611c5d57600080fd5b611c69878288016118c8565b945050602085013567ffffffffffffffff811115611c8657600080fd5b611c92878288016118c8565b9350506040611ca387828801611907565b925050606085013567ffffffffffffffff811115611cc057600080fd5b611ccc878288016118c8565b91505092959194509250565b6000611ce48383611e57565b60208301905092915050565b6000611cfc8383611e75565b905092915050565b611d0d8161267c565b82525050565b611d24611d1f8261261d565b61282a565b82525050565b611d338161260b565b82525050565b611d428161260b565b82525050565b611d59611d548261260b565b612818565b82525050565b6000611d6a826124c0565b611d7481856124fb565b9350611d7f8361249b565b8060005b83811015611db757611d9482612945565b611d9e8882611cd8565b9750611da9836124e1565b925050600181019050611d83565b5085935050505092915050565b6000611dcf826124cb565b611dd9818561250c565b935083602082028501611deb856124b0565b8060005b85811015611e275784840389528151611e088582611cf0565b9450611e13836124ee565b925060208a01995050600181019050611def565b50829750879550505050505092915050565b611e428161262f565b82525050565b611e518161262f565b82525050565b611e608161263b565b82525050565b611e6f8161263b565b82525050565b6000611e80826124d6565b611e8a818561251d565b9350611e9a8185602086016126c1565b611ea381612958565b840191505092915050565b6000611eb9826124d6565b611ec3818561252e565b9350611ed38185602086016126c1565b611edc81612958565b840191505092915050565b6000611ef2826124d6565b611efc818561253f565b9350611f0c8185602086016126c1565b80840191505092915050565b6000611f2560158361252e565b9150611f3082612983565b602082019050919050565b6000611f48601b8361252e565b9150611f53826129ac565b602082019050919050565b6000611f6b60168361252e565b9150611f76826129d5565b602082019050919050565b6000611f8e60128361252e565b9150611f99826129fe565b602082019050919050565b6000611fb160258361252e565b9150611fbc82612a27565b604082019050919050565b60006060830160008301518482036000860152611fe48282611e75565b9150506020830151611ff960208601826120a4565b50604083015161200c6040860182611e57565b508091505092915050565b600060608301600080840154905061202e81612726565b61203b6000870182611d2a565b506001840185830360208701526120528382611d5f565b9250506002840154905061206581612740565b6120726040870182611e39565b50819250505092915050565b61208781612665565b82525050565b61209e61209982612665565b61284e565b82525050565b6120ad8161266f565b82525050565b6120bc8161266f565b82525050565b60006120ce8284611d48565b60148201915081905092915050565b60006120e98284611d13565b60148201915081905092915050565b60006121048284611ee7565b915081905092915050565b600061211b8285611ee7565b91506121278284611d48565b6014820191508190509392505050565b6000612143828761208d565b602082019150612153828661208d565b602082019150612163828561208d565b6020820191506121738284611d48565b60148201915081905095945050505050565b600060208201905061219a6000830184611d39565b92915050565b60006020820190506121b56000830184611d04565b92915050565b60006040820190506121d06000830185611d39565b6121dd6020830184611e48565b9392505050565b60006040820190506121f96000830185611d39565b612206602083018461207e565b9392505050565b600060208201905081810360008301526122278184611dc4565b905092915050565b60006020820190506122446000830184611e48565b92915050565b600060208201905061225f6000830184611e66565b92915050565b600060408201905061227a6000830185611e66565b6122876020830184611d39565b9392505050565b600060208201905081810360008301526122a88184611eae565b905092915050565b600060608201905081810360008301526122ca8186611eae565b90506122d960208301856120b3565b6122e66040830184611e66565b949350505050565b6000602082019050818103600083015261230781611f18565b9050919050565b6000602082019050818103600083015261232781611f3b565b9050919050565b6000602082019050818103600083015261234781611f5e565b9050919050565b6000602082019050818103600083015261236781611f81565b9050919050565b6000602082019050818103600083015261238781611fa4565b9050919050565b600060208201905081810360008301526123a88184611fc7565b905092915050565b600060208201905081810360008301526123ca8184612017565b905092915050565b60006020820190506123e7600083018461207e565b92915050565b60006123f7612408565b90506124038282612774565b919050565b6000604051905090565b600067ffffffffffffffff82111561242d5761242c612916565b5b602082029050602081019050919050565b600067ffffffffffffffff82111561245957612458612916565b5b602082029050602081019050919050565b600067ffffffffffffffff82111561248557612484612916565b5b61248e82612958565b9050602081019050919050565b60008190508160005260206000209050919050565b6000819050602082019050919050565b600081549050919050565b600081519050919050565b600081519050919050565b6000600182019050919050565b6000602082019050919050565b600082825260208201905092915050565b600082825260208201905092915050565b600082825260208201905092915050565b600082825260208201905092915050565b600081905092915050565b600061255582612665565b915061256083612665565b9250827fffffffffffffffffffffffffffffffffffffffffffffffffffffffffffffffff0382111561259557612594612889565b5b828201905092915050565b60006125ab82612665565b91506125b683612665565b9250828210156125c9576125c8612889565b5b828203905092915050565b600073ffffffffffffffffffffffffffffffffffffffff82169050919050565b600060ff82169050919050565b6000819050919050565b600061261682612645565b9050919050565b600061262882612645565b9050919050565b60008115159050919050565b6000819050919050565b600073ffffffffffffffffffffffffffffffffffffffff82169050919050565b6000819050919050565b600060ff82169050919050565b60006126878261268e565b9050919050565b6000612699826126a0565b9050919050565b60006126ab82612645565b9050919050565b82818337600083830152505050565b60005b838110156126df5780820151818401526020810190506126c4565b838111156126ee576000848401525b50505050565b6000600282049050600182168061270c57607f821691505b602082108114156127205761271f6128e7565b5b50919050565b600061273961273483612976565b6125d4565b9050919050565b600061275361274e83612976565b6125f4565b9050919050565b600061276d61276883612976565b612601565b9050919050565b61277d82612958565b810181811067ffffffffffffffff8211171561279c5761279b612916565b5b80604052505050565b60006127b082612665565b91507fffffffffffffffffffffffffffffffffffffffffffffffffffffffffffffffff8214156127e3576127e2612889565b5b600182019050919050565b60006127f98261266f565b915060ff82141561280d5761280c612889565b5b600182019050919050565b60006128238261283c565b9050919050565b60006128358261283c565b9050919050565b600061284782612969565b9050919050565b6000819050919050565b600061286382612665565b915061286e83612665565b92508261287e5761287d6128b8565b5b828206905092915050565b7f4e487b7100000000000000000000000000000000000000000000000000000000600052601160045260246000fd5b7f4e487b7100000000000000000000000000000000000000000000000000000000600052601260045260246000fd5b7f4e487b7100000000000000000000000000000000000000000000000000000000600052602260045260246000fd5b7f4e487b7100000000000000000000000000000000000000000000000000000000600052604160045260246000fd5b6000612951825461275a565b9050919050565b6000601f19601f8301169050919050565b60008160601b9050919050565b60008160001c9050919050565b7f4e6f7420656e6f756768206d6f6e65792073656e740000000000000000000000600082015250565b7f4e6f7420656e6f756768206d6f6e657920696e206465706f7369740000000000600082015250565b7f55736572206973206e6f74207265676973746572656400000000000000000000600082015250565b7f4974656d20686173206265656e20736f6c640000000000000000000000000000600082015250565b7f416c7265616479207265717565737465642073616d706c65206f66207468697360008201527f206974656d000000000000000000000000000000000000000000000000000000602082015250565b612a7f8161260b565b8114612a8a57600080fd5b50565b612a968161262f565b8114612aa157600080fd5b50565b612aad8161263b565b8114612ab857600080fd5b50565b612ac481612665565b8114612acf57600080fd5b50565b612adb8161266f565b8114612ae657600080fd5b5056fea26469706673582212201648bb0a3262cf1e3afc1d26af32107f019bceaa7ac5a175138d003dad56dcce64736f6c63430008040033",
  "immutableReferences": {},
  "source": "//\"SPDX-License-Identifier: UNLICENSED\"\r\npragma solidity 0.8.4;\r\n\r\nimport \"./Registry.sol\";\r\n\r\ncontract DataDappContract is Registry {\r\n    //***********************************Structs********************************//\r\n    struct UploadPacket {\r\n        address ownerAddress;\r\n        bytes32[] ipfsHashes;\r\n        bool sold;\r\n    }\r\n\r\n    struct Purchase {\r\n        bytes32 packetId;\r\n        address requesterAddress;\r\n        string[] keys;\r\n    }\r\n\r\n    struct Review {\r\n        string reviewer;\r\n        uint8 rating;\r\n        bytes32 comments;\r\n    }\r\n\r\n    //**********************************Mappings*******************************//\r\n    mapping(bytes32 => UploadPacket) public uploads;\r\n    mapping(bytes32 => bytes32[]) public sampleRequests;\r\n    mapping(bytes32 => Purchase) public purchases;\r\n    mapping(bytes32 => uint256) public deposits;\r\n    mapping(bytes32 => Review[]) public reviews;\r\n\r\n    uint256 nonce;\r\n\r\n    //***********************************Events********************************//\r\n    event UploadResult(UploadPacket upload);\r\n    event SampleRequestResult(address requester, uint256 index);\r\n    event DepositEvent(address requester);\r\n    event SendMoneyEvent(address requester);\r\n    event ReturnMoneyEvent(address requester);\r\n    event ReviewResult(Review review);\r\n\r\n    //********************************Modifiers********************************//\r\n    modifier itemNotSold(string memory _id) {\r\n        require(\r\n            uploads[keccak256(abi.encodePacked(_id))].sold != true,\r\n            \"Item has been sold\"\r\n        );\r\n        _;\r\n    }\r\n\r\n    //*********************************Functions*******************************//\r\n    receive() external payable {\r\n        bytes32 index = keccak256(abi.encodePacked(msg.sender));\r\n        deposits[index] += msg.value;\r\n        emit DepositEvent(msg.sender);\r\n    }\r\n\r\n    //***********************************Upload********************************//\r\n    function addUpload(\r\n        string memory _userId,\r\n        string memory _packetId,\r\n        string[] memory _ipfsHashes\r\n    ) public registered(_userId) {\r\n        bytes32 index = keccak256(abi.encodePacked(_packetId));\r\n        uploads[index].ownerAddress = msg.sender;\r\n\r\n        for (uint8 i = 0; i < _ipfsHashes.length; i++) {\r\n            uploads[index].ipfsHashes.push(\r\n                keccak256(abi.encodePacked(_ipfsHashes[i]))\r\n            );\r\n        }\r\n\r\n        emit UploadResult(uploads[index]);\r\n    }\r\n\r\n    //***********************************Sample********************************//\r\n    function addSampleRequest(\r\n        string memory _requesterId,\r\n        string memory _packetId,\r\n        bytes32[] memory _keys\r\n    ) public registered(_requesterId) {\r\n        bytes32 index = keccak256(abi.encodePacked(_packetId, msg.sender));\r\n        require(\r\n            sampleRequests[index].length == 0,\r\n            \"Already requested sample of this item\"\r\n        );\r\n        for (uint8 i = 0; i < _keys.length; i++) {\r\n            sampleRequests[index].push(_keys[i]);\r\n        }\r\n        emit SampleRequestResult(\r\n            msg.sender,\r\n            getRandomKeyIndex(sampleRequests[index].length)\r\n        );\r\n    }\r\n\r\n    function getRandomKeyIndex(uint256 mod) internal returns (uint256) {\r\n        uint256 rand =\r\n            uint256(\r\n                keccak256(\r\n                    abi.encodePacked(\r\n                        nonce,\r\n                        block.timestamp,\r\n                        block.difficulty,\r\n                        msg.sender\r\n                    )\r\n                )\r\n            ) % mod;\r\n        nonce++;\r\n        return rand;\r\n    }\r\n\r\n    //**********************************Purchase*******************************//\r\n    function addPurchase(\r\n        string memory _ownerId,\r\n        string memory _packetId,\r\n        address _requesterAddress,\r\n        string[] memory _keys,\r\n        uint256 price,\r\n        bool _approve\r\n    ) public registered(_ownerId) itemNotSold(_packetId) {\r\n        bytes32 index =\r\n            keccak256(abi.encodePacked(_packetId, _requesterAddress));\r\n\r\n        if (_approve && hashKeysAndCompare(index, _keys)) {\r\n            purchases[index].packetId = keccak256(abi.encodePacked(_packetId));\r\n            purchases[index].requesterAddress = _requesterAddress;\r\n\r\n            for (uint8 i = 0; i < _keys.length; i++) {\r\n                purchases[index].keys.push(_keys[i]);\r\n            }\r\n\r\n            uploads[keccak256(abi.encodePacked(_packetId))].sold = true;\r\n            sendMoney(_requesterAddress, payable(msg.sender), price);\r\n        } else {\r\n            returnMoney(payable(_requesterAddress), price);\r\n        }\r\n    }\r\n\r\n    function hashKeysAndCompare(bytes32 _index, string[] memory _keysFromSeller)\r\n        internal\r\n        view\r\n        returns (bool)\r\n    {\r\n        bytes32[] memory keysFromSample = sampleRequests[_index];\r\n        bool confirm = true;\r\n\r\n        for (uint8 i = 0; i < keysFromSample.length; i++) {\r\n            if (\r\n                keysFromSample[i] != keccak256(abi.encode(_keysFromSeller[i]))\r\n            ) {\r\n                confirm = false;\r\n            }\r\n        }\r\n        return confirm;\r\n    }\r\n\r\n    function sendMoney(\r\n        address from,\r\n        address payable _to,\r\n        uint256 price\r\n    ) internal {\r\n        bytes32 index = keccak256(abi.encodePacked(from));\r\n        require(price <= deposits[index], \"Not enough money sent\");\r\n        uint256 moneyToSent = price;\r\n        deposits[index] -= price;\r\n        _to.transfer(moneyToSent);\r\n\r\n        emit SendMoneyEvent(_to);\r\n    }\r\n\r\n    function returnMoney(address payable _to, uint256 price) internal {\r\n        bytes32 index = keccak256(abi.encodePacked(_to));\r\n        require(price <= deposits[index], \"Not enough money in deposit\");\r\n        uint256 moneyToSent = price;\r\n        deposits[index] -= price;\r\n        _to.transfer(moneyToSent);\r\n\r\n        emit ReturnMoneyEvent(_to);\r\n    }\r\n\r\n    function getPurchaseKeys(\r\n        string memory _requesterId,\r\n        string memory _packetId\r\n    ) public view registered(_requesterId) returns (string[] memory) {\r\n        bytes32 index = keccak256(abi.encodePacked(_packetId, msg.sender));\r\n        return purchases[index].keys;\r\n    }\r\n\r\n    //***********************************Review*********************************//\r\n    function addReview(\r\n        string memory _rated,\r\n        string memory _reviewer,\r\n        uint8 _rating,\r\n        string memory _comments\r\n    ) public registered(_rated) registered(_reviewer) {\r\n        Review memory review =\r\n            Review(_reviewer, _rating, keccak256(abi.encodePacked(_comments)));\r\n        reviews[keccak256(abi.encodePacked(_rated))].push(review);\r\n\r\n        emit ReviewResult(review);\r\n    }\r\n\r\n    //***********************************Testing*********************************//\r\n    event Check(bool _isRegistered);\r\n\r\n    function getRegisterUsers(string memory _id) public {\r\n        emit Check(registeredUsers[keccak256(abi.encodePacked(_id))]);\r\n    }\r\n}\r\n",
  "sourcePath": "C:/Users/vaspa/Desktop/Files/dis-project/contracts/DataDappContract.sol",
  "compiler": {
    "name": "solc",
    "version": "0.8.4+commit.c7e474f2.Emscripten.clang"
  },
  "schemaVersion": "3.4.0",
  "updatedAt": "2021-05-11T08:07:26.008Z",
  "networkType": "ethereum",
  "devdoc": {
    "kind": "dev",
    "methods": {},
    "version": 1
  },
  "userdoc": {
    "kind": "user",
    "methods": {},
    "version": 1
  }
}