{
  "contractName": "Registry",
  "abi": [
    {
      "anonymous": false,
      "inputs": [
        {
          "indexed": false,
          "internalType": "string",
          "name": "_id",
          "type": "string"
        }
      ],
      "name": "Register",
      "type": "event"
    },
    {
      "inputs": [
        {
          "internalType": "bytes32",
          "name": "",
          "type": "bytes32"
        }
      ],
      "name": "registeredUsers",
      "outputs": [
        {
          "internalType": "bool",
          "name": "",
          "type": "bool"
        }
      ],
      "stateMutability": "view",
      "type": "function",
      "constant": true
    },
    {
      "inputs": [
        {
          "internalType": "string",
          "name": "_id",
          "type": "string"
        }
      ],
      "name": "registerUser",
      "outputs": [],
      "stateMutability": "nonpayable",
      "type": "function"
    }
  ],
  "bytecode": "0x608060405234801561001057600080fd5b50610479806100206000396000f3fe608060405234801561001057600080fd5b50600436106100365760003560e01c8063704f1b941461003b578063d68557ae14610057575b600080fd5b610055600480360381019061005091906101d8565b610087565b005b610071600480360381019061006c91906101af565b610112565b60405161007e91906102a9565b60405180910390f35b60016000808360405160200161009d9190610292565b60405160208183030381529060405280519060200120815260200190815260200160002060006101000a81548160ff0219169083151502179055507f40b2d3af7e7a908ab771e3b293d2df299bb187d4ac2dcb3dbc2455fdcf5c15dd8160405161010791906102c4565b60405180910390a150565b60006020528060005260406000206000915054906101000a900460ff1681565b60006101456101408461030b565b6102e6565b90508281526020810184848401111561015d57600080fd5b610168848285610379565b509392505050565b60008135905061017f8161042c565b92915050565b600082601f83011261019657600080fd5b81356101a6848260208601610132565b91505092915050565b6000602082840312156101c157600080fd5b60006101cf84828501610170565b91505092915050565b6000602082840312156101ea57600080fd5b600082013567ffffffffffffffff81111561020457600080fd5b61021084828501610185565b91505092915050565b61022281610363565b82525050565b60006102338261033c565b61023d8185610347565b935061024d818560208601610388565b6102568161041b565b840191505092915050565b600061026c8261033c565b6102768185610358565b9350610286818560208601610388565b80840191505092915050565b600061029e8284610261565b915081905092915050565b60006020820190506102be6000830184610219565b92915050565b600060208201905081810360008301526102de8184610228565b905092915050565b60006102f0610301565b90506102fc82826103bb565b919050565b6000604051905090565b600067ffffffffffffffff821115610326576103256103ec565b5b61032f8261041b565b9050602081019050919050565b600081519050919050565b600082825260208201905092915050565b600081905092915050565b60008115159050919050565b6000819050919050565b82818337600083830152505050565b60005b838110156103a657808201518184015260208101905061038b565b838111156103b5576000848401525b50505050565b6103c48261041b565b810181811067ffffffffffffffff821117156103e3576103e26103ec565b5b80604052505050565b7f4e487b7100000000000000000000000000000000000000000000000000000000600052604160045260246000fd5b6000601f19601f8301169050919050565b6104358161036f565b811461044057600080fd5b5056fea2646970667358221220f6ab0bb182150739bc26f471185307e7cf803f4ca72e844f38557b7353ecde5964736f6c63430008040033",
  "immutableReferences": {},
  "source": "//\"SPDX-License-Identifier: UNLICENSED\"\r\npragma solidity 0.8.4;\r\n\r\ncontract Registry {\r\n    mapping(bytes32 => bool) public registeredUsers;\r\n\r\n    event Register(string _id);\r\n\r\n    function registerUser(string memory _id) public {\r\n        registeredUsers[keccak256(abi.encodePacked(_id))] = true;\r\n        emit Register(_id);\r\n    }\r\n\r\n    // Throws if user passed as a parameter is not registered\r\n    modifier registered(string memory _id) {\r\n        require(\r\n            registeredUsers[keccak256(abi.encodePacked(_id))] == true,\r\n            \"User is not registered\"\r\n        );\r\n        _;\r\n    }\r\n}\r\n",
  "sourcePath": "C:/Users/vaspa/Desktop/Files/dis-project/contracts/Registry.sol",
  "compiler": {
    "name": "solc",
    "version": "0.8.4+commit.c7e474f2.Emscripten.clang"
  },
  "schemaVersion": "3.4.0",
  "updatedAt": "2021-05-10T06:23:16.577Z",
  "networkType": "ethereum",
  "devdoc": {
    "kind": "dev",
    "methods": {},
    "version": 1
  },
  "userdoc": {
    "kind": "user",
    "methods": {},
    "version": 1
  }
}