{
  "contractName": "TestDataDappContract",
  "abi": [
    {
      "anonymous": false,
      "inputs": [
        {
          "indexed": false,
          "internalType": "address",
          "name": "requester",
          "type": "address"
        },
        {
          "indexed": false,
          "internalType": "uint256",
          "name": "deposit",
          "type": "uint256"
        }
      ],
      "name": "DepositEvent",
      "type": "event"
    },
    {
      "anonymous": false,
      "inputs": [
        {
          "indexed": false,
          "internalType": "string",
          "name": "_id",
          "type": "string"
        }
      ],
      "name": "Register",
      "type": "event"
    },
    {
      "anonymous": false,
      "inputs": [
        {
          "indexed": false,
          "internalType": "uint256",
          "name": "depositRequester",
          "type": "uint256"
        }
      ],
      "name": "ReturnMoneyEvent",
      "type": "event"
    },
    {
      "anonymous": false,
      "inputs": [
        {
          "components": [
            {
              "internalType": "string",
              "name": "reviewer",
              "type": "string"
            },
            {
              "internalType": "uint8",
              "name": "rating",
              "type": "uint8"
            },
            {
              "internalType": "bytes32",
              "name": "comments",
              "type": "bytes32"
            }
          ],
          "indexed": false,
          "internalType": "struct DataDappContract.Review",
          "name": "review",
          "type": "tuple"
        }
      ],
      "name": "ReviewResult",
      "type": "event"
    },
    {
      "anonymous": false,
      "inputs": [
        {
          "indexed": false,
          "internalType": "address",
          "name": "requester",
          "type": "address"
        },
        {
          "indexed": false,
          "internalType": "uint256",
          "name": "index",
          "type": "uint256"
        }
      ],
      "name": "SampleRequestResult",
      "type": "event"
    },
    {
      "anonymous": false,
      "inputs": [
        {
          "indexed": false,
          "internalType": "uint256",
          "name": "depositRequester",
          "type": "uint256"
        }
      ],
      "name": "SendMoneyEvent",
      "type": "event"
    },
    {
      "anonymous": false,
      "inputs": [
        {
          "indexed": false,
          "internalType": "uint256",
          "name": "_index",
          "type": "uint256"
        }
      ],
      "name": "Test1",
      "type": "event"
    },
    {
      "anonymous": false,
      "inputs": [
        {
          "indexed": false,
          "internalType": "bool",
          "name": "_bool",
          "type": "bool"
        }
      ],
      "name": "Test2",
      "type": "event"
    },
    {
      "anonymous": false,
      "inputs": [
        {
          "indexed": false,
          "internalType": "bool",
          "name": "_bool",
          "type": "bool"
        }
      ],
      "name": "Test3",
      "type": "event"
    },
    {
      "anonymous": false,
      "inputs": [
        {
          "components": [
            {
              "internalType": "address",
              "name": "ownerAddress",
              "type": "address"
            },
            {
              "internalType": "bytes32[]",
              "name": "ipfsHashes",
              "type": "bytes32[]"
            },
            {
              "internalType": "bool",
              "name": "sold",
              "type": "bool"
            }
          ],
          "indexed": false,
          "internalType": "struct DataDappContract.UploadPacket",
          "name": "upload",
          "type": "tuple"
        }
      ],
      "name": "UploadResult",
      "type": "event"
    },
    {
      "inputs": [
        {
          "internalType": "string",
          "name": "_ownerId",
          "type": "string"
        },
        {
          "internalType": "string",
          "name": "_packetId",
          "type": "string"
        },
        {
          "internalType": "address",
          "name": "_requesterAddress",
          "type": "address"
        },
        {
          "internalType": "string[]",
          "name": "_keys",
          "type": "string[]"
        },
        {
          "internalType": "uint256",
          "name": "price",
          "type": "uint256"
        },
        {
          "internalType": "bool",
          "name": "_approve",
          "type": "bool"
        }
      ],
      "name": "addPurchase",
      "outputs": [],
      "stateMutability": "nonpayable",
      "type": "function"
    },
    {
      "inputs": [
        {
          "internalType": "string",
          "name": "_rated",
          "type": "string"
        },
        {
          "internalType": "string",
          "name": "_reviewer",
          "type": "string"
        },
        {
          "internalType": "uint8",
          "name": "_rating",
          "type": "uint8"
        },
        {
          "internalType": "string",
          "name": "_comments",
          "type": "string"
        }
      ],
      "name": "addReview",
      "outputs": [],
      "stateMutability": "nonpayable",
      "type": "function"
    },
    {
      "inputs": [
        {
          "internalType": "string",
          "name": "_requesterId",
          "type": "string"
        },
        {
          "internalType": "string",
          "name": "_packetId",
          "type": "string"
        },
        {
          "internalType": "bytes32[]",
          "name": "_keys",
          "type": "bytes32[]"
        }
      ],
      "name": "addSampleRequest",
      "outputs": [],
      "stateMutability": "nonpayable",
      "type": "function"
    },
    {
      "inputs": [
        {
          "internalType": "string",
          "name": "_userId",
          "type": "string"
        },
        {
          "internalType": "string",
          "name": "_packetId",
          "type": "string"
        },
        {
          "internalType": "string[]",
          "name": "_ipfsHashes",
          "type": "string[]"
        }
      ],
      "name": "addUpload",
      "outputs": [],
      "stateMutability": "nonpayable",
      "type": "function"
    },
    {
      "inputs": [
        {
          "internalType": "bytes32",
          "name": "",
          "type": "bytes32"
        }
      ],
      "name": "deposits",
      "outputs": [
        {
          "internalType": "uint256",
          "name": "",
          "type": "uint256"
        }
      ],
      "stateMutability": "view",
      "type": "function",
      "constant": true
    },
    {
      "inputs": [
        {
          "internalType": "bytes32",
          "name": "",
          "type": "bytes32"
        }
      ],
      "name": "purchases",
      "outputs": [
        {
          "internalType": "bytes32",
          "name": "packetId",
          "type": "bytes32"
        },
        {
          "internalType": "address",
          "name": "requesterAddress",
          "type": "address"
        }
      ],
      "stateMutability": "view",
      "type": "function",
      "constant": true
    },
    {
      "inputs": [
        {
          "internalType": "string",
          "name": "_id",
          "type": "string"
        }
      ],
      "name": "registerUser",
      "outputs": [],
      "stateMutability": "nonpayable",
      "type": "function"
    },
    {
      "inputs": [
        {
          "internalType": "bytes32",
          "name": "",
          "type": "bytes32"
        }
      ],
      "name": "registeredUsers",
      "outputs": [
        {
          "internalType": "bool",
          "name": "",
          "type": "bool"
        }
      ],
      "stateMutability": "view",
      "type": "function",
      "constant": true
    },
    {
      "inputs": [
        {
          "internalType": "bytes32",
          "name": "",
          "type": "bytes32"
        },
        {
          "internalType": "uint256",
          "name": "",
          "type": "uint256"
        }
      ],
      "name": "reviews",
      "outputs": [
        {
          "internalType": "string",
          "name": "reviewer",
          "type": "string"
        },
        {
          "internalType": "uint8",
          "name": "rating",
          "type": "uint8"
        },
        {
          "internalType": "bytes32",
          "name": "comments",
          "type": "bytes32"
        }
      ],
      "stateMutability": "view",
      "type": "function",
      "constant": true
    },
    {
      "inputs": [
        {
          "internalType": "bytes32",
          "name": "",
          "type": "bytes32"
        },
        {
          "internalType": "uint256",
          "name": "",
          "type": "uint256"
        }
      ],
      "name": "sampleRequests",
      "outputs": [
        {
          "internalType": "bytes32",
          "name": "",
          "type": "bytes32"
        }
      ],
      "stateMutability": "view",
      "type": "function",
      "constant": true
    },
    {
      "inputs": [
        {
          "internalType": "bytes32",
          "name": "",
          "type": "bytes32"
        }
      ],
      "name": "uploads",
      "outputs": [
        {
          "internalType": "address",
          "name": "ownerAddress",
          "type": "address"
        },
        {
          "internalType": "bool",
          "name": "sold",
          "type": "bool"
        }
      ],
      "stateMutability": "view",
      "type": "function",
      "constant": true
    },
    {
      "stateMutability": "payable",
      "type": "receive",
      "payable": true
    },
    {
      "inputs": [
        {
          "internalType": "uint256",
          "name": "mod",
          "type": "uint256"
        }
      ],
      "name": "test_getRandomKeyIndex",
      "outputs": [],
      "stateMutability": "nonpayable",
      "type": "function"
    },
    {
      "inputs": [
        {
          "internalType": "string",
          "name": "_packetId",
          "type": "string"
        },
        {
          "internalType": "address",
          "name": "_requesterAddress",
          "type": "address"
        },
        {
          "internalType": "string[]",
          "name": "_keysFromSeller",
          "type": "string[]"
        }
      ],
      "name": "test_hashKeysAndCompare",
      "outputs": [],
      "stateMutability": "nonpayable",
      "type": "function"
    },
    {
      "inputs": [
        {
          "internalType": "string",
          "name": "_id",
          "type": "string"
        }
      ],
      "name": "test_itemSold",
      "outputs": [],
      "stateMutability": "nonpayable",
      "type": "function"
    },
    {
      "inputs": [
        {
          "internalType": "address",
          "name": "from",
          "type": "address"
        },
        {
          "internalType": "address payable",
          "name": "_to",
          "type": "address"
        },
        {
          "internalType": "uint256",
          "name": "price",
          "type": "uint256"
        }
      ],
      "name": "test_sendMoney",
      "outputs": [],
      "stateMutability": "nonpayable",
      "type": "function"
    },
    {
      "inputs": [
        {
          "internalType": "address payable",
          "name": "_to",
          "type": "address"
        },
        {
          "internalType": "uint256",
          "name": "price",
          "type": "uint256"
        }
      ],
      "name": "test_returnMoney",
      "outputs": [],
      "stateMutability": "nonpayable",
      "type": "function"
    }
  ],
  "bytecode": "0x608060405234801561001057600080fd5b506129fd806100206000396000f3fe6080604052600436106100f75760003560e01c80639283792b1161008a578063c0302cdd11610059578063c0302cdd146103f9578063cea8554614610422578063d68557ae1461044b578063f0d26e3a14610488576101a0565b80639283792b1461034057806396929d5f1461036957806397b130bf14610392578063a571406c146103d0576101a0565b806363539848116100c6578063635398481461027357806367c8753b1461029c578063704f1b94146102d95780637ab8dbe914610302576101a0565b80631e5d3076146101a5578063366c6ea4146101ce5780633d4dff7b1461020d578063414f5a0f1461024a576101a0565b366101a05760003360405160200161010f9190612099565b6040516020818303038152906040528051906020012090503460046000838152602001908152602001600020600082825461014a9190612470565b925050819055507f2d8a08b6430a894aea608bcaa6013d5d3e263bc49110605e4d4ba76930ae5c29336004600084815260200190815260200160002054604051610195929190612185565b60405180910390a150005b600080fd5b3480156101b157600080fd5b506101cc60048036038101906101c79190611c96565b6104b1565b005b3480156101da57600080fd5b506101f560048036038101906101f0919061199b565b610700565b6040516102049392919061222f565b60405180910390f35b34801561021957600080fd5b50610234600480360381019061022f9190611972565b6107dc565b6040516102419190612331565b60405180910390f35b34801561025657600080fd5b50610271600480360381019061026c9190611a97565b6107f4565b005b34801561027f57600080fd5b5061029a60048036038101906102959190611923565b610a9d565b005b3480156102a857600080fd5b506102c360048036038101906102be919061199b565b610aad565b6040516102d091906121c9565b60405180910390f35b3480156102e557600080fd5b5061030060048036038101906102fb91906119d7565b610ade565b005b34801561030e57600080fd5b5061032960048036038101906103249190611972565b610b69565b6040516103379291906121e4565b60405180910390f35b34801561034c57600080fd5b5061036760048036038101906103629190611d41565b610bad565b005b34801561037557600080fd5b50610390600480360381019061038b9190611b68565b610bef565b005b34801561039e57600080fd5b506103b960048036038101906103b49190611972565b610e00565b6040516103c792919061215c565b60405180910390f35b3480156103dc57600080fd5b506103f760048036038101906103f291906119d7565b610e51565b005b34801561040557600080fd5b50610420600480360381019061041b9190611bff565b610e93565b005b34801561042e57600080fd5b5061044960048036038101906104449190611a18565b6110b9565b005b34801561045757600080fd5b50610472600480360381019061046d9190611972565b61112c565b60405161047f91906121ae565b60405180910390f35b34801561049457600080fd5b506104af60048036038101906104aa91906118e7565b61114c565b005b8360011515600080836040516020016104ca91906120cf565b60405160208183030381529060405280519060200120815260200190815260200160002060009054906101000a900460ff1615151461053e576040517f08c379a0000000000000000000000000000000000000000000000000000000008152600401610535906122ad565b60405180910390fd5b83600115156000808360405160200161055791906120cf565b60405160208183030381529060405280519060200120815260200190815260200160002060009054906101000a900460ff161515146105cb576040517f08c379a00000000000000000000000000000000000000000000000000000000081526004016105c2906122ad565b60405180910390fd5b600060405180606001604052808781526020018660ff168152602001856040516020016105f891906120cf565b604051602081830303815290604052805190602001208152509050600560008860405160200161062891906120cf565b6040516020818303038152906040528051906020012081526020019081526020016000208190806001815401808255809150506001900390600052602060002090600302016000909190919091506000820151816000019080519060200190610692929190611618565b5060208201518160010160006101000a81548160ff021916908360ff1602179055506040820151816002015550507f52b7a5046109bc575df27b04dadaac96f00086418a53ae85d90679f2c275a28f816040516106ef91906122ed565b60405180910390a150505050505050565b6005602052816000526040600020818154811061071c57600080fd5b906000526020600020906003020160009150915050806000018054610740906125e4565b80601f016020809104026020016040519081016040528092919081815260200182805461076c906125e4565b80156107b95780601f1061078e576101008083540402835291602001916107b9565b820191906000526020600020905b81548152906001019060200180831161079c57829003601f168201915b5050505050908060010160009054906101000a900460ff16908060020154905083565b60046020528060005260406000206000915090505481565b85600115156000808360405160200161080d91906120cf565b60405160208183030381529060405280519060200120815260200190815260200160002060009054906101000a900460ff16151514610881576040517f08c379a0000000000000000000000000000000000000000000000000000000008152600401610878906122ad565b60405180910390fd5b600086866040516020016108969291906120e6565b6040516020818303038152906040528051906020012090506108b78761115a565b1580156108c15750825b80156108d357506108d281866111ad565b5b15610a8857866040516020016108e991906120cf565b604051602081830303815290604052805190602001206003600083815260200190815260200160002060000181905550856003600083815260200190815260200160002060010160006101000a81548173ffffffffffffffffffffffffffffffffffffffff021916908373ffffffffffffffffffffffffffffffffffffffff16021790555060005b85518160ff161015610a235760036000838152602001908152602001600020600201868260ff16815181106109cf577f4e487b7100000000000000000000000000000000000000000000000000000000600052603260045260246000fd5b6020026020010151908060018154018082558091505060019003906000526020600020016000909190919091509080519060200190610a0f929190611618565b508080610a1b906126de565b915050610971565b50600180600089604051602001610a3a91906120cf565b60405160208183030381529060405280519060200120815260200190815260200160002060020160006101000a81548160ff021916908315150217905550610a83863386611300565b610a93565b610a928685611448565b5b5050505050505050565b610aa8838383611300565b505050565b60026020528160005260406000208181548110610ac957600080fd5b90600052602060002001600091509150505481565b600160008083604051602001610af491906120cf565b60405160208183030381529060405280519060200120815260200190815260200160002060006101000a81548160ff0219169083151502179055507f40b2d3af7e7a908ab771e3b293d2df299bb187d4ac2dcb3dbc2455fdcf5c15dd81604051610b5e919061220d565b60405180910390a150565b60036020528060005260406000206000915090508060000154908060010160009054906101000a900473ffffffffffffffffffffffffffffffffffffffff16905082565b7f43789b30e4c6d53e2735e5701207b0529b2cc229b1bb02b9691d39ea218da7d7610bd7826115b5565b604051610be49190612331565b60405180910390a150565b826001151560008083604051602001610c0891906120cf565b60405160208183030381529060405280519060200120815260200190815260200160002060009054906101000a900460ff16151514610c7c576040517f08c379a0000000000000000000000000000000000000000000000000000000008152600401610c73906122ad565b60405180910390fd5b60008333604051602001610c919291906120e6565b6040516020818303038152906040528051906020012090506000600260008381526020019081526020016000208054905014610d02576040517f08c379a0000000000000000000000000000000000000000000000000000000008152600401610cf9906122cd565b60405180910390fd5b60005b83518160ff161015610da15760026000838152602001908152602001600020848260ff1681518110610d60577f4e487b7100000000000000000000000000000000000000000000000000000000600052603260045260246000fd5b602002602001015190806001815401808255809150506001900390600052602060002001600090919091909150558080610d99906126de565b915050610d05565b507f089aa10c109296bf82ebc419d1f7adbe9f9d3c367c6f43ceffb6aa1fadc9187033610de360026000858152602001908152602001600020805490506115b5565b604051610df1929190612185565b60405180910390a15050505050565b60016020528060005260406000206000915090508060000160009054906101000a900473ffffffffffffffffffffffffffffffffffffffff16908060020160009054906101000a900460ff16905082565b7fb0c9de9a4db69eccf9473f3a058572d0a6c641ae46b892f1da66fa03f81af339610e7b8261115a565b604051610e8891906121ae565b60405180910390a150565b826001151560008083604051602001610eac91906120cf565b60405160208183030381529060405280519060200120815260200190815260200160002060009054906101000a900460ff16151514610f20576040517f08c379a0000000000000000000000000000000000000000000000000000000008152600401610f17906122ad565b60405180910390fd5b600083604051602001610f3391906120cf565b604051602081830303815290604052805190602001209050336001600083815260200190815260200160002060000160006101000a81548173ffffffffffffffffffffffffffffffffffffffff021916908373ffffffffffffffffffffffffffffffffffffffff16021790555060005b83518160ff1610156110685760016000838152602001908152602001600020600101848260ff1681518110611001577f4e487b7100000000000000000000000000000000000000000000000000000000600052603260045260246000fd5b602002602001015160405160200161101991906120cf565b6040516020818303038152906040528051906020012090806001815401808255809150506001900390600052602060002001600090919091909150558080611060906126de565b915050610fa3565b507f0c6fa9feb9d1a77b6b20251fdcd90466509bf7b9c9f650d70394aa888545ab80600160008381526020019081526020016000206040516110aa919061230f565b60405180910390a15050505050565b600083836040516020016110ce9291906120e6565b6040516020818303038152906040528051906020012090507fb0c9de9a4db69eccf9473f3a058572d0a6c641ae46b892f1da66fa03f81af33961111182846111ad565b60405161111e91906121ae565b60405180910390a150505050565b60006020528060005260406000206000915054906101000a900460ff1681565b6111568282611448565b5050565b6000600160008360405160200161117191906120cf565b60405160208183030381529060405280519060200120815260200190815260200160002060020160009054906101000a900460ff169050919050565b6000806002600085815260200190815260200160002080548060200260200160405190810160405280929190818152602001828054801561120d57602002820191906000526020600020905b8154815260200190600101908083116111f9575b5050505050905060006001905060005b82518160ff1610156112f457848160ff1681518110611265577f4e487b7100000000000000000000000000000000000000000000000000000000600052603260045260246000fd5b602002602001015160405160200161127d919061220d565b60405160208183030381529060405280519060200120838260ff16815181106112cf577f4e487b7100000000000000000000000000000000000000000000000000000000600052603260045260246000fd5b6020026020010151146112e157600091505b80806112ec906126de565b91505061121d565b50809250505092915050565b6000836040516020016113139190612099565b6040516020818303038152906040528051906020012090506004600082815260200190815260200160002054821115611381576040517f08c379a00000000000000000000000000000000000000000000000000000000081526004016113789061226d565b60405180910390fd5b6000829050826004600084815260200190815260200160002060008282546113a991906124c6565b925050819055508373ffffffffffffffffffffffffffffffffffffffff166108fc829081150290604051600060405180830381858888f193505050501580156113f6573d6000803e3d6000fd5b507f374d982865917bf9690a43d9d87551a5bf10ca92a619f240ae5932cb7bfe218e60046000848152602001908152602001600020546040516114399190612331565b60405180910390a15050505050565b60008260405160200161145b91906120b4565b60405160208183030381529060405280519060200120905060046000828152602001908152602001600020548211156114c9576040517f08c379a00000000000000000000000000000000000000000000000000000000081526004016114c09061228d565b60405180910390fd5b6000829050826004600084815260200190815260200160002060008282546114f191906124c6565b925050819055508373ffffffffffffffffffffffffffffffffffffffff166108fc829081150290604051600060405180830381858888f1935050505015801561153e573d6000803e3d6000fd5b507ff86aa5be0c5cbcf478870e7cf4f0b987112da5139066ef8dae48602b79d0b34d600460008660405160200161157591906120b4565b604051602081830303815290604052805190602001208152602001908152602001600020546040516115a79190612331565b60405180910390a150505050565b600080826006544244336040516020016115d2949392919061210e565b6040516020818303038152906040528051906020012060001c6115f59190612748565b90506006600081548092919061160a90612695565b919050555080915050919050565b828054611624906125e4565b90600052602060002090601f016020900481019282611646576000855561168d565b82601f1061165f57805160ff191683800117855561168d565b8280016001018555821561168d579182015b8281111561168c578251825591602001919060010190611671565b5b50905061169a919061169e565b5090565b5b808211156116b757600081600090555060010161169f565b5090565b60006116ce6116c984612371565b61234c565b905080838252602082019050828560208602820111156116ed57600080fd5b60005b8581101561171d5781611703888261187e565b8452602084019350602083019250506001810190506116f0565b5050509392505050565b600061173a6117358461239d565b61234c565b9050808382526020820190508285602086028201111561175957600080fd5b60005b858110156117a357813567ffffffffffffffff81111561177b57600080fd5b8086016117888982611893565b8552602085019450602084019350505060018101905061175c565b5050509392505050565b60006117c06117bb846123c9565b61234c565b9050828152602081018484840111156117d857600080fd5b6117e38482856125a2565b509392505050565b6000813590506117fa8161293d565b92915050565b60008135905061180f81612954565b92915050565b600082601f83011261182657600080fd5b81356118368482602086016116bb565b91505092915050565b600082601f83011261185057600080fd5b8135611860848260208601611727565b91505092915050565b6000813590506118788161296b565b92915050565b60008135905061188d81612982565b92915050565b600082601f8301126118a457600080fd5b81356118b48482602086016117ad565b91505092915050565b6000813590506118cc81612999565b92915050565b6000813590506118e1816129b0565b92915050565b600080604083850312156118fa57600080fd5b600061190885828601611800565b9250506020611919858286016118bd565b9150509250929050565b60008060006060848603121561193857600080fd5b6000611946868287016117eb565b935050602061195786828701611800565b9250506040611968868287016118bd565b9150509250925092565b60006020828403121561198457600080fd5b60006119928482850161187e565b91505092915050565b600080604083850312156119ae57600080fd5b60006119bc8582860161187e565b92505060206119cd858286016118bd565b9150509250929050565b6000602082840312156119e957600080fd5b600082013567ffffffffffffffff811115611a0357600080fd5b611a0f84828501611893565b91505092915050565b600080600060608486031215611a2d57600080fd5b600084013567ffffffffffffffff811115611a4757600080fd5b611a5386828701611893565b9350506020611a64868287016117eb565b925050604084013567ffffffffffffffff811115611a8157600080fd5b611a8d8682870161183f565b9150509250925092565b60008060008060008060c08789031215611ab057600080fd5b600087013567ffffffffffffffff811115611aca57600080fd5b611ad689828a01611893565b965050602087013567ffffffffffffffff811115611af357600080fd5b611aff89828a01611893565b9550506040611b1089828a016117eb565b945050606087013567ffffffffffffffff811115611b2d57600080fd5b611b3989828a0161183f565b9350506080611b4a89828a016118bd565b92505060a0611b5b89828a01611869565b9150509295509295509295565b600080600060608486031215611b7d57600080fd5b600084013567ffffffffffffffff811115611b9757600080fd5b611ba386828701611893565b935050602084013567ffffffffffffffff811115611bc057600080fd5b611bcc86828701611893565b925050604084013567ffffffffffffffff811115611be957600080fd5b611bf586828701611815565b9150509250925092565b600080600060608486031215611c1457600080fd5b600084013567ffffffffffffffff811115611c2e57600080fd5b611c3a86828701611893565b935050602084013567ffffffffffffffff811115611c5757600080fd5b611c6386828701611893565b925050604084013567ffffffffffffffff811115611c8057600080fd5b611c8c8682870161183f565b9150509250925092565b60008060008060808587031215611cac57600080fd5b600085013567ffffffffffffffff811115611cc657600080fd5b611cd287828801611893565b945050602085013567ffffffffffffffff811115611cef57600080fd5b611cfb87828801611893565b9350506040611d0c878288016118d2565b925050606085013567ffffffffffffffff811115611d2957600080fd5b611d3587828801611893565b91505092959194509250565b600060208284031215611d5357600080fd5b6000611d61848285016118bd565b91505092915050565b6000611d768383611e51565b60208301905092915050565b611d93611d8e82612543565b61271a565b82525050565b611da281612531565b82525050565b611db181612531565b82525050565b611dc8611dc382612531565b612708565b82525050565b6000611dd98261240f565b611de38185612432565b9350611dee836123fa565b8060005b83811015611e2657611e0382612835565b611e0d8882611d6a565b9750611e1883612425565b925050600181019050611df2565b5085935050505092915050565b611e3c81612555565b82525050565b611e4b81612555565b82525050565b611e5a81612561565b82525050565b611e6981612561565b82525050565b6000611e7a8261241a565b611e848185612443565b9350611e948185602086016125b1565b611e9d81612848565b840191505092915050565b6000611eb38261241a565b611ebd8185612454565b9350611ecd8185602086016125b1565b611ed681612848565b840191505092915050565b6000611eec8261241a565b611ef68185612465565b9350611f068185602086016125b1565b80840191505092915050565b6000611f1f601583612454565b9150611f2a82612873565b602082019050919050565b6000611f42601b83612454565b9150611f4d8261289c565b602082019050919050565b6000611f65601683612454565b9150611f70826128c5565b602082019050919050565b6000611f88602583612454565b9150611f93826128ee565b604082019050919050565b60006060830160008301518482036000860152611fbb8282611e6f565b9150506020830151611fd0602086018261207b565b506040830151611fe36040860182611e51565b508091505092915050565b600060608301600080840154905061200581612616565b6120126000870182611d99565b506001840185830360208701526120298382611dce565b9250506002840154905061203c81612630565b6120496040870182611e33565b50819250505092915050565b61205e8161258b565b82525050565b6120756120708261258b565b61273e565b82525050565b61208481612595565b82525050565b61209381612595565b82525050565b60006120a58284611db7565b60148201915081905092915050565b60006120c08284611d82565b60148201915081905092915050565b60006120db8284611ee1565b915081905092915050565b60006120f28285611ee1565b91506120fe8284611db7565b6014820191508190509392505050565b600061211a8287612064565b60208201915061212a8286612064565b60208201915061213a8285612064565b60208201915061214a8284611db7565b60148201915081905095945050505050565b60006040820190506121716000830185611da8565b61217e6020830184611e42565b9392505050565b600060408201905061219a6000830185611da8565b6121a76020830184612055565b9392505050565b60006020820190506121c36000830184611e42565b92915050565b60006020820190506121de6000830184611e60565b92915050565b60006040820190506121f96000830185611e60565b6122066020830184611da8565b9392505050565b600060208201905081810360008301526122278184611ea8565b905092915050565b600060608201905081810360008301526122498186611ea8565b9050612258602083018561208a565b6122656040830184611e60565b949350505050565b6000602082019050818103600083015261228681611f12565b9050919050565b600060208201905081810360008301526122a681611f35565b9050919050565b600060208201905081810360008301526122c681611f58565b9050919050565b600060208201905081810360008301526122e681611f7b565b9050919050565b600060208201905081810360008301526123078184611f9e565b905092915050565b600060208201905081810360008301526123298184611fee565b905092915050565b60006020820190506123466000830184612055565b92915050565b6000612356612367565b90506123628282612664565b919050565b6000604051905090565b600067ffffffffffffffff82111561238c5761238b612806565b5b602082029050602081019050919050565b600067ffffffffffffffff8211156123b8576123b7612806565b5b602082029050602081019050919050565b600067ffffffffffffffff8211156123e4576123e3612806565b5b6123ed82612848565b9050602081019050919050565b60008190508160005260206000209050919050565b600081549050919050565b600081519050919050565b6000600182019050919050565b600082825260208201905092915050565b600082825260208201905092915050565b600082825260208201905092915050565b600081905092915050565b600061247b8261258b565b91506124868361258b565b9250827fffffffffffffffffffffffffffffffffffffffffffffffffffffffffffffffff038211156124bb576124ba612779565b5b828201905092915050565b60006124d18261258b565b91506124dc8361258b565b9250828210156124ef576124ee612779565b5b828203905092915050565b600073ffffffffffffffffffffffffffffffffffffffff82169050919050565b600060ff82169050919050565b6000819050919050565b600061253c8261256b565b9050919050565b600061254e8261256b565b9050919050565b60008115159050919050565b6000819050919050565b600073ffffffffffffffffffffffffffffffffffffffff82169050919050565b6000819050919050565b600060ff82169050919050565b82818337600083830152505050565b60005b838110156125cf5780820151818401526020810190506125b4565b838111156125de576000848401525b50505050565b600060028204905060018216806125fc57607f821691505b602082108114156126105761260f6127d7565b5b50919050565b600061262961262483612866565b6124fa565b9050919050565b600061264361263e83612866565b61251a565b9050919050565b600061265d61265883612866565b612527565b9050919050565b61266d82612848565b810181811067ffffffffffffffff8211171561268c5761268b612806565b5b80604052505050565b60006126a08261258b565b91507fffffffffffffffffffffffffffffffffffffffffffffffffffffffffffffffff8214156126d3576126d2612779565b5b600182019050919050565b60006126e982612595565b915060ff8214156126fd576126fc612779565b5b600182019050919050565b60006127138261272c565b9050919050565b60006127258261272c565b9050919050565b600061273782612859565b9050919050565b6000819050919050565b60006127538261258b565b915061275e8361258b565b92508261276e5761276d6127a8565b5b828206905092915050565b7f4e487b7100000000000000000000000000000000000000000000000000000000600052601160045260246000fd5b7f4e487b7100000000000000000000000000000000000000000000000000000000600052601260045260246000fd5b7f4e487b7100000000000000000000000000000000000000000000000000000000600052602260045260246000fd5b7f4e487b7100000000000000000000000000000000000000000000000000000000600052604160045260246000fd5b6000612841825461264a565b9050919050565b6000601f19601f8301169050919050565b60008160601b9050919050565b60008160001c9050919050565b7f4e6f7420656e6f756768206d6f6e65792073656e740000000000000000000000600082015250565b7f4e6f7420656e6f756768206d6f6e657920696e206465706f7369740000000000600082015250565b7f55736572206973206e6f74207265676973746572656400000000000000000000600082015250565b7f416c7265616479207265717565737465642073616d706c65206f66207468697360008201527f206974656d000000000000000000000000000000000000000000000000000000602082015250565b61294681612531565b811461295157600080fd5b50565b61295d81612543565b811461296857600080fd5b50565b61297481612555565b811461297f57600080fd5b50565b61298b81612561565b811461299657600080fd5b50565b6129a28161258b565b81146129ad57600080fd5b50565b6129b981612595565b81146129c457600080fd5b5056fea2646970667358221220e64457fa0638428076f38fa87c3e6dc743d99dada6986fefa91e650edda3192a64736f6c63430008040033",
  "immutableReferences": {},
  "source": "//\"SPDX-License-Identifier: UNLICENSED\"\r\npragma solidity 0.8.4;\r\n\r\nimport \"./DataDappContract.sol\";\r\n\r\ncontract TestDataDappContract is DataDappContract {\r\n    event Test1(uint256 _index);\r\n    event Test2(bool _bool);\r\n    event Test3(bool _bool);\r\n\r\n    function test_getRandomKeyIndex(uint256 mod) external {\r\n        emit Test1(getRandomKeyIndex(mod));\r\n    }\r\n\r\n    function test_hashKeysAndCompare(\r\n        string memory _packetId,\r\n        address _requesterAddress,\r\n        string[] memory _keysFromSeller\r\n    ) external {\r\n        bytes32 _index =\r\n            keccak256(abi.encodePacked(_packetId, _requesterAddress));\r\n        emit Test2(hashKeysAndCompare(_index, _keysFromSeller));\r\n    }\r\n\r\n    function test_itemSold(string memory _id) external {\r\n        emit Test2(itemSold(_id));\r\n    }\r\n\r\n    function test_sendMoney(\r\n        address from,\r\n        address payable _to,\r\n        uint256 price\r\n    ) external {\r\n        sendMoney(from, _to, price);\r\n    }\r\n\r\n    function test_returnMoney(address payable _to, uint256 price) external {\r\n        returnMoney(_to, price);\r\n    }\r\n}\r\n",
  "sourcePath": "C:/Users/vaspa/Desktop/Files/dis-project/contracts/TestDataDappContract.sol",
  "compiler": {
    "name": "solc",
    "version": "0.8.4+commit.c7e474f2.Emscripten.clang"
  },
  "schemaVersion": "3.4.0",
  "updatedAt": "2021-05-25T07:27:40.763Z",
  "networkType": "ethereum",
  "devdoc": {
    "kind": "dev",
    "methods": {},
    "version": 1
  },
  "userdoc": {
    "kind": "user",
    "methods": {},
    "version": 1
  }
}