{
  "contractName": "TestDataDappContract",
  "abi": [
    {
      "anonymous": false,
      "inputs": [
        {
          "indexed": false,
          "internalType": "address",
          "name": "requester",
          "type": "address"
        },
        {
          "indexed": false,
          "internalType": "uint256",
          "name": "deposit",
          "type": "uint256"
        }
      ],
      "name": "DepositEvent",
      "type": "event"
    },
    {
      "anonymous": false,
      "inputs": [
        {
          "indexed": false,
          "internalType": "string",
          "name": "_id",
          "type": "string"
        }
      ],
      "name": "Register",
      "type": "event"
    },
    {
      "anonymous": false,
      "inputs": [
        {
          "indexed": false,
          "internalType": "uint256",
          "name": "depositRequester",
          "type": "uint256"
        }
      ],
      "name": "ReturnMoneyEvent",
      "type": "event"
    },
    {
      "anonymous": false,
      "inputs": [
        {
          "components": [
            {
              "internalType": "string",
              "name": "reviewer",
              "type": "string"
            },
            {
              "internalType": "uint8",
              "name": "rating",
              "type": "uint8"
            },
            {
              "internalType": "bytes32",
              "name": "comments",
              "type": "bytes32"
            }
          ],
          "indexed": false,
          "internalType": "struct DataDappContract.Review",
          "name": "review",
          "type": "tuple"
        }
      ],
      "name": "ReviewResult",
      "type": "event"
    },
    {
      "anonymous": false,
      "inputs": [
        {
          "indexed": false,
          "internalType": "address",
          "name": "requester",
          "type": "address"
        },
        {
          "indexed": false,
          "internalType": "uint256",
          "name": "index",
          "type": "uint256"
        }
      ],
      "name": "SampleRequestResult",
      "type": "event"
    },
    {
      "anonymous": false,
      "inputs": [
        {
          "indexed": false,
          "internalType": "uint256",
          "name": "depositRequester",
          "type": "uint256"
        }
      ],
      "name": "SendMoneyEvent",
      "type": "event"
    },
    {
      "anonymous": false,
      "inputs": [
        {
          "indexed": false,
          "internalType": "uint256",
          "name": "_index",
          "type": "uint256"
        }
      ],
      "name": "Test1",
      "type": "event"
    },
    {
      "anonymous": false,
      "inputs": [
        {
          "indexed": false,
          "internalType": "bool",
          "name": "_bool",
          "type": "bool"
        }
      ],
      "name": "Test2",
      "type": "event"
    },
    {
      "anonymous": false,
      "inputs": [
        {
          "components": [
            {
              "internalType": "address",
              "name": "ownerAddress",
              "type": "address"
            },
            {
              "internalType": "bytes32[]",
              "name": "ipfsHashes",
              "type": "bytes32[]"
            },
            {
              "internalType": "bool",
              "name": "sold",
              "type": "bool"
            }
          ],
          "indexed": false,
          "internalType": "struct DataDappContract.UploadPacket",
          "name": "upload",
          "type": "tuple"
        }
      ],
      "name": "UploadResult",
      "type": "event"
    },
    {
      "inputs": [
        {
          "internalType": "string",
          "name": "_ownerId",
          "type": "string"
        },
        {
          "internalType": "string",
          "name": "_packetId",
          "type": "string"
        },
        {
          "internalType": "address",
          "name": "_requesterAddress",
          "type": "address"
        },
        {
          "internalType": "string[]",
          "name": "_keys",
          "type": "string[]"
        },
        {
          "internalType": "uint256",
          "name": "price",
          "type": "uint256"
        },
        {
          "internalType": "bool",
          "name": "_approve",
          "type": "bool"
        }
      ],
      "name": "addPurchase",
      "outputs": [],
      "stateMutability": "nonpayable",
      "type": "function"
    },
    {
      "inputs": [
        {
          "internalType": "string",
          "name": "_rated",
          "type": "string"
        },
        {
          "internalType": "string",
          "name": "_reviewer",
          "type": "string"
        },
        {
          "internalType": "uint8",
          "name": "_rating",
          "type": "uint8"
        },
        {
          "internalType": "string",
          "name": "_comments",
          "type": "string"
        }
      ],
      "name": "addReview",
      "outputs": [],
      "stateMutability": "nonpayable",
      "type": "function"
    },
    {
      "inputs": [
        {
          "internalType": "string",
          "name": "_requesterId",
          "type": "string"
        },
        {
          "internalType": "string",
          "name": "_packetId",
          "type": "string"
        },
        {
          "internalType": "bytes32[]",
          "name": "_keys",
          "type": "bytes32[]"
        }
      ],
      "name": "addSampleRequest",
      "outputs": [],
      "stateMutability": "nonpayable",
      "type": "function"
    },
    {
      "inputs": [
        {
          "internalType": "string",
          "name": "_userId",
          "type": "string"
        },
        {
          "internalType": "string",
          "name": "_packetId",
          "type": "string"
        },
        {
          "internalType": "string[]",
          "name": "_ipfsHashes",
          "type": "string[]"
        }
      ],
      "name": "addUpload",
      "outputs": [],
      "stateMutability": "nonpayable",
      "type": "function"
    },
    {
      "inputs": [
        {
          "internalType": "bytes32",
          "name": "",
          "type": "bytes32"
        }
      ],
      "name": "deposits",
      "outputs": [
        {
          "internalType": "uint256",
          "name": "",
          "type": "uint256"
        }
      ],
      "stateMutability": "view",
      "type": "function",
      "constant": true
    },
    {
      "inputs": [
        {
          "internalType": "bytes32",
          "name": "",
          "type": "bytes32"
        }
      ],
      "name": "purchases",
      "outputs": [
        {
          "internalType": "bytes32",
          "name": "packetId",
          "type": "bytes32"
        },
        {
          "internalType": "address",
          "name": "requesterAddress",
          "type": "address"
        }
      ],
      "stateMutability": "view",
      "type": "function",
      "constant": true
    },
    {
      "inputs": [
        {
          "internalType": "string",
          "name": "_id",
          "type": "string"
        }
      ],
      "name": "registerUser",
      "outputs": [],
      "stateMutability": "nonpayable",
      "type": "function"
    },
    {
      "inputs": [
        {
          "internalType": "bytes32",
          "name": "",
          "type": "bytes32"
        }
      ],
      "name": "registeredUsers",
      "outputs": [
        {
          "internalType": "bool",
          "name": "",
          "type": "bool"
        }
      ],
      "stateMutability": "view",
      "type": "function",
      "constant": true
    },
    {
      "inputs": [
        {
          "internalType": "bytes32",
          "name": "",
          "type": "bytes32"
        },
        {
          "internalType": "uint256",
          "name": "",
          "type": "uint256"
        }
      ],
      "name": "reviews",
      "outputs": [
        {
          "internalType": "string",
          "name": "reviewer",
          "type": "string"
        },
        {
          "internalType": "uint8",
          "name": "rating",
          "type": "uint8"
        },
        {
          "internalType": "bytes32",
          "name": "comments",
          "type": "bytes32"
        }
      ],
      "stateMutability": "view",
      "type": "function",
      "constant": true
    },
    {
      "inputs": [
        {
          "internalType": "bytes32",
          "name": "",
          "type": "bytes32"
        },
        {
          "internalType": "uint256",
          "name": "",
          "type": "uint256"
        }
      ],
      "name": "sampleRequests",
      "outputs": [
        {
          "internalType": "bytes32",
          "name": "",
          "type": "bytes32"
        }
      ],
      "stateMutability": "view",
      "type": "function",
      "constant": true
    },
    {
      "inputs": [
        {
          "internalType": "bytes32",
          "name": "",
          "type": "bytes32"
        }
      ],
      "name": "uploads",
      "outputs": [
        {
          "internalType": "address",
          "name": "ownerAddress",
          "type": "address"
        },
        {
          "internalType": "bool",
          "name": "sold",
          "type": "bool"
        }
      ],
      "stateMutability": "view",
      "type": "function",
      "constant": true
    },
    {
      "stateMutability": "payable",
      "type": "receive",
      "payable": true
    },
    {
      "inputs": [
        {
          "internalType": "uint256",
          "name": "mod",
          "type": "uint256"
        }
      ],
      "name": "test_getRandomKeyIndex",
      "outputs": [],
      "stateMutability": "nonpayable",
      "type": "function"
    },
    {
      "inputs": [
        {
          "internalType": "string",
          "name": "_packetId",
          "type": "string"
        },
        {
          "internalType": "address",
          "name": "_requesterAddress",
          "type": "address"
        },
        {
          "internalType": "string[]",
          "name": "_keysFromSeller",
          "type": "string[]"
        }
      ],
      "name": "test_hashKeysAndCompare",
      "outputs": [],
      "stateMutability": "nonpayable",
      "type": "function"
    },
    {
      "inputs": [
        {
          "internalType": "address",
          "name": "from",
          "type": "address"
        },
        {
          "internalType": "address payable",
          "name": "_to",
          "type": "address"
        },
        {
          "internalType": "uint256",
          "name": "price",
          "type": "uint256"
        }
      ],
      "name": "test_sendMoney",
      "outputs": [],
      "stateMutability": "nonpayable",
      "type": "function"
    },
    {
      "inputs": [
        {
          "internalType": "address payable",
          "name": "_to",
          "type": "address"
        },
        {
          "internalType": "uint256",
          "name": "price",
          "type": "uint256"
        }
      ],
      "name": "test_returnMoney",
      "outputs": [],
      "stateMutability": "nonpayable",
      "type": "function"
    }
  ],
  "bytecode": "0x608060405234801561001057600080fd5b50612a21806100206000396000f3fe6080604052600436106100ec5760003560e01c80637ab8dbe91161008a578063c0302cdd11610059578063c0302cdd146103c5578063cea85546146103ee578063d68557ae14610417578063f0d26e3a1461045457610195565b80637ab8dbe9146102f75780639283792b1461033557806396929d5f1461035e57806397b130bf1461038757610195565b8063414f5a0f116100c6578063414f5a0f1461023f578063635398481461026857806367c8753b14610291578063704f1b94146102ce57610195565b80631e5d30761461019a578063366c6ea4146101c35780633d4dff7b1461020257610195565b36610195576000336040516020016101049190612074565b6040516020818303038152906040528051906020012090503460046000838152602001908152602001600020600082825461013f919061246b565b925050819055507f2d8a08b6430a894aea608bcaa6013d5d3e263bc49110605e4d4ba76930ae5c2933600460008481526020019081526020016000205460405161018a929190612160565b60405180910390a150005b600080fd5b3480156101a657600080fd5b506101c160048036038101906101bc9190611c4e565b61047d565b005b3480156101cf57600080fd5b506101ea60048036038101906101e59190611953565b6106cc565b6040516101f99392919061220a565b60405180910390f35b34801561020e57600080fd5b506102296004803603810190610224919061192a565b6107a8565b604051610236919061232c565b60405180910390f35b34801561024b57600080fd5b5061026660048036038101906102619190611a4f565b6107c0565b005b34801561027457600080fd5b5061028f600480360381019061028a91906118db565b610aea565b005b34801561029d57600080fd5b506102b860048036038101906102b39190611953565b610afa565b6040516102c591906121a4565b60405180910390f35b3480156102da57600080fd5b506102f560048036038101906102f0919061198f565b610b2b565b005b34801561030357600080fd5b5061031e6004803603810190610319919061192a565b610bb6565b60405161032c9291906121bf565b60405180910390f35b34801561034157600080fd5b5061035c60048036038101906103579190611cf9565b610bfa565b005b34801561036a57600080fd5b5061038560048036038101906103809190611b20565b610c3c565b005b34801561039357600080fd5b506103ae60048036038101906103a9919061192a565b610e4d565b6040516103bc929190612137565b60405180910390f35b3480156103d157600080fd5b506103ec60048036038101906103e79190611bb7565b610e9e565b005b3480156103fa57600080fd5b50610415600480360381019061041091906119d0565b6110c4565b005b34801561042357600080fd5b5061043e6004803603810190610439919061192a565b611137565b60405161044b9190612189565b60405180910390f35b34801561046057600080fd5b5061047b6004803603810190610476919061189f565b611157565b005b83600115156000808360405160200161049691906120aa565b60405160208183030381529060405280519060200120815260200190815260200160002060009054906101000a900460ff1615151461050a576040517f08c379a000000000000000000000000000000000000000000000000000000000815260040161050190612288565b60405180910390fd5b83600115156000808360405160200161052391906120aa565b60405160208183030381529060405280519060200120815260200190815260200160002060009054906101000a900460ff16151514610597576040517f08c379a000000000000000000000000000000000000000000000000000000000815260040161058e90612288565b60405180910390fd5b600060405180606001604052808781526020018660ff168152602001856040516020016105c491906120aa565b60405160208183030381529060405280519060200120815250905060056000886040516020016105f491906120aa565b604051602081830303815290604052805190602001208152602001908152602001600020819080600181540180825580915050600190039060005260206000209060030201600090919091909150600082015181600001908051906020019061065e9291906115d0565b5060208201518160010160006101000a81548160ff021916908360ff1602179055506040820151816002015550507f52b7a5046109bc575df27b04dadaac96f00086418a53ae85d90679f2c275a28f816040516106bb91906122e8565b60405180910390a150505050505050565b600560205281600052604060002081815481106106e857600080fd5b90600052602060002090600302016000915091505080600001805461070c906125df565b80601f0160208091040260200160405190810160405280929190818152602001828054610738906125df565b80156107855780601f1061075a57610100808354040283529160200191610785565b820191906000526020600020905b81548152906001019060200180831161076857829003601f168201915b5050505050908060010160009054906101000a900460ff16908060020154905083565b60046020528060005260406000206000915090505481565b8560011515600080836040516020016107d991906120aa565b60405160208183030381529060405280519060200120815260200190815260200160002060009054906101000a900460ff1615151461084d576040517f08c379a000000000000000000000000000000000000000000000000000000000815260040161084490612288565b60405180910390fd5b8560011515600160008360405160200161086791906120aa565b60405160208183030381529060405280519060200120815260200190815260200160002060020160009054906101000a900460ff16151514156108df576040517f08c379a00000000000000000000000000000000000000000000000000000000081526004016108d6906122a8565b60405180910390fd5b600087876040516020016108f49291906120c1565b60405160208183030381529060405280519060200120905083801561091f575061091e8187611165565b5b15610ad4578760405160200161093591906120aa565b604051602081830303815290604052805190602001206003600083815260200190815260200160002060000181905550866003600083815260200190815260200160002060010160006101000a81548173ffffffffffffffffffffffffffffffffffffffff021916908373ffffffffffffffffffffffffffffffffffffffff16021790555060005b86518160ff161015610a6f5760036000838152602001908152602001600020600201878260ff1681518110610a1b577f4e487b7100000000000000000000000000000000000000000000000000000000600052603260045260246000fd5b6020026020010151908060018154018082558091505060019003906000526020600020016000909190919091509080519060200190610a5b9291906115d0565b508080610a67906126d9565b9150506109bd565b5060018060008a604051602001610a8691906120aa565b60405160208183030381529060405280519060200120815260200190815260200160002060020160006101000a81548160ff021916908315150217905550610acf8733876112b8565b610adf565b610ade8786611400565b5b505050505050505050565b610af58383836112b8565b505050565b60026020528160005260406000208181548110610b1657600080fd5b90600052602060002001600091509150505481565b600160008083604051602001610b4191906120aa565b60405160208183030381529060405280519060200120815260200190815260200160002060006101000a81548160ff0219169083151502179055507f40b2d3af7e7a908ab771e3b293d2df299bb187d4ac2dcb3dbc2455fdcf5c15dd81604051610bab91906121e8565b60405180910390a150565b60036020528060005260406000206000915090508060000154908060010160009054906101000a900473ffffffffffffffffffffffffffffffffffffffff16905082565b7f43789b30e4c6d53e2735e5701207b0529b2cc229b1bb02b9691d39ea218da7d7610c248261156d565b604051610c31919061232c565b60405180910390a150565b826001151560008083604051602001610c5591906120aa565b60405160208183030381529060405280519060200120815260200190815260200160002060009054906101000a900460ff16151514610cc9576040517f08c379a0000000000000000000000000000000000000000000000000000000008152600401610cc090612288565b60405180910390fd5b60008333604051602001610cde9291906120c1565b6040516020818303038152906040528051906020012090506000600260008381526020019081526020016000208054905014610d4f576040517f08c379a0000000000000000000000000000000000000000000000000000000008152600401610d46906122c8565b60405180910390fd5b60005b83518160ff161015610dee5760026000838152602001908152602001600020848260ff1681518110610dad577f4e487b7100000000000000000000000000000000000000000000000000000000600052603260045260246000fd5b602002602001015190806001815401808255809150506001900390600052602060002001600090919091909150558080610de6906126d9565b915050610d52565b507f089aa10c109296bf82ebc419d1f7adbe9f9d3c367c6f43ceffb6aa1fadc9187033610e30600260008581526020019081526020016000208054905061156d565b604051610e3e929190612160565b60405180910390a15050505050565b60016020528060005260406000206000915090508060000160009054906101000a900473ffffffffffffffffffffffffffffffffffffffff16908060020160009054906101000a900460ff16905082565b826001151560008083604051602001610eb791906120aa565b60405160208183030381529060405280519060200120815260200190815260200160002060009054906101000a900460ff16151514610f2b576040517f08c379a0000000000000000000000000000000000000000000000000000000008152600401610f2290612288565b60405180910390fd5b600083604051602001610f3e91906120aa565b604051602081830303815290604052805190602001209050336001600083815260200190815260200160002060000160006101000a81548173ffffffffffffffffffffffffffffffffffffffff021916908373ffffffffffffffffffffffffffffffffffffffff16021790555060005b83518160ff1610156110735760016000838152602001908152602001600020600101848260ff168151811061100c577f4e487b7100000000000000000000000000000000000000000000000000000000600052603260045260246000fd5b602002602001015160405160200161102491906120aa565b604051602081830303815290604052805190602001209080600181540180825580915050600190039060005260206000200160009091909190915055808061106b906126d9565b915050610fae565b507f0c6fa9feb9d1a77b6b20251fdcd90466509bf7b9c9f650d70394aa888545ab80600160008381526020019081526020016000206040516110b5919061230a565b60405180910390a15050505050565b600083836040516020016110d99291906120c1565b6040516020818303038152906040528051906020012090507fb0c9de9a4db69eccf9473f3a058572d0a6c641ae46b892f1da66fa03f81af33961111c8284611165565b6040516111299190612189565b60405180910390a150505050565b60006020528060005260406000206000915054906101000a900460ff1681565b6111618282611400565b5050565b600080600260008581526020019081526020016000208054806020026020016040519081016040528092919081815260200182805480156111c557602002820191906000526020600020905b8154815260200190600101908083116111b1575b5050505050905060006001905060005b82518160ff1610156112ac57848160ff168151811061121d577f4e487b7100000000000000000000000000000000000000000000000000000000600052603260045260246000fd5b602002602001015160405160200161123591906121e8565b60405160208183030381529060405280519060200120838260ff1681518110611287577f4e487b7100000000000000000000000000000000000000000000000000000000600052603260045260246000fd5b60200260200101511461129957600091505b80806112a4906126d9565b9150506111d5565b50809250505092915050565b6000836040516020016112cb9190612074565b6040516020818303038152906040528051906020012090506004600082815260200190815260200160002054821115611339576040517f08c379a000000000000000000000000000000000000000000000000000000000815260040161133090612248565b60405180910390fd5b60008290508260046000848152602001908152602001600020600082825461136191906124c1565b925050819055508373ffffffffffffffffffffffffffffffffffffffff166108fc829081150290604051600060405180830381858888f193505050501580156113ae573d6000803e3d6000fd5b507f374d982865917bf9690a43d9d87551a5bf10ca92a619f240ae5932cb7bfe218e60046000848152602001908152602001600020546040516113f1919061232c565b60405180910390a15050505050565b600082604051602001611413919061208f565b6040516020818303038152906040528051906020012090506004600082815260200190815260200160002054821115611481576040517f08c379a000000000000000000000000000000000000000000000000000000000815260040161147890612268565b60405180910390fd5b6000829050826004600084815260200190815260200160002060008282546114a991906124c1565b925050819055508373ffffffffffffffffffffffffffffffffffffffff166108fc829081150290604051600060405180830381858888f193505050501580156114f6573d6000803e3d6000fd5b507ff86aa5be0c5cbcf478870e7cf4f0b987112da5139066ef8dae48602b79d0b34d600460008660405160200161152d919061208f565b6040516020818303038152906040528051906020012081526020019081526020016000205460405161155f919061232c565b60405180910390a150505050565b6000808260065442443360405160200161158a94939291906120e9565b6040516020818303038152906040528051906020012060001c6115ad9190612743565b9050600660008154809291906115c290612690565b919050555080915050919050565b8280546115dc906125df565b90600052602060002090601f0160209004810192826115fe5760008555611645565b82601f1061161757805160ff1916838001178555611645565b82800160010185558215611645579182015b82811115611644578251825591602001919060010190611629565b5b5090506116529190611656565b5090565b5b8082111561166f576000816000905550600101611657565b5090565b60006116866116818461236c565b612347565b905080838252602082019050828560208602820111156116a557600080fd5b60005b858110156116d557816116bb8882611836565b8452602084019350602083019250506001810190506116a8565b5050509392505050565b60006116f26116ed84612398565b612347565b9050808382526020820190508285602086028201111561171157600080fd5b60005b8581101561175b57813567ffffffffffffffff81111561173357600080fd5b808601611740898261184b565b85526020850194506020840193505050600181019050611714565b5050509392505050565b6000611778611773846123c4565b612347565b90508281526020810184848401111561179057600080fd5b61179b84828561259d565b509392505050565b6000813590506117b281612961565b92915050565b6000813590506117c781612978565b92915050565b600082601f8301126117de57600080fd5b81356117ee848260208601611673565b91505092915050565b600082601f83011261180857600080fd5b81356118188482602086016116df565b91505092915050565b6000813590506118308161298f565b92915050565b600081359050611845816129a6565b92915050565b600082601f83011261185c57600080fd5b813561186c848260208601611765565b91505092915050565b600081359050611884816129bd565b92915050565b600081359050611899816129d4565b92915050565b600080604083850312156118b257600080fd5b60006118c0858286016117b8565b92505060206118d185828601611875565b9150509250929050565b6000806000606084860312156118f057600080fd5b60006118fe868287016117a3565b935050602061190f868287016117b8565b925050604061192086828701611875565b9150509250925092565b60006020828403121561193c57600080fd5b600061194a84828501611836565b91505092915050565b6000806040838503121561196657600080fd5b600061197485828601611836565b925050602061198585828601611875565b9150509250929050565b6000602082840312156119a157600080fd5b600082013567ffffffffffffffff8111156119bb57600080fd5b6119c78482850161184b565b91505092915050565b6000806000606084860312156119e557600080fd5b600084013567ffffffffffffffff8111156119ff57600080fd5b611a0b8682870161184b565b9350506020611a1c868287016117a3565b925050604084013567ffffffffffffffff811115611a3957600080fd5b611a45868287016117f7565b9150509250925092565b60008060008060008060c08789031215611a6857600080fd5b600087013567ffffffffffffffff811115611a8257600080fd5b611a8e89828a0161184b565b965050602087013567ffffffffffffffff811115611aab57600080fd5b611ab789828a0161184b565b9550506040611ac889828a016117a3565b945050606087013567ffffffffffffffff811115611ae557600080fd5b611af189828a016117f7565b9350506080611b0289828a01611875565b92505060a0611b1389828a01611821565b9150509295509295509295565b600080600060608486031215611b3557600080fd5b600084013567ffffffffffffffff811115611b4f57600080fd5b611b5b8682870161184b565b935050602084013567ffffffffffffffff811115611b7857600080fd5b611b848682870161184b565b925050604084013567ffffffffffffffff811115611ba157600080fd5b611bad868287016117cd565b9150509250925092565b600080600060608486031215611bcc57600080fd5b600084013567ffffffffffffffff811115611be657600080fd5b611bf28682870161184b565b935050602084013567ffffffffffffffff811115611c0f57600080fd5b611c1b8682870161184b565b925050604084013567ffffffffffffffff811115611c3857600080fd5b611c44868287016117f7565b9150509250925092565b60008060008060808587031215611c6457600080fd5b600085013567ffffffffffffffff811115611c7e57600080fd5b611c8a8782880161184b565b945050602085013567ffffffffffffffff811115611ca757600080fd5b611cb38782880161184b565b9350506040611cc48782880161188a565b925050606085013567ffffffffffffffff811115611ce157600080fd5b611ced8782880161184b565b91505092959194509250565b600060208284031215611d0b57600080fd5b6000611d1984828501611875565b91505092915050565b6000611d2e8383611e09565b60208301905092915050565b611d4b611d468261253e565b612715565b82525050565b611d5a8161252c565b82525050565b611d698161252c565b82525050565b611d80611d7b8261252c565b612703565b82525050565b6000611d918261240a565b611d9b818561242d565b9350611da6836123f5565b8060005b83811015611dde57611dbb82612830565b611dc58882611d22565b9750611dd083612420565b925050600181019050611daa565b5085935050505092915050565b611df481612550565b82525050565b611e0381612550565b82525050565b611e128161255c565b82525050565b611e218161255c565b82525050565b6000611e3282612415565b611e3c818561243e565b9350611e4c8185602086016125ac565b611e5581612843565b840191505092915050565b6000611e6b82612415565b611e75818561244f565b9350611e858185602086016125ac565b611e8e81612843565b840191505092915050565b6000611ea482612415565b611eae8185612460565b9350611ebe8185602086016125ac565b80840191505092915050565b6000611ed760158361244f565b9150611ee28261286e565b602082019050919050565b6000611efa601b8361244f565b9150611f0582612897565b602082019050919050565b6000611f1d60168361244f565b9150611f28826128c0565b602082019050919050565b6000611f4060128361244f565b9150611f4b826128e9565b602082019050919050565b6000611f6360258361244f565b9150611f6e82612912565b604082019050919050565b60006060830160008301518482036000860152611f968282611e27565b9150506020830151611fab6020860182612056565b506040830151611fbe6040860182611e09565b508091505092915050565b6000606083016000808401549050611fe081612611565b611fed6000870182611d51565b506001840185830360208701526120048382611d86565b925050600284015490506120178161262b565b6120246040870182611deb565b50819250505092915050565b61203981612586565b82525050565b61205061204b82612586565b612739565b82525050565b61205f81612590565b82525050565b61206e81612590565b82525050565b60006120808284611d6f565b60148201915081905092915050565b600061209b8284611d3a565b60148201915081905092915050565b60006120b68284611e99565b915081905092915050565b60006120cd8285611e99565b91506120d98284611d6f565b6014820191508190509392505050565b60006120f5828761203f565b602082019150612105828661203f565b602082019150612115828561203f565b6020820191506121258284611d6f565b60148201915081905095945050505050565b600060408201905061214c6000830185611d60565b6121596020830184611dfa565b9392505050565b60006040820190506121756000830185611d60565b6121826020830184612030565b9392505050565b600060208201905061219e6000830184611dfa565b92915050565b60006020820190506121b96000830184611e18565b92915050565b60006040820190506121d46000830185611e18565b6121e16020830184611d60565b9392505050565b600060208201905081810360008301526122028184611e60565b905092915050565b600060608201905081810360008301526122248186611e60565b90506122336020830185612065565b6122406040830184611e18565b949350505050565b6000602082019050818103600083015261226181611eca565b9050919050565b6000602082019050818103600083015261228181611eed565b9050919050565b600060208201905081810360008301526122a181611f10565b9050919050565b600060208201905081810360008301526122c181611f33565b9050919050565b600060208201905081810360008301526122e181611f56565b9050919050565b600060208201905081810360008301526123028184611f79565b905092915050565b600060208201905081810360008301526123248184611fc9565b905092915050565b60006020820190506123416000830184612030565b92915050565b6000612351612362565b905061235d828261265f565b919050565b6000604051905090565b600067ffffffffffffffff82111561238757612386612801565b5b602082029050602081019050919050565b600067ffffffffffffffff8211156123b3576123b2612801565b5b602082029050602081019050919050565b600067ffffffffffffffff8211156123df576123de612801565b5b6123e882612843565b9050602081019050919050565b60008190508160005260206000209050919050565b600081549050919050565b600081519050919050565b6000600182019050919050565b600082825260208201905092915050565b600082825260208201905092915050565b600082825260208201905092915050565b600081905092915050565b600061247682612586565b915061248183612586565b9250827fffffffffffffffffffffffffffffffffffffffffffffffffffffffffffffffff038211156124b6576124b5612774565b5b828201905092915050565b60006124cc82612586565b91506124d783612586565b9250828210156124ea576124e9612774565b5b828203905092915050565b600073ffffffffffffffffffffffffffffffffffffffff82169050919050565b600060ff82169050919050565b6000819050919050565b600061253782612566565b9050919050565b600061254982612566565b9050919050565b60008115159050919050565b6000819050919050565b600073ffffffffffffffffffffffffffffffffffffffff82169050919050565b6000819050919050565b600060ff82169050919050565b82818337600083830152505050565b60005b838110156125ca5780820151818401526020810190506125af565b838111156125d9576000848401525b50505050565b600060028204905060018216806125f757607f821691505b6020821081141561260b5761260a6127d2565b5b50919050565b600061262461261f83612861565b6124f5565b9050919050565b600061263e61263983612861565b612515565b9050919050565b600061265861265383612861565b612522565b9050919050565b61266882612843565b810181811067ffffffffffffffff8211171561268757612686612801565b5b80604052505050565b600061269b82612586565b91507fffffffffffffffffffffffffffffffffffffffffffffffffffffffffffffffff8214156126ce576126cd612774565b5b600182019050919050565b60006126e482612590565b915060ff8214156126f8576126f7612774565b5b600182019050919050565b600061270e82612727565b9050919050565b600061272082612727565b9050919050565b600061273282612854565b9050919050565b6000819050919050565b600061274e82612586565b915061275983612586565b925082612769576127686127a3565b5b828206905092915050565b7f4e487b7100000000000000000000000000000000000000000000000000000000600052601160045260246000fd5b7f4e487b7100000000000000000000000000000000000000000000000000000000600052601260045260246000fd5b7f4e487b7100000000000000000000000000000000000000000000000000000000600052602260045260246000fd5b7f4e487b7100000000000000000000000000000000000000000000000000000000600052604160045260246000fd5b600061283c8254612645565b9050919050565b6000601f19601f8301169050919050565b60008160601b9050919050565b60008160001c9050919050565b7f4e6f7420656e6f756768206d6f6e65792073656e740000000000000000000000600082015250565b7f4e6f7420656e6f756768206d6f6e657920696e206465706f7369740000000000600082015250565b7f55736572206973206e6f74207265676973746572656400000000000000000000600082015250565b7f4974656d20686173206265656e20736f6c640000000000000000000000000000600082015250565b7f416c7265616479207265717565737465642073616d706c65206f66207468697360008201527f206974656d000000000000000000000000000000000000000000000000000000602082015250565b61296a8161252c565b811461297557600080fd5b50565b6129818161253e565b811461298c57600080fd5b50565b61299881612550565b81146129a357600080fd5b50565b6129af8161255c565b81146129ba57600080fd5b50565b6129c681612586565b81146129d157600080fd5b50565b6129dd81612590565b81146129e857600080fd5b5056fea2646970667358221220fe815ab53e0c96b0a2b1cf97f684f3f543b1f01998c7cde48c2dbca5c75704c964736f6c63430008040033",
  "immutableReferences": {},
  "source": "//\"SPDX-License-Identifier: UNLICENSED\"\r\npragma solidity 0.8.4;\r\n\r\nimport \"./DataDappContract.sol\";\r\n\r\ncontract TestDataDappContract is DataDappContract {\r\n    event Test1(uint256 _index);\r\n    event Test2(bool _bool);\r\n\r\n    function test_getRandomKeyIndex(uint256 mod) external {\r\n        emit Test1(getRandomKeyIndex(mod));\r\n    }\r\n\r\n    function test_hashKeysAndCompare(\r\n        string memory _packetId,\r\n        address _requesterAddress,\r\n        string[] memory _keysFromSeller\r\n    ) external {\r\n        bytes32 _index =\r\n            keccak256(abi.encodePacked(_packetId, _requesterAddress));\r\n        emit Test2(hashKeysAndCompare(_index, _keysFromSeller));\r\n    }\r\n\r\n    function test_sendMoney(\r\n        address from,\r\n        address payable _to,\r\n        uint256 price\r\n    ) external {\r\n        sendMoney(from, _to, price);\r\n    }\r\n\r\n    function test_returnMoney(address payable _to, uint256 price) external {\r\n        returnMoney(_to, price);\r\n    }\r\n}\r\n",
  "sourcePath": "C:/Users/vaspa/Desktop/Files/dis-project/contracts/TestDataDappContract.sol",
  "compiler": {
    "name": "solc",
    "version": "0.8.4+commit.c7e474f2.Emscripten.clang"
  },
  "schemaVersion": "3.4.0",
  "updatedAt": "2021-05-14T04:28:30.588Z",
  "networkType": "ethereum",
  "devdoc": {
    "kind": "dev",
    "methods": {},
    "version": 1
  },
  "userdoc": {
    "kind": "user",
    "methods": {},
    "version": 1
  }
}